:020000040800F2
:10000000005000202D3400089D300008A330000867
:10001000A9300008AF300008B5300008000000002B
:10002000000000000000000000000000BB300008DD
:10003000C730000800000000D3300008DF3000089F
:1000400075340008753400087534000875340008EC
:100050007534000875340008EB300008753400086A
:1000600075340008753400087534000875340008CC
:1000700075340008753400087534000875340008BC
:1000800075340008753400087534000875340008AC
:10009000753400087534000875340008753400089C
:1000A000753400087534000875340008753400088C
:1000B0007534000875340008F930000875340008FC
:1000C000753400087534000875340008753400086C
:1000D000753400087534000875340008753400085C
:1000E00075340008753400087534000800000000FD
:1000F0000000000000000000000000000000000000
:0C01000000000000000000005FF808F1A3
:10010C0010B5054C237833B9044B13B10448AFF345
:10011C0000800123237010BD90000020000000001F
:10012C00CC6F000808B5034B1BB103490348AFF370
:10013C00008008BD0000000094000020CC6F000877
:10014C004FF0FF0C1CEAD0521EBF1CEAD15392EAAE
:10015C000C0F93EA0C0F6FD01A4480EA010C40028A
:10016C0018BF5FEA41211ED04FF0006343EA5010E4
:10017C0043EA5111A0FB01310CF00040B1F5000F26
:10018C003EBF490041EAD3715B0040EA010062F1D5
:10019C007F02FD2A1DD8B3F1004F40EBC25008BFBF
:1001AC0020F00100704790F0000F0CF0004C08BFDD
:1001BC0049024CEA502040EA51207F3AC2BFD2F1AA
:1001CC00FF0340EAC250704740F400004FF00003B8
:1001DC00013A5DDC12F1190FDCBF00F000407047F2
:1001EC00C2F10002410021FA02F1C2F1200200FA30
:1001FC0002FC5FEA310040F1000053EA4C0308BFF7
:10020C0020EADC70704792F0000F00F0004C02BF47
:10021C00400010F4000F013AF9D040EA0C0093F0C2
:10022C00000F01F0004C02BF490011F4000F013B1C
:10023C00F9D041EA0C018FE70CEAD15392EA0C0F8A
:10024C0018BF93EA0C0F0AD030F0004C18BF31F0F5
:10025C00004CD8D180EA010000F00040704790F0CB
:10026C00000F17BF90F0004F084691F0000F91F06F
:10027C00004F14D092EA0C0F01D142020FD193EA35
:10028C000C0F03D14B0218BF084608D180EA0100BD
:10029C0000F0004040F0FE4040F40000704740F099
:1002AC00FE4040F44000704780F0004002E000BF88
:1002BC0081F0004142001FBF5FEA410392EA030F45
:1002CC007FEA226C7FEA236C6AD04FEA1262D2EB8F
:1002DC001363C1BFD218414048404140B8BF5B4294
:1002EC00192B88BF704710F0004F40F4000020F02D
:1002FC007F4018BF404211F0004F41F4000121F043
:10030C007F4118BF494292EA030F3FD0A2F101028C
:10031C0041FA03FC10EB0C00C3F1200301FA03F1CA
:10032C0000F0004302D5494260EB4000B0F5000FED
:10033C0013D3B0F1807F06D340084FEA310102F1AC
:10034C000102FE2A51D2B1F1004F40EBC25008BF5E
:10035C0020F0010040EA03007047490040EB000028
:10036C00013A28BFB0F5000FEDD2B0FA80FCACF129
:10037C00080CB2EB0C0200FA0CF0AABF00EBC25056
:10038C0052421843BCBFD0401843704792F0000F44
:10039C0081F4000106BF80F400000132013BB5E797
:1003AC004FEA41037FEA226C18BF7FEA236C21D00D
:1003BC0092EA030F04D092F0000F08BF0846704772
:1003CC0090EA010F1CBF0020704712F07F4F04D140
:1003DC00400028BF40F00040704712F100723CBF53
:1003EC0000F50000704700F0004343F0FE4040F47D
:1003FC00000070477FEA226216BF08467FEA23633B
:10040C000146420206BF5FEA412390EA010F40F425
:10041C00800070474FF0000304E000BF10F0004371
:10042C0048BF40425FEA000C08BF704743F0964358
:10043C0001464FF000001CE050EA010208BF704773
:10044C004FF000030AE000BF50EA010208BF7047FA
:10045C0011F0004302D5404261EB41015FEA010C0F
:10046C0002BF84460146002043F0B64308BFA3F107
:10047C008053A3F50003BCFA8CF2083AA3EBC253E9
:10048C0010DB01FA02FC634400FA02FCC2F1200208
:10049C00BCF1004F20FA02F243EB020008BF20F03F
:1004AC000100704702F1200201FA02FCC2F12002A5
:1004BC0050EA4C0021FA02F243EB020008BF20EA9A
:1004CC00DC7070474FEA4002B2F1FE4F0FD34FF091
:1004DC009E03B3EB12620DD94FEA002343F00043A5
:1004EC0010F0004F23FA02F018BF404270474FF053
:1004FC000000704712F1610F01D1420205D110F0DA
:10050C00004008BF6FF0004070474FF0000070478C
:10051C0080B582B000AF4FF000037B600022102149
:10052C001F4803F0C2FC322302221E491E4804F06D
:10053C00A3F9012210211A4803F0B7FC194B1B78C0
:10054C001B02184A527813439B1003F00103002B33
:10055C0014BF01230023DAB2144B1A70134B1B780F
:10056C0083F00103DBB2002B13D00E4B1B781B0264
:10057C000C4A52781343DB101846FFF74FFF034623
:10058C007B604FF07A517868FFF7DAFD03467B60A9
:10059C0001E0074B7B607B6818460837BD4680BD81
:1005AC0000080140B000002070010020AC000020C9
:1005BC00000080BF80B58AB000AF06237B84062381
:1005CC003B840023FB840023FB830023BB834FF677
:1005DC00FF73BB8400237B61A04B1B887B84A04BE7
:1005EC001B883B8400237B609C4BFB6001233B619D
:1005FC007B8C4FF6FF7293420BD0B3F5803F80F2A9
:10060C009681002B00F0F8804EF6EE62934250D0AB
:10061C008DE13B8C002B16D1904800F0A9F90346D4
:10062C00002B40F08E8107F114023B1D1146184639
:10063C0003F0F8F90346FB76FB7E002B00F081817A
:10064C00FB7E9BB285E13B8C4EF6EE62934225D14C
:10065C00824800F08DF90346002B0ED107F11402ED
:10066C003B1D1146184603F0DDF90346FB76FB7E75
:10067C00002B02D0FB7E9BB26BE14FF000024FF0DF
:10068C0000037749012003F085F80346FB76FB7ED7
:10069C00002B00F05681FB7E9BB25AE100F0FAF978
:1006AC000346FB76FB7E002B00F04B81FB7E9BB25E
:1006BC004FE13B8C002B63D10023FB8430E0694B72
:1006CC001B889AB2FB8C684931F813309A4201D1DD
:1006DC00FB8CBB84FA8CB7F924309A421DD0FB8C6E
:1006EC00614A32F813306149184600F067F9034645
:1006FC00BB83BB8B012B10D0FB8C5B4A32F81330C5
:10070C005A4A12881146184600F058FA0346FB83E1
:10071C00FB8B002B01D0FB8B1BE1FB8C0133FB848F
:10072C00FB8C1A2BCBD94FF000024FF000034B4936
:10073C00012003F02FF80346FB76FB7E002B02D042
:10074C00FB7E9BB205E100237B60454BFB600123E4
:10075C003B61434800F00CF90346002B40F0F3805A
:10076C0007F114023B1D1146184603F05BF90346D2
:10077C00FB76FB7E002B00F0E680FB7E9BB2E8E074
:10078C003B8C4FF6FF7293422BD100237B60344B92
:10079C00FB6001233B61324800F0EAF80346002B72
:1007AC000ED107F114023B1D1146184603F03AF91D
:1007BC000346FB76FB7E002B02D0FB7E9BB2C8E08F
:1007CC004FF000024FF000032449012002F0E2FF39
:1007DC000346FB76FB7E002B00F0B580FB7E9BB2C4
:1007EC00B7E000F057F90346FB76FB7E002B00F0D8
:1007FC00AA80FB7E9BB2ACE03B8C002B0AD100F0B4
:10080C0049F90346FB76FB7E002B00F09E80FB7EB5
:10081C009BB29EE03B8C4FF6FF7293421BD10023A0
:10082C007B600F4BFB6001233B610D4800F0A0F88F
:10083C000346002B40F0898007F114023B1D114642
:10084C00184603F0EFF80346FB76FB7E002B7CD0BA
:10085C00FB7E9BB27DE00023FB843AE000F80108AC
:10086C0000FC010806F801083C010020B200002041
:10087C003A4B1B889AB2FB8C394931F813309A42A7
:10088C0001D1FB8CBB84FA8CB7F924309A421DD071
:10089C00FB8C334A32F813303249184600F08EF88C
:1008AC000346BB83BB8B012B10D0FB8C2C4A32F83C
:1008BC0013302C4A12881146184600F07FF9034673
:1008CC00FB83FB8B002B01D0FB8B42E0FB8C0133B9
:1008DC00FB84FB8C1A2BCBD94FF000024FF000039A
:1008EC002149012002F056FF0346FB76FB7E002BCC
:1008FC0002D0FB7E9BB22CE000237B601B4BFB6089
:10090C0001233B61194800F033F80346002B1CD13E
:10091C0007F114023B1D1146184603F083F80346F9
:10092C00FB76FB7E002B10D0FB7E9BB211E000F01F
:10093C00B1F80346FB76FB7E002B08D0FB7E9BB206
:10094C0007E000BF04E000BF02E000BF00E000BF12
:10095C00002318462837BD4680BD00BF06FC0108A1
:10096C003C010020B200002000FC010800F8010846
:10097C0080B485B000AF78600123FB6045F255531D
:10098C007B810DE07B681B887B817B894FF6FF7236
:10099C00934202D00023FB6006E07B6804337B604B
:1009AC007B68054A9342EDD3FB689BB2184614371B
:1009BC00BD4680BC704700BF00FC010880B586B006
:1009CC0000AF03463960FB800023FB8145F2555391
:1009DC00BB810123FB821C4B3B611B4BBB6000208A
:1009EC0000F0A8F80346FB81FB89AB2B01D1AB23AC
:1009FC0025E0FB8903F500337E339B02BB60FB894A
:100A0C0001339A02114B13443B6112E03B691B8882
:100A1C00BB81BA89FB889A4208D13B69023B1B888F
:100A2C009AB23B681A800023FB8207E03B69043BC7
:100A3C003B61BB6802333A699A42E7D8FB8A184695
:100A4C001837BD4680BD00BF00F80108FEF701084D
:100A5C0080B584B000AF03460A46FB801346BB80CA
:100A6C000023FB81BA88FB881146184600F0A6F8D3
:100A7C000346FB81FB89802B07D1BA88FB88114682
:100A8C00184600F0FDF80346FB81FB891846103729
:100A9C00BD4680BD80B586B000AF0023FB7500233A
:100AAC003B6100233B60214BBB600123FB601F4873
:100ABC00FFF75EFF0346002B0DD107F110023B46FA
:100ACC001146184602F0AEFF0346FB75FB7D002B6A
:100ADC0001D0FB7D25E04FF000024FF000031349DD
:100AEC00012002F057FE0346FB75FB7D002B01D065
:100AFC00FB7D16E00E4BBB600D48FFF739FF03463C
:100B0C00002B0DD107F110023B461146184602F09E
:100B1C0089FF0346FB75FB7D002B01D0FB7D00E0BC
:100B2C00002318461837BD4680BD00BF00F80108E9
:100B3C0000FC010880B485B000AF0346FB710623AE
:100B4C00FB810623BB811B4B1B88FB811A4B1B882B
:100B5C00BB81FB79002B1BD0012B25D1BB89002B32
:100B6C0008D1FB894EF6EE62934201D100231CE0C2
:100B7C0001231AE0FB89002B08D1BB894EF6EE62EB
:100B8C00934201D1012310E000230EE0AB230CE0D3
:100B9C00FB89002B01D1002307E0BB89002B01D17D
:100BAC00012302E0AB2300E0002318461437BD46B6
:100BBC0080BC704700F8010800FC01082DE9B04327
:100BCC0086B000AF03460A46FB801346BB80002369
:100BDC00FB7400233B82274B7B61274BFB6001207E
:100BEC00FFF7A8FF03463B823B8AAB2B01D1AB231B
:100BFC003BE03B8A03F500337E339B027B613B8AEF
:100C0C0001339A021D4B1344FB6029E07B691B687E
:100C1C00B3F1FF3F21D1BB8800221C46154622466A
:100C2C002B467969012002F0B5FD0346FB74FB7C71
:100C3C00002B02D0FB7C9BB217E07B69991CFB88D4
:100C4C0000229846914642464B46012002F0A2FDF6
:100C5C000346FB74FB7C9BB207E07B6904337B612E
:100C6C007A69FB689A42D1D3802318461837BD465F
:100C7C00BDE8B08300F8010800FC0108FFF701088B
:100C8C0080B58CB000AF03460A46FB801346BB8090
:100C9C00002387F82530534BFB620023BB620023F3
:100CAC007B840023FB8400233B840023FB830023F1
:100CBC00BB610020FFF73EFF03467B847B8C012B3E
:100CCC0004D1484BFB62484BBB6209E07B8C002B88
:100CDC0004D1454BFB62434BBB6201E0AB237CE090
:100CEC004EF6EE624FF00003F96A012002F052FD5D
:100CFC00034687F8253097F82530002B03D097F85A
:100D0C0025309BB269E0BA88FB8811461846FFF77C
:100D1C0055FF03463B843B8C002B01D03B8C5CE0A5
:100D2C000023FB8427E0FB8C304A32F81330FA881E
:100D3C009A421DD0FB8C2D4A32F813302C491846A0
:100D4C00FFF73CFE0346FB83FB8B012B10D0FB8C87
:100D5C00264A32F81330264A128811461846FFF7F5
:100D6C002DFF03463B843B8C002B01D03B8C34E0A5
:100D7C00FB8C0133FB84FB8C1A2BD4D90023BB6076
:100D8C00BB6A3B6101237B6107F1180207F1080381
:100D9C001146184602F046FE034687F8253097F8B0
:100DAC002530002B03D097F825309BB215E04FF07F
:100DBC0000024FF00003F96A012002F0EBFC03463D
:100DCC0087F8253097F82530002B03D097F825307D
:100DDC009BB202E097F825309BB218463037BD46DF
:100DEC0080BD00BF00F8010800FC01083C01002098
:100DFC00B200002080B588B000AF07F110030022CC
:100E0C001A605A609A60DA60694B9B69684A43F0D1
:100E1C0010039361664B9B6903F01003FB60FB6846
:100E2C00634B9B69624A43F020039361604B9B695F
:100E3C0003F02003BB60BB685D4B9B695C4A43F0CD
:100E4C00040393615A4B9B6903F004037B607B683A
:100E5C00574B9B69564A43F008039361544B9B696B
:100E6C0003F008033B603B6801224FF400515148EA
:100E7C0003F01BF800224FF400414E4803F015F824
:100E8C00002249F610114C4803F00FF800224EF2E4
:100E9C00F8314A4803F009F84FF400533B61012341
:100EAC007B610023BB610223FB6107F11003194630
:100EBC00404802F05FFE4FF400433B6101237B612D
:100ECC000223BB610223FB6107F110031946394869
:100EDC0002F050FE01233B61394B7B610123BB6166
:100EEC0007F110031946344802F044FE0E233B610F
:100EFC0000237B610123BB6107F1100319462E48C7
:100F0C0002F038FE49F610033B6101237B6102239A
:100F1C00BB610323FB6107F110031946264802F05D
:100F2C0029FE40F603433B6100237B610123BB6137
:100F3C0007F110031946214802F01CFE4FF46043E0
:100F4C003B6101237B610223BB610223FB6107F13F
:100F5C0010031946194802F00DFE4FF480733B61E3
:100F6C0001237B610223BB610223FB6107F11003A8
:100F7C001946114802F0FEFD4FF47E733B610123CC
:100F8C007B610223BB610323FB6107F1100319464C
:100F9C000A4802F0EFFD00220021062002F0C3FBFC
:100FAC00062002F0DCFB00BF2037BD4680BD00BF31
:100FBC00001002400010014000080140000C0140EC
:100FCC000000311080B500AF02F0A8FA02460E4BBB
:100FDC001B68D31A052B12D908210C4802F04EFFBE
:100FEC000346002B03D10A4B00221A7002E0084B77
:100FFC0001221A7002F092FA0346034A1360044B62
:10100C001B78DBB2184680BDB400002000080140FC
:10101C00B800002080B500AF02F080FA02460E4BFB
:10102C001B68D31A052B12D902210C4802F026FF9B
:10103C000346002B03D10A4B00221A7002E0084B26
:10104C0001221A7002F06AFA0346034A1360044B39
:10105C001B78DBB2184680BDBC00002000080140A4
:10106C00C000002080B500AF00F032F80346002B22
:10107C0004D0134804F044FE01231EE000F060F895
:10108C000346002B04D00F4804F03AFE022314E070
:10109C0000F090F80346002B04D00B4804F030FE0F
:1010AC0003230AE000F0C0F80346002B04D00748E5
:1010BC0004F026FE042300E00023184680BD00BF88
:1010CC00E46F0008F86F00080C700008207000082E
:1010DC0080B500AF02F022FA0246164B1B68D31AF9
:1010EC00012B23D90221144802F0C8FE0346002B21
:1010FC0014D1124B1B78DBB2012B12D102210E48FA
:10110C0002F0BCFE0346002B04D10C4B00221A70DB
:10111C0001230CE0094B01221A7002E0074B01225B
:10112C001A7002F0FBF90346024A136000231846BA
:10113C0080BD00BFC4000020000C0140C80000208E
:10114C0080B500AF02F0EAF90246174B1B68D31AC0
:10115C00012B25D94FF48061144802F08FFE034611
:10116C00002B15D1124B1B78DBB2012B13D14FF492
:10117C0080610E4802F082FE0346002B04D10C4B1A
:10118C0000221A7001230CE0094B01221A7002E0B4
:10119C00074B01221A7002F0C1F90346024A136090
:1011AC000023184680BD00BFCC000020000C01407D
:1011BC00D000002080B500AF02F0B0F90246174B0A
:1011CC001B68D31A012B25D94FF40061144802F087
:1011DC0055FE0346002B15D1124B1B78DBB2012BAD
:1011EC0013D14FF400610E4802F048FE0346002B69
:1011FC0004D10C4B00221A7001230CE0094B012284
:10120C001A7002E0074B01221A7002F087F90346AC
:10121C00024A13600023184680BD00BFD400002092
:10122C00000C0140D800002080B500AF02F076F928
:10123C000246164B1B68D31A012B23D901211448E3
:10124C0002F01CFE0346002B14D1124B1B78DBB2B0
:10125C00012B12D101210E4802F010FE0346002B87
:10126C0004D10C4B00221A7001230CE0094B012213
:10127C001A7002E0074B01221A7002F04FF9034674
:10128C00024A13600023184680BD00BFDC0000201A
:10129C00000C0140E000002080B483B000AF034696
:1012AC00FB71FB79002B03D0054B00221A7002E076
:1012BC00034B10221A7000BF0C37BD4680BC704720
:1012CC00E100002080B582B000AF0346FB710B46F5
:1012DC00BB7113467B71BB79012B06D9334B1B7841
:1012EC0043F00803DAB2314B1A70314ABB791370F0
:1012FC00304B00221A707B79002B09D0BB79012B63
:10130C0006D12A4B1B7843F00403DAB2274B1A7030
:10131C004FF47A7002F00CF900224FF40061264869
:10132C0002F0C3FD00224FF48051234802F0BDFDB2
:10133C001E4B1B7843F02003DBB2184600F01EF95D
:10134C000A2002F0F5F8194B1B7843F02003DBB2AE
:10135C00184600F013F9012002F0EAF8134B1B7841
:10136C0043F02003DBB2184600F008F90F4B1B7852
:10137C0043F02003DBB2184600F000F90F4B0422B7
:10138C001A70012000F028F800F00EF90C4B022224
:10139C001A700B4B1B7843F00403DBB2184600F0B9
:1013AC00EDF800BF0837BD4680BD00BFE10000204E
:1013BC00E4000020E500002000080140E2000020CD
:1013CC00E300002080B500AF022000F0D7F8022027
:1013DC0002F0AEF800BF80BD80B582B000AF03460E
:1013EC00FB71FB79002B0FD0114B1B7843F00403DE
:1013FC00DAB20F4B1A700E4B1B7843F00803DBB2BA
:10140C00184600F0BBF80EE0094B1B7823F00403E0
:10141C00DAB2074B1A70064B1B7843F00803DBB2A9
:10142C00184600F0ABF800BF0837BD4680BD00BFC2
:10143C00E200002080B584B000AF00224FF4805150
:10144C001A4802F032FD0023FB6002E0FB68013316
:10145C00FB60FB6841F287329342F7DD01224FF4C7
:10146C008051124802F021FD0023BB6002E0BB68F2
:10147C000133BB60BB6841F287329342F7DD002237
:10148C004FF48051094802F010FD00237B6002E00C
:10149C007B6801337B607B6841F287329342F7DDD6
:1014AC0000BF00BF1037BD4680BD00BF0008014023
:1014BC0080B582B000AF0346FB71FB79DB09DBB270
:1014CC001A464FF400712B4802F0EFFCFB799B0994
:1014DC00DBB203F00103DBB21A464FF480712548EE
:1014EC0002F0E3FCFB795B09DBB203F00103DBB236
:1014FC001A4680211F4802F0D8FCFB791B09DBB28D
:10150C0003F00103DBB21A4640211A4802F0CDFC6D
:10151C00FB79DB08DBB203F00103DBB21A462021B6
:10152C00144802F0C2FCFB799B08DBB203F0010308
:10153C00DBB21A4610210F4802F0B7FCFB795B08AE
:10154C00DBB203F00103DBB21A460821094802F0B2
:10155C00ACFCFB7903F00103DBB21A464FF40041FB
:10156C00054802F0A2FCFFF765FF00BF0837BD4637
:10157C0080BD00BF000C01400008014080B582B066
:10158C0000AF0346FB7100224FF40061054802F0E6
:10159C008CFCFB791846FFF78BFF00BF0837BD4664
:1015AC0080BD00BF0008014080B500AF0120FFF7EF
:1015BC00E5FF022001F0BCFF00BF80BD80B582B00A
:1015CC0000AF0346FB7101224FF40061054802F0A5
:1015DC006CFCFB791846FFF76BFF00BF0837BD4664
:1015EC0080BD00BF0008014080B582B000AF03464B
:1015FC00FB71FB79002B0FD0114B1B7843F00203CE
:10160C00DAB20F4B1A700E4B1B7843F00803DBB2A7
:10161C001846FFF7B3FF0EE0094B1B7823F00203CB
:10162C00DAB2074B1A70064B1B7843F00803DBB297
:10163C001846FFF7A3FF00BF0837BD4680BD00BFAB
:10164C00E200002080B582B000AF78607B681B7828
:10165C001846FFF7B3FF7B6801337B607B681B7810
:10166C00002BF3D100BF00BF0837BD4680BD000082
:10167C0090B587B000AF03460A46FB711346BB71A9
:10168C00124B07F108040FCB84E80F0097F90630D2
:10169C000F4A1278934204DD0D4B1B78013BDBB2F1
:1016AC00BB7197F906309B0018333B4453F8103C40
:1016BC00DAB2FB791344DBB263F07F03DBB218467A
:1016CC00FFF75CFF00BF1C37BD4690BD30700008B3
:1016DC00E400002080B500AFFFF766FF0021052075
:1016EC00FFF7C6FF0D48FFF7ADFF01210120FFF703
:1016FC00BFFF0B48FFF7A6FF02214FF0FF30FFF7AB
:10170C00B7FF0848FFF79EFF03210020FFF7B0FF4B
:10171C000548FFF797FF00BF80BD00BF4070000871
:10172C0048700008587000086470000880B500AF5D
:10173C00184B1B78082B2AD801A252F823F000BFB3
:10174C0071170008771700087D1700087D1700082F
:10175C007D17000883170008891700088F170008E9
:10176C009517000800F018F811E000F0BFF90EE032
:10177C0000F0EEF80BE000F0C1F808E000F040F8E3
:10178C0005E000F091F802E000F064F800BF00BF43
:10179C0080BD00BF6B01002080B500AF134B1A78E1
:1017AC00134B1B789A4206D0FFF7FEFE104B1A78AB
:1017BC000E4B1A7001E0FFF705FE00210520FFF724
:1017CC0057FF0C48FFF73EFF02216FF00200FFF7B6
:1017DC004FFF0948FFF736FF03216FF00200FFF7B8
:1017EC0047FF0648FFF72EFF00BF80BD6C010020AD
:1017FC006B010020707000087C7000088C70000871
:10180C0080B500AF0F4B1A780F4B1B789A4206D05D
:10181C00FFF7CAFE0C4B1A780A4B1A7001E0FFF75F
:10182C00D1FD01210620FFF723FF0848FFF70AFF2F
:10183C0002210620FFF71CFF0548FFF703FF00BF3E
:10184C0080BD00BF6C0100206B0100209C70000863
:10185C00A470000880B500AF0F4B1A780F4B1B78A3
:10186C009A4206D0FFF7A0FE0C4B1A780A4B1A705E
:10187C0001E0FFF7A7FD01210520FFF7F9FE08485D
:10188C00FFF7E0FE02210520FFF7F2FE0548FFF707
:10189C00D9FE00BF80BD00BF6C0100206B01002091
:1018AC00AC700008B470000880B500AF0F4B1A780C
:1018BC000F4B1B789A4206D0FFF776FE0C4B1A782A
:1018CC000A4B1A7001E0FFF77DFD00210520FFF7A0
:1018DC00CFFE0848FFF7B6FE02210520FFF7C8FE31
:1018EC000548FFF7AFFE00BF80BD00BF6C010020B4
:1018FC006B010020BC700008B470000880B500AF0C
:10190C000F4B1A780F4B1B789A4206D0FFF74CFE00
:10191C000C4B1A780A4B1A7001E0FFF753FD0021AB
:10192C000420FFF7A5FE0848FFF78CFE02210020DB
:10193C00FFF79EFE0548FFF785FE00BF80BD00BF88
:10194C006C0100206B010020C4700008CC700008F2
:10195C0080B500AF554B1A78554B1B789A4206D080
:10196C00FFF722FE524B1A78504B1A7001E0FFF72A
:10197C0029FD504B5A88504BA3FB021359090B46B7
:10198C001B015B1A9B00D31A9AB24C4B1A80494B21
:10199C005B88494AA2FB03235B099AB2484B1A8025
:1019AC00474B1B881A46454B1B884649464804F052
:1019BC00AFF900210020FFF75BFE4348FFF742FE22
:1019CC003C4B9A883C4BA3FB021359090B461B0159
:1019DC005B1A9B00D31A9AB2384B1A80354B9B88F2
:1019EC00354AA2FB03235B099AB2354B1A80344B60
:1019FC001B881A46314B1B883449334804F088F94C
:101A0C0000210920FFF734FE2F48FFF71BFE294B5E
:101A1C005B78012B04D12E492B4804F079F910E0A6
:101A2C00244B5B78022B04D12A49274804F070F927
:101A3C0007E0204B5B78032B03D12749224804F0A5
:101A4C0067F901210220FFF713FE1F48FFF7FAFD8B
:101A5C00184B9B791A4621491B4804F059F902216D
:101A6C004FF0FF30FFF704FE1748FFF7EBFD1C4B60
:101A7C001B68B3F1FF3F03D0194B1B68002B04D13B
:101A8C001849114804F044F906E0154B1B681A4636
:101A9C0015490D4804F03CF903214FF0FF30FFF7D6
:101AAC00E7FD0948FFF7CEFD00BF80BD6C010020AB
:101ABC006B0100205401002089888888380100209F
:101ACC003A010020D8700008E8000020E4700008FB
:101ADC00F0700008FC7000080C7100081871000808
:101AEC0018000020287100083871000880B500AF7C
:101AFC00134B1A78134B1B789A4206D0FFF754FD00
:101B0C00104B1A780E4B1A7001E0FFF75BFC0021AA
:101B1C000520FFF7ADFD0C48FFF794FD02216FF097
:101B2C000200FFF7A5FD0948FFF78CFD03216FF0BC
:101B3C000200FFF79DFD0648FFF784FD00BF80BD46
:101B4C006C0100206B010020487100087C700008BB
:101B5C005871000880B483B000AF0346FB7197F94D
:101B6C000730002B0BDBFB7903F01F02064997F9BA
:101B7C0007305B09012000FA02F241F8232000BF74
:101B8C000C37BD4680BC704700E100E080B483B0E8
:101B9C0000AF0346FB7197F90730002B12DBFB7982
:101BAC0003F01F020A4997F907305B09012000FA7C
:101BBC0002F2203341F82320BFF34F8F00BFBFF355
:101BCC006F8F00BF00BF0C37BD4680BC704700BF95
:101BDC0000E100E080B582B000AF7860391D0A23C7
:101BEC000122044803F069FE7B6818460837BD469D
:101BFC0080BD00BF1402002080B582B000AF9D48AC
:101C0C0004F07EF80023FB719B4B01221A709B4B56
:101C1C0001221A70994B1B78002B2CD0FFF786FDF4
:101C2C00FB79002B03D10020FFF7DEFC20E0FB79D1
:101C3C00012B07D100210320FFF71AFD0120FFF72C
:101C4C00D3FC15E0FB79022B07D100210C20FFF708
:101C5C000FFD0120FFF7C8FC0AE0FB79032B07D12D
:101C6C0002214FF0FF30FFF703FD0120FFF7BCFC12
:101C7C00824B00221A70804B1B78012B77D1FFF717
:101C8C00F1F903461A467E4B1A707D4B1B78042BD8
:101C9C0069D801A252F823F0731D0008B91C000882
:101CAC00F71C0008351D000831200008754B012277
:101CBC005A70754B1A88734B5A80734B5A88714BF8
:101CCC009A80714B9B88DAB26E4B9A716A4B0222E6
:101CDC001A700123FB71694B01221A706B4B0122A4
:101CEC001A706B4804F00CF83DE0664B02225A70F7
:101CFC00654BDA88634B5A80634B1A89614B9A8027
:101D0C00614B5B89DAB25F4B9A715B4B03221A70A1
:101D1C000123FB71594B01221A705C4B01221A7082
:101D2C005C4803F0EDFF1EE0564B03225A70564BF5
:101D3C009A89544B5A80544BDA89524B9A80524BA5
:101D4C001B8ADAB24F4B9A714B4B04221A70012347
:101D5C00FB714A4B01221A704C4B01221A704E48EF
:101D6C0003F0CEFF00BF464B00221A7052E7FFF77C
:101D7C0079F903461A46424B1A70414B1B78042BD7
:101D8C0000F24C8101A252F823F000BF2920000878
:101D9C00AD1D0008191E0008391E0008D11E0008D0
:101DAC00FB79012B0DD1374B5B883C2B09D9334B7D
:101DBC0001221A70334B5B883C3B9AB2314B5A80F0
:101DCC0023E0FB79022B0DD12E4B9B883C2B09D9A0
:101DDC002A4B01221A702B4B9B883C3B9AB2294B05
:101DEC009A8012E0FB79032B40F01381254B9B79F1
:101DFC001E2B40F20E81214B01221A70214B9B7934
:101E0C00013BDAB21F4B9A7103E102E1FB79032B20
:101E1C0005D11A4B01221A700123FB71FEE0174BFE
:101E2C0001221A70FB790133FB71F7E0FB79012B6E
:101E3C000ED1144B5B88B3F5616F09D2114B5B88E3
:101E4C003C339AB20F4B5A800C4B01221A7038E07B
:101E5C00FB79022B22D10B4B9B88B3F5616F1DD202
:101E6C00084B9B883C339AB2064B9A80034B012259
:101E7C001A7026E0607100086B01002062010020DE
:101E8C006A010020540100200000002063010020A2
:101E9C00707100087C71000888710008FB79032BB5
:101EAC0040F0B980614B9B79592B00F2B4805F4BA9
:101EBC009B790133DAB25D4B9A715D4B01221A703A
:101ECC00A9E0A8E05B4B01221A700023FB71584B70
:101EDC0001221A70554B5B78012B30D1534B5A8829
:101EEC00554B1A80514B9A88534B5A804F4B9B79C8
:101EFC009AB2514B9A80514B00221A801AE04F4BE8
:101F0C001B881A464E4B33F812304C4A1288114635
:101F1C00494A32F8112011461846FEF799FD03463E
:101F2C00002B01D000F0FCFF444B1B8801339AB20C
:101F3C00424B1A80414B1B88022BE0D96DE03B4B86
:101F4C005B78022B30D1394B5A883B4BDA80374BBC
:101F5C009A88394B1A81354B9B799AB2364B5A81F8
:101F6C00364B03221A801AE0344B1B881A46344B2A
:101F7C0033F81230314A128811462F4A32F81120A8
:101F8C0011461846FEF764FD0346002B01D000F005
:101F9C00C7FF2A4B1B8801339AB2284B1A80274B58
:101FAC001B88052BE0D938E0204B5B78032B34D110
:101FBC001E4B5A88204B9A811C4B9A881E4BDA81F7
:101FCC001A4B9B799AB21C4B1A821C4B06221A8014
:101FDC001AE01A4B1B881A46194B33F81230174A61
:101FEC0012881146144A32F8112011461846FEF791
:101FFC002FFD0346002B01D000F092FF0F4B1B88E6
:10200C0001339AB20D4B1A800C4B1B88082BE0D96C
:10201C0003E000BF02E000BF00E000BF094B00225C
:10202C001A70F7E500BF0837BD4680BD540100208B
:10203C00620100206B0100200000002050010020F4
:10204C003C0100206A01002080B584B000AF01F093
:10205C000DFA00F03DFEFEF7CDFE01F06BF901F03C
:10206C00F5F800F063FF01F005FCFEF7A3FA034658
:10207C00002B01D000F054FFA74B01221A800DE079
:10208C00A54B1B88013BA44A1188A44A22F81310C3
:10209C00A14B1B8801339AB29F4B1A809E4B1B8815
:1020AC000A2BEDD90023BB809C4B5B8A3A1D114651
:1020BC001846FEF783FC0346002B01D00123BB809E
:1020CC00BB88012B25D1964803F01AFE924B0022B7
:1020DC001A801AE0904B1B881A46904B33F812303A
:1020EC008D4A128811468F4A32F811201146184633
:1020FC00FEF7AEFC0346002B01D000F011FF864B1F
:10210C001B8801339AB2844B1A80834B1B88092B92
:10211C00E0D9814B00221A801CE07F4B1B881A46A9
:10212C007E4B33F812207C4B1B885B007D490B44A3
:10213C0019461046FEF742FC0346002B04D07A48A1
:10214C0003F0DEFD00F0ECFE734B1B8801339AB2FA
:10215C00714B1A80704B1B88092BDED96E4B0022F9
:10216C001A8016E06C4B1B881A466C4B33F81230F5
:10217C001946694B1B881A466A4B33F812301A46BB
:10218C006A4803F037FD644B1B8801339AB2624BEB
:10219C001A80614B1B88092BE4D90020FFF77CF8CF
:1021AC00002204211020FFF78DF8FFF793FA01F0BD
:1021BC00B5F9B86001F0B2F9F86016E001215C489D
:1021CC0001F05CFE0346FB71FB79002B0AD101F098
:1021DC00A5F90246FB68D31AB3F5FA6F05D9FFF7D8
:1021EC000BFD02E001F09AF9F86001F097F9024654
:1021FC00BB68D31A40F6B7329342DFD9464B002264
:10220C001A801CE0444B1B881A46444B33F81220AE
:10221C00414B1B885B0043490B4419461046FEF7A3
:10222C00CDFB0346002B04D03F4803F069FD00F0C2
:10223C0077FE394B1B8801339AB2374B1A80364BD9
:10224C001B88092BDED93B4B00221A70394B00221C
:10225C005A700121384801F011FE0346012B06D1BA
:10226C00364B01221A70364B06221A7002E0344BA0
:10227C0000221A70FFF798F9FFF758FA314B1B78C8
:10228C00002B04D0FFF752FA2E4B00221A702E4B63
:10229C001B78002B06D02D4802F03CFF2A4B002265
:1022AC001A700DE02A4B1B78002B09D0214B1B78A0
:1022BC00012B05D1254802F0DBFE254B00221A70BC
:1022CC001E4B1B78002B40F02382224B1B78002BDB
:1022DC0040F01E82204B1B78002B40F01982FEF739
:1022EC00C1FE03461A461D4B1A70124B1B78012B6C
:1022FC0040F00481194B1B78042B00F2FB8001A2E7
:10230C0052F823F0012500086D230008CB230008A8
:10231C0027240008CF240008500100203C01002095
:10232C009471000800000020A4710008B871000826
:10233C00000C014054010020000801405E01002007
:10234C006B0100206201002060010020CC01002004
:10235C006101002065010020640100206A01002059
:10236C008A4B01221A708A4B1B7A002B10D1884B96
:10237C005B883C2B0CD9864B5B883C3B9AB2844BDC
:10238C005A80834B5B881946824803F033FCAEE0DD
:10239C007F4B1B7A012B40F0AA807D4B9B883C2BFA
:1023AC0040F2A5807A4B9B883C3B9AB2784B9A8042
:1023BC00774B9B881946784803F01CFC97E0734BCD
:1023CC0001221A70724B00221A70714B00225A7043
:1023DC00724B00221A70724B01221A7000224FF4B9
:1023EC000041704801F061FD00224FF480716E488D
:1023FC0001F05BFD00224FF400516C4801F055FDDB
:10240C0000224FF48041694801F04FFD00224FF447
:10241C000041664801F049FD6CE05C4B01221A70EA
:10242C005B4B1B7A002B36D1594B5B78012B0BD1B4
:10243C00574B5B88B3F5E16F26D2554B5B883C3329
:10244C009AB2534B5A801FE0514B5B78022B0BD145
:10245C004F4B5B88B3F5166F16D24D4B5B883C33F4
:10246C009AB24B4B5A800FE0494B5B78032B0BD144
:10247C00474B5B8840F6B732934205D8444B5B8898
:10248C003C339AB2424B5A80414B5B8819464148C7
:10249C0003F0B0FB2DE03E4B1B7A012B29D13C4BBA
:1024AC009B88B3F5617F05D2394B9B883C339AB23C
:1024BC00374B9A80364B9B881946374803F09AFB6A
:1024CC0017E0324B01221A70314B00225A80304BEC
:1024DC0001221A722E4B5B8819462E4803F08AFB98
:1024EC002B4B9B8819462C4803F084FB02E000BF61
:1024FC0000E000BF2E4B00221A7009E1244B1B7820
:10250C00002B40F0CD802A4B1B78032B00F2C480AB
:10251C0001A252F823F000BFA526000835250008BB
:10252C00DD25000841260008194B01221A70184BB2
:10253C0001225A701F4B1A88154B5A801D4B5A8812
:10254C00134B9A801B4B9B88DAB2114B9A71104B30
:10255C001E22DA710E4B00221A72174B1E221A70B1
:10256C00164B00221A70164B00221A70154B0122C2
:10257C001A700A4B02221A70044B01221A70124B69
:10258C0001221A70114803F0BBFB85E062010020A8
:10259C0054010020C8710008D87100086B0100209C
:1025AC00600100200010014000080140000C0140B7
:1025BC006A010020000000201500002066010020A8
:1025CC006701002061010020630100207071000888
:1025DC00944B01221A70934B02225A70924BDA8858
:1025EC00904B5A80904B1A898E4B9A808E4B5B89FC
:1025FC00DAB28C4B9A718B4B1E22DA71894B00220A
:10260C001A728A4B1E221A70894B00221A70894B3F
:10261C0000221A70884B01221A70884B03221A7000
:10262C00874B01221A70874B01221A70864803F0DF
:10263C0067FB31E07B4B01221A707A4B03225A70F4
:10264C00794B9A89774B5A80774BDA89754B9A80FC
:10265C00754B1B8ADAB2734B9A71724B1E22DA716C
:10266C00704B00221A72714B1E221A70704B002292
:10267C001A70704B00221A706F4B01221A706F4B3C
:10268C0004221A706E4B01221A706E4B01221A70C2
:10269C006E4803F035FB00BF6D4B00221A7037E01B
:1026AC00604B1B78022B33D1694B1B78022B2CD13E
:1026BC00634B01221A705B4B00221A70594B00229B
:1026CC005A705E4B00221A70624B01221A70002263
:1026DC004FF40041604801F0E8FB00224FF4807198
:1026EC005E4801F0E2FB00224FF400515C4801F01F
:1026FC00DCFB00224FF48041594801F0D6FB00224C
:10270C004FF40041564801F0D0FB514B00221A7097
:10271C00544B1B78002B00F0B98001214F4801F07D
:10272C00ADFB03461A46504B1A704F4B1B78DBB26D
:10273C00012B3DD13B4B1B78022B0BD1454B01227E
:10274C001A70384B0022DA71364B00221A70354B56
:10275C0000225A70454B01221A703E4B01221A700E
:10276C00364B06221A70364B01221A702D4B03225F
:10277C001A7000224FF40041374801F096FB0022FA
:10278C004FF48071354801F090FB00224FF400515A
:10279C00334801F08AFB00224FF48041304801F0AD
:1027AC0084FB00224FF400412D4801F07EFB6AE0CF
:1027BC002F4B1B78002B5DD11A4B5B78032B5CD80D
:1027CC0001A252F823F000BFE5270008F327000808
:1027DC00072800081B280008184B00221A70114B00
:1027EC0000221A7049E0154B02221A700D4B01227F
:1027FC001A70114B01221A703FE0104B03221A7011
:10280C00084B01221A700C4B01221A7035E00B4B4D
:10281C0004221A70034B01221A70074B01221A7002
:10282C002BE000BF54010020000000201500002008
:10283C006601002067010020610100206B0100206F
:10284C0062010020630100207C710008887100087F
:10285C006A010020600100200010014000080140C6
:10286C00000C01405F0100206D0100205E01002082
:10287C00640100209B4B07221A709B4B01221A709B
:10288C009A4B00221A709A4B00221A70974B1B78A5
:10289C00002B79D1974B1B78002B75D1964B1B785D
:1028AC00022B71D0FEF78EFB0346002B2DD0934BE1
:1028BC0001221A70924B01221A708A4B08221A704C
:1028CC00894B01221A708C4B03221A7000224FF490
:1028DC0000418C4801F0E9FA00224FF480718A48DB
:1028EC0001F0E3FA00224FF40051884801F0DDFAC0
:1028FC0000224FF48041854801F0D7FA00224FF4B2
:10290C000041824801F0D1FA3EE07C4B00221A7063
:10291C00794B1B78032B37D1774B5B78032B30D853
:10292C0001A252F823F000BF4529000853290008E2
:10293C00672900087B2900086A4B00221A706E4B2D
:10294C0000221A701DE0674B02221A706A4B01229A
:10295C001A706F4B01221A7013E0624B03221A702B
:10296C00654B01221A706A4B01221A7009E05D4B0B
:10297C0004221A70604B01221A70654B01221A70E6
:10298C0000BF594B01221A70584B1B78002B40D1B9
:10299C005A4B1B78002B3CD1564B1B78002B38D153
:1029AC00554B1B78012B5AD15A4B1B78002B56D107
:1029BC00504B01221A704C4B01221A70504B0122C1
:1029CC001A704D4B03221A704B4B00225A70454B18
:1029DC0007221A7000224FF400414A4801F065FAB0
:1029EC0000224FF48071484801F05FFA00224FF446
:1029FC000051464801F059FA00224FF480414348F7
:102A0C0001F053FA00224FF40041404801F04DFA16
:102A1C0025E0364B1B78002B22D1384B1B78002B32
:102A2C001ED1344B1B78002B1AD0FEF71BFB034630
:102A3C001A46394B1A70384B1B78022B10D12E4B7F
:102A4C0000221A70274B00221A70324B1E221A7069
:102A5C00254B01221A70274B00221A7000E000BF90
:102A6C00224B1B78002B7FF409AC244B1B78002BDA
:102A7C007FF404AC1F4B1B78002B7FF4FFAB274B70
:102A8C001B78002B3FF4FAAB1B4B1B78012B40F04F
:102A9C00A98001224FF480711B4801F006FA204BEB
:102AAC001B78002B0CD000224FF40051174801F07A
:102ABC00FCF900224FF48041144801F0F6F943E090
:102ACC00184B1B78002B2FD001224FF400510F48CC
:102ADC0001F0EBF900224FF480410C4801F0E5F9CC
:102AEC0032E000BF6B010020620100205E0100207B
:102AFC005F010020640100205401002065010020CA
:102B0C00600100200010014000080140000C014051
:102B1C0061010020140000206A01002063010020E4
:102B2C0067010020150000205F4B1B78002B0BD099
:102B3C0000224FF400515D4801F0B7F901224FF427
:102B4C0080415A4801F0B1F9FDF7E2FC0346184602
:102B5C00FDF7B8FC0346564A1360564B1B7A002B04
:102B6C0039D1FEF757FA0346002B34D1504B1B6872
:102B7C00B3F1FF3F03D04E4B1B68002B06D1002254
:102B8C004FF40041494801F090F923E0494B9B79FF
:102B9C009A1C474B1B689A4203DB454B1B68002B66
:102BAC0006DC00224FF40041404801F07EF911E0B0
:102BBC00404B9B795A1F3E4B1B689A426DDD3C4B38
:102BCC001B68002B69DD01224FF40041374801F0EE
:102BDC006CF962E061E000224FF40041334801F0EF
:102BEC0064F95BE0334B1B78022B37D1314BDB792B
:102BFC00002B15D100224FF400412F4801F055F95C
:102C0C002E4B00221A702E4B01221A702D4B0122D2
:102C1C001A70284B00221A70264B00225A7004E0BE
:102C2C004FF40041244801F058F900224FF4807110
:102C3C00254801F03AF900224FF400511B4801F0ED
:102C4C0034F900224FF48041184801F02EF900228B
:102C5C004FF40041154801F028F91FE000224FF411
:102C6C000041154801F021F900224FF480711648FB
:102C7C0001F01BF900224FF400510C4801F015F93A
:102C8C0000224FF48041094801F00FF900224FF463
:102C9C000041064801F009F900E000BF0B4B00228F
:102CAC001A70FFF7EBBA00BF66010020000C014060
:102CBC001800002054010020001001406B0100207E
:102CCC006201002060010020000801406301002027
:102CDC0080B590B000AF07F11803282200211846E8
:102CEC0002F080FF3B1D00221A605A609A60DA6085
:102CFC001A610123BB614FF48033FB6100233B62FB
:102D0C000123BB6202237B634FF48033BB634FF41C
:102D1C00E013FB6307F11803184601F00FF90346A3
:102D2C00002B01D000F0FCF80F237B600223BB606A
:102D3C000023FB604FF480633B6100237B613B1DF0
:102D4C000221184601F07CFB0346002B01D000F059
:102D5C00E7F800BF4037BD4680BD000080B582B0AB
:102D6C0000AF0346FB80FB88012B0BD10620FEF73E
:102D7C000DFF064B01221A70054B01221A7006201A
:102D8C00FEF7E8FE00BF0837BD4680BD5E0100209F
:102D9C005F01002080B582B000AF7860544B5B8837
:102DAC00002B06D0524B5B88013B9AB2504B5A8099
:102DBC0014E04F4B9B88002B06D04D4B9B88013B5E
:102DCC009AB24B4B9A8009E0494B1B78022B05D1E8
:102DDC00474BDB79013BDAB2454BDA71444B5B88EC
:102DEC00002B07D1424B1B7A002B03D1404B012205
:102DFC001A7210E03E4B9B88002B0CD13C4B1B7A7B
:102E0C00012B08D13A4B02221A70394B00225A700E
:102E1C00384B05221A70384B1B78002B06D0364BDA
:102E2C001B78013BDAB2344B1A703CE0334B1B7805
:102E3C00002B09D0314B1B78013BDAB22F4B1A70A7
:102E4C002F4B01221A702EE02E4B1B78002B09D031
:102E5C002C4B1B78013BDAB22A4B1A70284B002200
:102E6C001A7020E00421284801F008F803461A469D
:102E7C00264B1A70254B1B78002B06D01E4B0022BC
:102E8C001A701E4B1E221A700DE01B4B03221A7077
:102E9C001B4B1B78002B03D01A4B1E221A7002E01E
:102EAC00164B1E221A70FEF7B5F80346002B0ED0F7
:102EBC000F4B1B7A002B0AD1154B1B78002B0CD017
:102ECC00134B1B78013BDAB2114B1A7005E0104B17
:102EDC001E221A700F4B00221A700F4B01221A700F
:102EEC000E4B01221A7000BF0837BD4680BD00BFD3
:102EFC00540100206B010020670100201500002008
:102F0C0069010020660100200008014068010020D2
:102F1C0014000020640100206301002062010020E5
:102F2C0080B400AF72B600BFFEE7000080B500AF02
:102F3C00174B184A1A60164B4FF482725A60144B96
:102F4C0000229A60124B0022DA60114B00221A61A7
:102F5C000F4B00225A610E4B4FF400729A610C4BCE
:102F6C003022DA610A4B00221A62094B00225A62A3
:102F7C00074B00229A62064B0A22DA62044801F0DF
:102F8C00F7FB0346002B01D0FFF7CAFF00BF80BD43
:102F9C00700100200030014080B588B000AF78602F
:102FAC0007F1100300221A605A609A60DA607B689D
:102FBC001B681B4A93422FD11A4B9B69194A43F445
:102FCC0080539361174B9B6903F48053FB60FB6840
:102FDC00144B9B69134A43F004039361114B9B6997
:102FEC0003F00403BB60BB68A0233B6102237B613D
:102FFC000323FB6107F1100319460B4800F0BAFDDF
:10300C0040233B6100237B610023BB6107F110036C
:10301C001946054800F0AEFD00BF2037BD4680BD07
:10302C0000300140001002400008014080B485B01F
:10303C0000AF154B9B69144A43F001039361124B8B
:10304C009B6903F00103BB60BB680F4BDB690E4A45
:10305C0043F08053D3610C4BDB6903F080537B60EE
:10306C007B680A4B5B68FB60FB6823F0E063FB60EA
:10307C00FB6843F00073FB60044AFB68536000BFBD
:10308C001437BD4680BC7047001002400000014060
:10309C0080B400AFFEE780B400AFFEE780B400AFB1
:1030AC00FEE780B400AFFEE780B400AFFEE780B46B
:1030BC0000AF00BFBD4680BC704780B400AF00BFFE
:1030CC00BD4680BC704780B400AF00BFBD4680BC1D
:1030DC00704780B500AF00F00FFA00BF80BD80B51F
:1030EC0000AF012000F012FF00BF80BD80B500AF23
:1030FC00024802F03DF800BF80BD00BFCC010020AB
:10310C0080B586B000AFF860B9607A6000237B614F
:10311C000AE0AFF300800146BB685A1CBA60CAB221
:10312C001A707B6901337B617A697B689A42F0DBA8
:10313C007B6818461837BD4680BD80B586B000AF99
:10314C00F860B9607A6000237B6109E0BB685A1CA7
:10315C00BA601B781846FEF73DFD7B6901337B6135
:10316C007A697B689A42F1DB7B6818461837BD4652
:10317C0080BD80B483B000AF78604FF0FF33184649
:10318C000C37BD4680BC704780B483B000AF78600C
:10319C0039603B684FF400525A60002318460C37D4
:1031AC00BD4680BC704780B483B000AF786001230B
:1031BC0018460C37BD4680BC704780B485B000AF54
:1031CC00F860B9607A60002318461437BD4680BC9D
:1031DC007047000080B586B000AF7860144A154B7C
:1031EC00D31A7B617B693B61134B1B68002B02D1AB
:1031FC00114B124A1A60104B1A687B6813443A69D7
:10320C009A4207D202F0C4FC03460C221A604FF01B
:10321C00FF3309E0084B1B68FB60074B1A687B689F
:10322C001344054A1360FB6818461837BD4680BD29
:10323C000050002000040000C80100209002002073
:10324C0080B400AF00BFBD4680BC704780B586B06F
:10325C0000AF07F1080300221A605A609A60DA6026
:10326C003B4600221A605A601D4B1E4A1A601C4BCA
:10327C004FF4E1525A601A4B00229A60184B42F2FA
:10328C000F72DA60164B00221A61154B00229A61FC
:10329C00134801F09DFE0346002B01D0FFF740FEC2
:1032AC004FF48053BB6007F1080319460C4802F039
:1032BC0067F80346002B01D0FFF732FE20233B605A
:1032CC0000237B603B461946054802F039FA034659
:1032DC00002B01D0FFF724FE00BF1837BD4680BD80
:1032EC00CC0100200008004080B584B000AF7860AD
:1032FC007B681B680D4A934213D10D4BDB690C4A5A
:10330C0043F00403D3610A4BDB6903F00403FB6055
:10331C00FB68002201211E2000F005FA1E2000F09F
:10332C001EFA00BF1037BD4680BD00BF000800402C
:10333C000010024080B500AF114B124A1A60104BBE
:10334C004FF4E1325A600E4B00229A600C4B002273
:10335C00DA600B4B00221A61094B0C225A61084BA4
:10336C0000229A61064B0022DA61054802F058FAF5
:10337C000346002B01D0FFF7D3FD00BF80BD00BF7B
:10338C00140200200038014080B588B000AF78608E
:10339C0007F1100300221A605A609A60DA607B68A9
:1033AC001B681C4A934231D11B4B9B691A4A43F44C
:1033BC0080439361184B9B6903F48043FB60FB686B
:1033CC00154B9B69144A43F004039361124B9B69A0
:1033DC0003F00403BB60BB684FF400733B61022332
:1033EC007B610323FB6107F1100319460B4800F0C6
:1033FC00C1FB4FF480633B6100237B610023BB6105
:10340C0007F110031946054800F0B4FB00BF203744
:10341C00BD4680BD0038014000100240000801404C
:10342C000C480D490D4A002302E0D458C450043313
:10343C00C4188C42F9D30A4A0A4C002301E01360E9
:10344C000432A242FBD3FFF7FBFE02F0A7FBFEF710
:10345C00FBFD7047000000208C000020B0720008BB
:10346C009000002090020020FEE7000080B500AF25
:10347C00084B1B68074A43F010031360032000F04D
:10348C0047F90F2000F008F8FFF7D0FD002318468D
:10349C0080BD00BF0020024080B582B000AF7860D4
:1034AC00124B1A68124B1B7819464FF47A73B3FB04
:1034BC00F1F3B2FBF3F3184600F05FF90346002B6F
:1034CC0001D001230EE07B680F2B0AD8002279680B
:1034DC004FF0FF3000F027F9064A7B681360002399
:1034EC0000E0012318460837BD4680BD1C000020B3
:1034FC00240000202000002080B400AF054B1B7876
:10350C001A46054B1B681344034A136000BFBD46A3
:10351C0080BC7047240000205802002080B400AF0B
:10352C00024B1B681846BD4680BC704758020020F1
:10353C0080B584B000AF7860FFF7F0FFB8607B68AF
:10354C00FB60FB68B3F1FF3F05D00A4B1B781A46B2
:10355C00FB681344FB6000BFFFF7E0FF0246BB684B
:10356C00D31AFA689A42F7D800BF00BF1037BD468D
:10357C0080BD00BF2400002080B485B000AF78600F
:10358C007B6803F00703FB600C4BDB68BB60BA681D
:10359C004FF6FF031340BB60FB681A02BB68134372
:1035AC0043F0BF6343F40033BB60044ABB68D36091
:1035BC0000BF1437BD4680BC704700BF00ED00E073
:1035CC0080B400AF044BDB681B0A03F007031846FA
:1035DC00BD4680BC704700BF00ED00E080B483B0F6
:1035EC0000AF0346FB7197F90730002B0BDBFB791F
:1035FC0003F01F02064997F907305B09012000FA16
:10360C0002F241F8232000BF0C37BD4680BC704746
:10361C0000E100E080B483B000AF03463960FB7179
:10362C0097F90730002B0ADB3B68DAB20C4997F9A3
:10363C0007301201D2B20B4483F800230AE03B6836
:10364C00DAB20849FB7903F00F03043B1201D2B242
:10365C000B441A7600BF0C37BD4680BC704700BFC8
:10366C0000E100E000ED00E080B489B000AFF8604C
:10367C00B9607A60FB6803F00703FB61FB69C3F177
:10368C000703042B28BF0423BB61FB690433062BFF
:10369C0002D9FB69033B00E000237B614FF0FF3252
:1036AC00BB6902FA03F3DA43BB681A407B699A40A0
:1036BC004FF0FF317B6901FA03F3D9437B680B4070
:1036CC00134318462437BD4680BC704780B582B082
:1036DC0000AF78607B68013BB3F1807F01D301239D
:1036EC000FE00A4A7B68013B53600F214FF0FF301B
:1036FC00FFF790FF054B00229A60044B07221A60DB
:10370C00002318460837BD4680BD00BF10E000E01E
:10371C0080B582B000AF78607868FFF72DFF00BFEE
:10372C000837BD4680BD80B586B000AF0346B96092
:10373C007A60FB7300237B61FFF742FF78617A6844
:10374C00B9687869FFF790FF024697F90F30114678
:10375C001846FFF75FFF00BF1837BD4680BD80B528
:10376C0082B000AF0346FB7197F907301846FFF79C
:10377C0035FF00BF0837BD4680BD80B582B000AFB5
:10378C0078607868FFF7A2FF034618460837BD46F5
:10379C0080BD0000F0B587B000AFF860B960C7E934
:1037AC0000230123FB750023BB7500237B752F4B76
:1037BC001B7E012B01D1022354E02C4B01221A76E3
:1037CC004CF2503000F098F80346FB75FB7D002B53
:1037DC0044D1FB68012B02D101237B7507E0FB6808
:1037EC00022B02D102237B7501E004237B7500239D
:1037FC00BB752DE0BB7D5A00BB6802EB030CBB7D97
:10380C001901D7E90023C1F12006A1F1200022FA09
:10381C0001F403FA06F6344323FA00F0044323FAC6
:10382C0001F5A3B21946604600F04AF84CF250304C
:10383C0000F062F80346FB750D4B1B690C4A23F034
:10384C0001031361FB7D002B07D1BB7D0133BB75DD
:10385C00BA7D7B7D9A42CDD300E000BF034B0022A2
:10386C001A76FB7D18461C37BD46F0BD6002002061
:10387C000020024080B483B000AF0023FB710D4BDD
:10388C001B6903F08003002B0DD00A4B0A4A5A60C7
:10389C00084B0A4A5A60074B1B6903F08003002B44
:1038AC0001D00123FB71FB7918460C37BD4680BC57
:1038BC00704700BF0020024023016745AB89EFCD64
:1038CC0080B483B000AF78600B467B80084B00223D
:1038DC00DA61084B1B69074A43F0010313617B68EB
:1038EC007A881A8000BF0C37BD4680BC704700BF79
:1038FC00600200200020024080B584B000AF7860E8
:10390C00FFF70CFEF86010E07B68B3F1FF3F0CD0C2
:10391C007B68002B07D0FFF701FE0246FB68D31A29
:10392C007A689A4201D2032325E0154BDB6803F039
:10393C000103002BE8D1124BDB6803F02003002BB2
:10394C0002D00F4B2022DA600D4BDB6803F0100322
:10395C00002B0BD10A4BDB6903F00103002B05D1C3
:10396C00074BDB6803F00403002B03D000F00AF8CC
:10397C00012300E0002318461037BD4680BD00BF70
:10398C000020024080B483B000AF00237B60234B47
:10399C00DB6803F01003002B09D0214BDB6943F0EB
:1039AC0002031F4AD3617B6843F010037B601B4BFF
:1039BC00DB6803F00403002B09D0194BDB6943F0DF
:1039CC000103174AD3617B6843F004037B60134BFC
:1039DC00DB6903F00103002B0BD0114BDB6943F0C7
:1039EC0004030F4AD3610D4BDB690C4A23F001032E
:1039FC00D3617B6840F20112934206D1074BDB691D
:103A0C00064A23F00103D36102E0044A7B68D360C9
:103A1C0000BF0C37BD4680BC704700BF0020024081
:103A2C006002002080B584B000AF7860396001235B
:103A3C00FB730023BB602F4B1B7E012B01D1022398
:103A4C0053E02C4B01221A767B681B68022B16D193
:103A5C004CF25030FFF750FF0346002B41D10120B0
:103A6C0000F04CF84CF25030FFF746FF0346FB7366
:103A7C00214B1B69204A23F00403136131E04CF203
:103A8C005030FFF739FF0346002B2AD13B684FF02B
:103A9C00FF321A607B689B68BB6019E0B86800F065
:103AAC0049F84CF25030FFF727FF0346FB73124BDB
:103ABC001B69114A23F002031361FB7B002B03D01B
:103ACC003B68BA681A600CE0BB6803F58063BB60A6
:103ADC007B68DB689A027B689B681344BA689A42DD
:103AEC00DCD3044B00221A76FB7B18461037BD46FC
:103AFC0080BD00BF600200200020024080B483B073
:103B0C0000AF7860094B0022DA61094B1B69084A47
:103B1C0043F004031361064B1B69054A43F0400351
:103B2C00136100BF0C37BD4680BC7047600200209B
:103B3C000020024080B483B000AF78600B4B0022B1
:103B4C00DA610B4B1B690A4A43F002031361084A02
:103B5C007B685361064B1B69054A43F040031361B4
:103B6C0000BF0C37BD4680BC704700BF6002002010
:103B7C000020024080B48BB000AF78603960002325
:103B8C007B6200233B6269E101227B6A02FA03F348
:103B9C00FB613B681B68FA691340BB61BA69FB693E
:103BAC009A4240F058813B685B689A4A93425ED0D7
:103BBC00984A934275D8984A934258D0964A934261
:103BCC006FD8964A934252D0944A934269D8944AF9
:103BDC0093424CD0924A934263D8924A934246D035
:103BEC00904A93425DD8122B2AD8122B59D801A295
:103BFC0052F823F07B3C0008553C0008673C000859
:103C0C00A93C0008AF3C0008AF3C0008AF3C0008E2
:103C1C00AF3C0008AF3C0008AF3C0008AF3C0008CC
:103C2C00AF3C0008AF3C0008AF3C0008AF3C0008BC
:103C3C00AF3C0008AF3C00085D3C0008713C00083C
:103C4C00794A934213D02CE03B68DB683B6229E055
:103C5C003B68DB6804333B6224E03B68DB68083379
:103C6C003B621FE03B68DB680C333B621AE03B684D
:103C7C009B68002B02D104233B6213E03B689B68DA
:103C8C00012B05D108233B627B68FA691A6109E0B4
:103C9C0008233B627B68FA695A6103E000233B62AC
:103CAC0000E000BFBB69FF2B01D87B6801E07B689B
:103CBC0004337B61BB69FF2B02D87B6A9B0002E05B
:103CCC007B6A083B9B003B617B691A680F213B694F
:103CDC0001FA03F3DB431A40396A3B6901FA03F337
:103CEC001A437B691A603B685B6803F08053002BB6
:103CFC0000F0B1804D4B9B694C4A43F0010393613A
:103D0C004A4B9B6903F00103BB60BB68484A7B6A62
:103D1C009B08023352F82330FB607B6A03F00303E9
:103D2C009B000F2202FA03F3DB43FA681340FB609B
:103D3C007B68404A934213D07B683F4A93420DD034
:103D4C007B683E4A934207D07B683D4A934201D13F
:103D5C00032306E0042304E0022302E0012300E035
:103D6C0000237A6A02F0030292009340FA6813432C
:103D7C00FB602F497B6A9B080233FA6841F82320C9
:103D8C003B685B6803F48033002B06D02D4B1A681C
:103D9C002C49BB6913430B6006E02A4B1A68BB69BC
:103DAC00DB43284913400B603B685B6803F400332A
:103DBC00002B06D0234B5A682249BB6913434B6036
:103DCC0006E0204B5A68BB69DB431E4913404B602D
:103DDC003B685B6803F48013002B06D0194B9A6880
:103DEC001849BB6913438B6006E0164B9A68BB6994
:103DFC00DB43144913408B603B685B6803F400138E
:103E0C00002B21D00F4BDA680E49BB691343CB60F2
:103E1C0021E000BF00003210000031100000221021
:103E2C0000002110000012100000111000100240C0
:103E3C000000014000080140000C0140001001404E
:103E4C0000140140000401400B4BDA68BB69DB43F2
:103E5C0009491340CB607B6A01337B623B681A686B
:103E6C007B6A22FA03F3002B7FF48EAE00BF00BFF7
:103E7C002C37BD4680BC70470004014080B485B02F
:103E8C0000AF78600B467B807B689A687B88134018
:103E9C00002B02D00123FB7301E00023FB73FB7B9F
:103EAC0018461437BD4680BC704780B483B000AF51
:103EBC0078600B467B8013467B707B78002B03D09D
:103ECC007A887B681A6103E07B881A047B681A6124
:103EDC0000BF0C37BD4680BC704780B485B000AFC6
:103EEC0078600B467B807B68DB68FB607A88FB68BC
:103EFC0013401A04FB68D9437B880B401A437B6838
:103F0C001A6100BF1437BD4680BC704780B582B0C3
:103F1C0000AF0346FB80084B5A69FB881340002B0B
:103F2C0006D0054AFB885361FB881846FEF716FF3E
:103F3C0000BF0837BD4680BD0004014080B586B087
:103F4C0000AF78607B68002B01D1012372E27B68A3
:103F5C001B6803F00103002B00F08780924B5B6819
:103F6C0003F00C03042B0CD08F4B5B6803F00C0399
:103F7C00082B12D18C4B5B6803F48033B3F5803F74
:103F8C000BD1894B1B6803F40033002B6CD07B687E
:103F9C005B68002B68D101234CE27B685B68B3F54E
:103FAC00803F06D1804B1B687F4A43F480331360FB
:103FBC002EE07B685B68002B0CD17B4B1B687A4A2C
:103FCC0023F480331360784B1B68774A23F48023E7
:103FDC0013601DE07B685B68B3F5A02F0CD1724BAE
:103FEC001B68714A43F4802313606F4B1B686E4A45
:103FFC0043F4803313600BE06B4B1B686A4A23F469
:10400C0080331360684B1B68674A23F4802313606A
:10401C007B685B68002B13D0FFF780FA386108E0EF
:10402C00FFF77CFA02463B69D31A642B01D90323B0
:10403C0000E25D4B1B6803F40033002BF0D014E05E
:10404C00FFF76CFA386108E0FFF768FA02463B6943
:10405C00D31A642B01D90323ECE1534B1B6803F4F3
:10406C000033002BF0D100E000BF7B681B6803F02D
:10407C000203002B63D04C4B5B6803F00C03002B4A
:10408C000BD0494B5B6803F00C03082B1CD1464B3F
:10409C005B6803F48033002B16D1434B1B6803F091
:1040AC000203002B05D07B681B69012B01D0012377
:1040BC00C0E13D4B1B6823F0F8027B685B69DB00B9
:1040CC00394913430B603AE07B681B69002B20D005
:1040DC00364B01221A60FFF721FA386108E0FFF72E
:1040EC001DFA02463B69D31A022B01D90323A1E125
:1040FC002D4B1B6803F00203002BF0D02A4B1B68DE
:10410C0023F0F8027B685B69DB00274913430B60E3
:10411C0015E0264B00221A60FFF700FA386108E020
:10412C00FFF7FCF902463B69D31A022B01D9032392
:10413C0080E11D4B1B6803F00203002BF0D17B6860
:10414C001B6803F00803002B3AD07B689B69002B9B
:10415C0019D0174B01221A60FFF7E0F9386108E01B
:10416C00FFF7DCF902463B69D31A022B01D9032372
:10417C0060E10D4B5B6A03F00203002BF0D00120D1
:10418C0000F0D8FA1CE00A4B00221A60FFF7C6F9BF
:10419C0038610FE0FFF7C2F902463B69D31A022BD4
:1041AC0008D9032346E100BF001002400000424240
:1041BC0080044242924B5B6A03F00203002BE9D16C
:1041CC007B681B6803F00403002B00F0A68000231F
:1041DC00FB758B4BDB6903F08053002B0DD1884BA7
:1041EC00DB69874A43F08053D361854BDB6903F06D
:1041FC008053BB60BB680123FB75824B1B6803F4C7
:10420C008073002B18D17F4B1B687E4A43F480735C
:10421C001360FFF783F9386108E0FFF77FF9024676
:10422C003B69D31A642B01D9032303E1754B1B683B
:10423C0003F48073002BF0D07B68DB68012B06D174
:10424C006F4B1B6A6E4A43F0010313622DE07B68CF
:10425C00DB68002B0CD16A4B1B6A694A23F0010303
:10426C001362674B1B6A664A23F0040313621CE05B
:10427C007B68DB68052B0CD1614B1B6A604A43F0F1
:10428C00040313625E4B1B6A5D4A43F00103136225
:10429C000BE05B4B1B6A5A4A23F001031362584B29
:1042AC001B6A574A23F0040313627B68DB68002BFC
:1042BC0015D0FFF733F938610AE0FFF72FF9024602
:1042CC003B69D31A41F28832934201D90323B1E0FE
:1042DC004B4B1B6A03F00203002BEED014E0FFF7EC
:1042EC001DF938610AE0FFF719F902463B69D31A48
:1042FC0041F28832934201D903239BE0404B1B6A65
:10430C0003F00203002BEED1FB7D012B05D13C4BBE
:10431C00DB693B4A23F08053D3617B68DB69002B5C
:10432C0000F08780364B5B6803F00C03082B61D0E0
:10433C007B68DB69022B46D1334B00221A60FFF7F6
:10434C00EDF8386108E0FFF7E9F802463B69D31A4B
:10435C00022B01D903236DE0294B1B6803F000737A
:10436C00002BF0D17B681B6AB3F5803F08D1244B3E
:10437C005B6823F400327B689B68214913434B60D4
:10438C001F4B5B6823F474127B68196A7B685B6A49
:10439C000B431B4913434B601B4B01221A60FFF765
:1043AC00BDF8386108E0FFF7B9F802463B69D31A4B
:1043BC00022B01D903233DE0114B1B6803F0007362
:1043CC00002BF0D035E0104B00221A60FFF7A6F856
:1043DC00386108E0FFF7A2F802463B69D31A022BBA
:1043EC0001D9032326E0064B1B6803F00073002B56
:1043FC00F0D11EE07B68DB69012B07D1012319E0AA
:10440C000010024000700040600042420B4B5B68A1
:10441C00FB60FB6803F480327B681B6A9A4206D10E
:10442C00FB6803F470127B685B6A9A4201D001232B
:10443C0000E0002318461837BD4680BD001002402E
:10444C0080B584B000AF786039607B68002B01D1F7
:10445C000123D0E06A4B1B6803F007033A689A42C9
:10446C0010D9674B1B6823F0070265493B6813435F
:10447C000B60634B1B6803F007033A689A4201D048
:10448C000123B8E07B681B6803F00203002B20D0EB
:10449C007B681B6803F00403002B05D0594B5B6849
:1044AC00584A43F4E06353607B681B6803F00803CD
:1044BC00002B05D0534B5B68524A43F46053536056
:1044CC00504B5B6823F0F0027B689B684D491343AB
:1044DC004B607B681B6803F00103002B40D07B68AA
:1044EC005B68012B07D1474B1B6803F40033002B8F
:1044FC0015D101237FE07B685B68022B07D1414B10
:10450C001B6803F00073002B09D1012373E03D4BB2
:10451C001B6803F00203002B01D101236BE0394B24
:10452C005B6823F003027B685B68364913434B607E
:10453C00FEF7F4FFF8600AE0FEF7F0FF0246FB68B6
:10454C00D31A41F28832934201D9032353E02D4B05
:10455C005B6803F00C027B685B689B009A42EBD1B2
:10456C00274B1B6803F007033A689A4210D2244B7E
:10457C001B6823F0070222493B6813430B60204B56
:10458C001B6803F007033A689A4201D0012332E01A
:10459C007B681B6803F00403002B08D0194B5B6885
:1045AC0023F4E0627B68DB68164913434B607B683D
:1045BC001B6803F00803002B09D0124B5B6823F433
:1045CC0060527B681B69DB000E4913434B6000F0A3
:1045DC0021F802460B4B5B681B0903F00F030A49D9
:1045EC00CB5C22FA03F3094A1360094B1B6818468B
:1045FC00FEF752FF002318461037BD4680BD00BFA2
:10460C000020024000100240F87100081C0000203D
:10461C002000002090B48AB000AF294B3C1D0FCB7A
:10462C0084E80F0040F201233B800023FB61002350
:10463C00BB6100237B6200237B6100233B62214B27
:10464C005B68FB61FB6903F00C03042B02D0082BA5
:10465C0003D02BE01C4B3B622BE0FB699B0C03F063
:10466C000F0328333B4413F8243C7B61FB6903F4B0
:10467C008033002B12D0134B5B685B0C03F00103EF
:10468C0028333B4413F8283CBB617B690E4A03FB7F
:10469C0002F2BB69B2FBF3F37B6204E07B690B4A69
:1046AC0002FB03F37B627B6A3B6202E0064B3B62DC
:1046BC0000BF3B6A18462837BD4690BC704700BF08
:1046CC00E87100080010024000127A0000093D0059
:1046DC0080B400AF024B1B681846BD4680BC7047C7
:1046EC001C00002080B500AFFFF7F2FF0246054B1F
:1046FC005B681B0A03F007030349CB5C22FA03F344
:10470C00184680BD001002400872000880B500AF4A
:10471C00FFF7DEFF0246054B5B68DB0A03F007037D
:10472C000349CB5C22FA03F3184680BD001002400B
:10473C000872000880B485B000AF78600A4B1B6823
:10474C000A4AA2FB03235B0A7A6802FB03F3FB60B1
:10475C0000BFFB685A1EFA60002BF9D100BF00BFE6
:10476C001437BD4680BC70471C000020D34D62102E
:10477C0080B582B000AF78607B68002B01D101233B
:10478C0076E07B685B6A002B08D17B685B68B3F5CD
:10479C00827F09D07B680022DA6105E07B68002209
:1047AC001A617B6800225A617B6800229A627B68DE
:1047BC0093F85130DBB2002B06D17B68002283F8D2
:1047CC0050207868FEF7E8FB7B68022283F85120C2
:1047DC007B681B681A687B681B6822F040021A60B1
:1047EC007B685B6803F482727B689B6803F4044308
:1047FC001A437B68DB6803F400631A437B681B690C
:10480C0003F002031A437B685B6903F001031A434C
:10481C007B689B6903F400731A437B68DB6903F0C4
:10482C0038031A437B681B6A03F0800342EA0301D6
:10483C007B689B6A03F400527B681B680A431A600E
:10484C007B689B691A0C7B681B6802F004025A6037
:10485C007B681B68DA697B681B6822F40062DA618A
:10486C007B6800225A657B68012283F85120002363
:10487C0018460837BD4680BD80B588B002AFF860D9
:10488C00B9603B601346FB800023FB75FB685B68DB
:10489C00B3F5827F12D1FB689B68002B0ED1FB68AD
:1048AC00042283F85120FA883B6800931346BA68B7
:1048BC00B968F86800F0F1F80346EAE0FB6893F891
:1048CC005030012B01D10223E3E0FB68012283F875
:1048DC005020FEF723FE3861FB6893F85130DBB2B1
:1048EC00012B02D00223FB75CAE0BB68002B02D05F
:1048FC00FB88002B02D10123FB75C1E0FB6804226D
:10490C0083F85120FB6800225A65FB68BA689A63E9
:10491C00FB68FA889A87FB68FA88DA87FB680022BA
:10492C001A63FB6800229A86FB680022DA86FB6811
:10493C0000221A64FB6800225A64FB689B68B3F57A
:10494C00004F0FD1FB681B681A68FB681B6822F0CC
:10495C0040021A60FB681B681A68FB681B6822F42B
:10496C0080421A60FB681B681B6803F04003402BF5
:10497C0007D0FB681B681A68FB681B6842F0400292
:10498C001A60FB68DB68002B62D12EE0FB681B68A9
:10499C009B6803F00103012B15D1FB681B6803F125
:1049AC000C02FB689B6B1278D2B21A70FB689B6B83
:1049BC005A1CFB689A63FB68DB8F9BB2013B9AB273
:1049CC00FB68DA8711E0FEF7A9FD02463B69D31AB2
:1049DC003A689A4203D83B68B3F1FF3F02D13B6877
:1049EC00002B02D10323FB754AE0FB68DB8F9BB2E3
:1049FC00002BCBD131E0FB681B689B6803F00103F3
:104A0C00012B13D1FB681B68DA68FB689B6B92B2B5
:104A1C001A80FB689B6B9A1CFB689A63FB68DB8FA4
:104A2C009BB2013B9AB2FB68DA8711E0FEF776FD88
:104A3C0002463B69D31A3A689A4203D83B68B3F1F1
:104A4C00FF3F02D13B68002B02D10323FB7517E01B
:104A5C00FB68DB8F9BB2002BCDD13A693968F868C3
:104A6C0000F046FA0346002B02D0FB6820225A6560
:104A7C00FB685B6D002B02D00123FB7500E000BFCF
:104A8C00FB68012283F85120FB68002283F8502038
:104A9C00FB7D18461837BD4680BD80B58CB000AF85
:104AAC00F860B9607A607B800123FB62002387F891
:104ABC002B30FB6893F85030012B01D102238AE193
:104ACC00FB68012283F85020FEF728FD7862FB6812
:104ADC0093F8513087F82330FB685B68FB617B8867
:104AEC007B8397F82330012B0FD0FB69B3F5827FC2
:104AFC0007D1FB689B68002B03D197F82330042B5C
:104B0C0003D0022387F82B305BE1BB68002B05D068
:104B1C007B68002B02D07B88002B03D1012387F804
:104B2C002B304EE1FB6893F85130DBB2042B03D0F1
:104B3C00FB68052283F85120FB6800225A65FB684C
:104B4C007A689A63FB687A88DA87FB687A889A872E
:104B5C00FB68BA681A63FB687A88DA86FB687A881D
:104B6C009A86FB6800221A64FB6800225A64FB6870
:104B7C001B681B6803F04003402B07D0FB681B68C5
:104B8C001A68FB681B6842F040021A60FB68DB681D
:104B9C00B3F5006F78D1FB685B68002B02D07B8B80
:104BAC00012B66D1FB681B6B1A88FB681B68DA60EB
:104BBC00FB681B6B9A1CFB681A63FB68DB8E9BB251
:104BCC00013B9AB2FB68DA8653E0FB681B689B6872
:104BDC0003F00203022B1BD1FB68DB8E9BB2002B74
:104BEC0016D0FB6A012B13D1FB681B6B1A88FB6870
:104BFC001B68DA60FB681B6B9A1CFB681A63FB680A
:104C0C00DB8E9BB2013B9AB2FB68DA860023FB6217
:104C1C00FB681B689B6803F00103012B19D1FB682F
:104C2C00DB8F9BB2002B14D0FB681B68DA68FB6827
:104C3C009B6B92B21A80FB689B6B9A1CFB689A6305
:104C4C00FB68DB8F9BB2013B9AB2FB68DA870123CE
:104C5C00FB62FEF763FC02467B6AD31ABA6B9A427C
:104C6C0007D8BB6BB3F1FF3F03D0032387F82B307E
:104C7C00A7E0FB68DB8E9BB2002BA6D1FB68DB8F19
:104C8C009BB2002BA1D17CE0FB685B68002B02D0AF
:104C9C007B8B012B6BD1FB681A6BFB681B680C338D
:104CAC0012781A70FB681B6B5A1CFB681A63FB6842
:104CBC00DB8E9BB2013B9AB2FB68DA8657E0FB684D
:104CCC001B689B6803F00203022B1CD1FB68DB8E74
:104CDC009BB2002B17D0FB6A012B14D1FB681A6B0B
:104CEC00FB681B680C3312781A70FB681B6B5A1C20
:104CFC00FB681A63FB68DB8E9BB2013B9AB2FB68C4
:104D0C00DA860023FB62FB681B689B6803F00103D7
:104D1C00012B19D1FB68DB8F9BB2002B14D0FB68E5
:104D2C001B68DA68FB689B6BD2B21A70FB689B6BD2
:104D3C005A1CFB689A63FB68DB8F9BB2013B9AB2EF
:104D4C00FB68DA870123FB62FEF7E8FB02467B6A0D
:104D5C00D31ABA6B9A4203D8BB6BB3F1FF3F02D1A3
:104D6C00BB6B002B03D1032387F82B3029E0FB68A6
:104D7C00DB8E9BB2002BA2D1FB68DB8F9BB2002B8E
:104D8C009DD17A6AB96BF86800F004F90346002BE0
:104D9C0006D0012387F82B30FB6820225A6510E0DF
:104DAC00FB689B68002B0BD100237B61FB681B68A5
:104DBC00DB687B61FB681B689B687B617B6900E03F
:104DCC0000BFFB68012283F85120FB68002283F8A6
:104DDC00502097F82B3018463037BD4680BD000068
:104DEC0080B588B000AFF860B9603B601346FB71CA
:104DFC00FEF794FB0246BB6A9B1A3A681344FB61AC
:104E0C00FEF78CFBB861394B1B685B011B0DFA6913
:104E1C0002FB03F37B6154E03B68B3F1FF3F50D0DE
:104E2C00FEF77CFB0246BB69D31AFA699A4202D997
:104E3C00FB69002B3DD1FB681B685A68FB681B683B
:104E4C0022F0E0025A60FB685B68B3F5827F11D1F7
:104E5C00FB689B68B3F5004F04D0FB689B68B3F507
:104E6C00806F07D1FB681B681A68FB681B6822F00F
:104E7C0040021A60FB689B6AB3F5005F0FD1FB68B8
:104E8C001B681A68FB681B6822F400521A60FB68E6
:104E9C001B681A68FB681B6842F400521A60FB68B6
:104EAC00012283F85120FB68002283F85020032351
:104EBC0017E07B69002B01D10023FB617B69013B6F
:104ECC007B61FB681B689A68BB681340BA689A429E
:104EDC000CBF01230023DBB21A46FB799A429BD10B
:104EEC00002318462037BD4680BD00BF1C000020A3
:104EFC0080B586B002AFF860B9607A60FB685B6819
:104F0C00B3F5827F11D1FB689B68B3F5004F04D0D9
:104F1C00FB689B68B3F5806F07D1FB681B681A6848
:104F2C00FB681B6822F040021A60FB685B68B3F5F3
:104F3C00827F17D1FB689B68B3F5806F12D17B68B9
:104F4C000093BB6800220121F868FFF749FF034674
:104F5C00002B1AD0FB685B6D43F02002FB685A658E
:104F6C00032313E07B680093BB6800228021F86860
:104F7C00FFF736FF0346002B07D0FB685B6D43F051
:104F8C002002FB685A65032300E000231846103703
:104F9C00BD4680BD80B586B002AFF860B9607A605E
:104FAC007B680093BB6800228021F868FFF718FF2C
:104FBC000346002B07D0FB685B6D43F02002FB68B7
:104FCC005A65032300E0002318461037BD4680BD08
:104FDC0080B582B000AF78607B68002B01D10123D3
:104FEC0041E07B6893F83D30DBB2002B06D17B6847
:104FFC00002283F83C207868FEF776F97B68022261
:10500C0083F83D207B681A687B6804331946104688
:10501C0000F09EFA7B68012283F846207B6801220F
:10502C0083F83E207B68012283F83F207B680122B5
:10503C0083F840207B68012283F841207B680122A1
:10504C0083F842207B68012283F843207B6801228D
:10505C0083F844207B68012283F845207B68012279
:10506C0083F83D20002318460837BD4680BD00005C
:10507C0080B485B000AF78607B6893F83D30DBB2CC
:10508C00012B01D001233AE07B68022283F83D20FA
:10509C007B681B68DA687B681B6842F00102DA6087
:1050AC007B681B68184A93420ED07B681B68B3F16F
:1050BC00804F09D07B681B68144A934204D07B68EC
:1050CC001B68134A934211D17B681B689B6803F0E1
:1050DC000703FB60FB68062B10D07B681B681A6803
:1050EC007B681B6842F001021A6007E07B681B6852
:1050FC001A687B681B6842F001021A60002318468C
:10510C001437BD4680BC7047002C014000040040A1
:10511C000008004080B483B000AF78607B681B68E7
:10512C00DA687B681B6822F00102DA607B681B6816
:10513C001A6A41F211131340002B0FD17B681B68C4
:10514C001A6A40F244431340002B07D17B681B685A
:10515C001A687B681B6822F001021A607B680122C6
:10516C0083F83D20002318460C37BD4680BC7047A1
:10517C0080B582B000AF78607B681B681B6903F058
:10518C000203022B22D17B681B68DB6803F002034D
:10519C00022B1BD17B681B686FF002021A617B68C3
:1051AC0001221A777B681B689B6903F00303002BB1
:1051BC0003D0786800F0B1F905E0786800F0A4F944
:1051CC00786800F0B3F97B6800221A777B681B685B
:1051DC001B6903F00403042B22D17B681B68DB687A
:1051EC0003F00403042B1BD17B681B686FF00402D3
:1051FC001A617B6802221A777B681B689B6903F42F
:10520C004073002B03D0786800F087F905E07868CC
:10521C0000F07AF9786800F089F97B6800221A7737
:10522C007B681B681B6903F00803082B22D17B6881
:10523C001B68DB6803F00803082B1BD17B681B6819
:10524C006FF008021A617B6804221A777B681B686E
:10525C00DB6903F00303002B03D0786800F05DF9E1
:10526C0005E0786800F050F9786800F05FF97B6829
:10527C0000221A777B681B681B6903F01003102B44
:10528C0022D17B681B68DB6803F01003102B1BD149
:10529C007B681B686FF010021A617B6808221A7712
:1052AC007B681B68DB6903F44073002B03D07868C0
:1052BC0000F033F905E0786800F026F9786800F022
:1052CC0035F97B6800221A777B681B681B6903F031
:1052DC000103012B0ED17B681B68DB6803F0010313
:1052EC00012B07D17B681B686FF001021A6178688B
:1052FC00FDF750FD7B681B681B6903F08003802B56
:10530C000ED17B681B68DB6803F08003802B07D110
:10531C007B681B686FF080021A61786800F077FA7E
:10532C007B681B681B6903F04003402B0ED17B6824
:10533C001B68DB6803F04003402B07D17B681B68BC
:10534C006FF040021A61786800F0F9F87B681B680E
:10535C001B6903F02003202B0ED17B681B68DB68D4
:10536C0003F02003202B07D17B681B686FF0200211
:10537C001A61786800F042FA00BF0837BD4680BD5C
:10538C0080B584B000AF786039607B6893F83C30AE
:10539C00012B01D10223B3E07B68012283F83C206E
:1053AC007B68022283F83D207B681B689B68FB604E
:1053BC00FB6823F07703FB60FB6823F47F43FB60FF
:1053CC007B681B68FA689A603B681B68B3F5005FE2
:1053DC003ED0B3F5005F00F28780B3F5805F00F03C
:1053EC008580B3F5805F7FD8702B1AD0702B7BD85B
:1053FC00602B50D0602B77D8502B3CD0502B73D8CF
:10540C00402B58D0402B6FD8302B64D0302B6BD81E
:10541C00202B60D0202B67D8002B5CD0102B5AD0BF
:10542C0062E07B6818683B6899683B685A683B681F
:10543C00DB6800F066F97B681B689B68FB60FB68A7
:10544C0043F07703FB607B681B68FA689A604EE058
:10545C007B6818683B6899683B685A683B68DB68EE
:10546C0000F04FF97B681B689A687B681B6842F4F4
:10547C0080429A603BE07B6818683B6859683B68DF
:10548C00DB681A4600F0C6F87B681B68502118468A
:10549C0000F01DF92BE07B6818683B6859683B6885
:1054AC00DB681A4600F0E4F87B681B68602118463C
:1054BC0000F00DF91BE07B6818683B6859683B6885
:1054CC00DB681A4600F0A6F87B681B68402118467A
:1054DC0000F0FDF80BE07B681A683B681B68194606
:1054EC00104600F0F4F802E000BF00E000BF7B685B
:1054FC00012283F83D207B68002283F83C200023A6
:10550C0018461037BD4680BD80B483B000AF7860BC
:10551C0000BF0C37BD4680BC704780B483B000AF71
:10552C00786000BF0C37BD4680BC704780B483B038
:10553C0000AF786000BF0C37BD4680BC704780B4AC
:10554C0083B000AF786000BF0C37BD4680BC70479D
:10555C0080B485B000AF786039607B681B68FB60F5
:10556C007B68294A93420BD07B68B3F1804F07D0FC
:10557C007B68264A934203D07B68254A934208D124
:10558C00FB6823F07003FB603B685B68FA681343AD
:10559C00FB607B681C4A93420BD07B68B3F1804F55
:1055AC0007D07B68194A934203D07B68184A934210
:1055BC0008D1FB6823F44073FB603B68DB68FA6836
:1055CC001343FB60FB6823F080023B685B69134369
:1055DC00FB607B68FA681A603B689A687B68DA62E1
:1055EC003B681A687B689A627B68074A934203D1CE
:1055FC003B681A697B681A637B6801225A6100BF99
:10560C001437BD4680BC7047002C0140000400409C
:10561C000008004080B487B000AFF860B9607A60D1
:10562C00FB681B6A7B61FB681B6A23F00102FB6849
:10563C001A62FB689B693B613B6923F0F0033B6199
:10564C007B681B013A6913433B617B6923F00A03B6
:10565C007B617A69BB6813437B61FB683A699A6129
:10566C00FB687A691A6200BF1C37BD4680BC704764
:10567C0080B487B000AFF860B9607A60FB681B6AD1
:10568C0023F01002FB681A62FB689B697B61FB6864
:10569C001B6A3B617B6923F470437B617B681B0352
:1056AC007A6913437B613B6923F0A0033B61BB68C0
:1056BC001B013A6913433B61FB687A699A61FB6889
:1056CC003A691A6200BF1C37BD4680BC704780B473
:1056DC0085B000AF786039607B689B68FB60FB68C5
:1056EC0023F07003FB603A68FB68134343F0070335
:1056FC00FB607B68FA689A6000BF1437BD4680BCBB
:10570C00704780B487B000AFF860B9607A603B60D6
:10571C00FB689B687B617B6923F47F437B613B68FF
:10572C001A027B681A43BB6813437A6913437B6183
:10573C00FB687A699A6000BF1C37BD4680BC704715
:10574C0080B485B000AF786039607B6893F83C30EA
:10575C00012B01D1022346E07B68012283F83C2017
:10576C007B68022283F83D207B681B685B68FB60CA
:10577C007B681B689B68BB60FB6823F07003FB6055
:10578C003B681B68FA681343FB607B681B68FA680C
:10579C005A607B681B68164A93420ED07B681B6864
:1057AC00B3F1804F09D07B681B68124A934204D036
:1057BC007B681B68104A93420CD1BB6823F08003B2
:1057CC00BB603B685B68BA681343BB607B681B6853
:1057DC00BA689A607B68012283F83D207B680022BE
:1057EC0083F83C20002318461437BD4680BC704714
:1057FC00002C0140000400400008004080B483B03D
:10580C0000AF786000BF0C37BD4680BC704780B4D9
:10581C0083B000AF786000BF0C37BD4680BC7047CA
:10582C0080B582B000AF78607B68002B01D101237A
:10583C003FE07B6893F83D30DBB2002B06D17B68F0
:10584C00002283F83C207868FDF79EFD7B682422BB
:10585C0083F83D207B681B68DA687B681B6822F440
:10586C000052DA60786800F005F97B681B681A69E9
:10587C007B681B6822F490421A617B681B685A692A
:10588C007B681B6822F02A025A617B681B68DA6805
:10589C007B681B6842F40052DA607B6800221A6451
:1058AC007B68202283F83D207B68202283F83E20F1
:1058BC00002318460837BD4680BD80B58AB002AFBC
:1058CC00F860B9603B601346FB8000237B61FB688A
:1058DC0093F83D30DBB2202B7CD1BB68002B02D07F
:1058EC00FB88002B01D1012375E0FB6893F83C3059
:1058FC00012B01D102236EE0FB68012283F83C20CE
:10590C00FB6800221A64FB68212283F83D20FDF716
:10591C0005FE7861FB68FA889A84FB68FA88DA8459
:10592C00FB689B68B3F5805F08D1FB681B69002B93
:10593C0004D10023FB61BB68BB6103E0BB68FB6166
:10594C000023BB61FB68002283F83C202AE03B6803
:10595C0000937B6900228021F86800F040F8034630
:10596C00002B01D0032336E0FB69002B0BD1BB6964
:10597C001B881A46FB681B68C2F308025A60BB6995
:10598C000233BB6107E0FB691A78FB681B685A603D
:10599C00FB690133FB61FB68DB8C9BB2013B9AB268
:1059AC00FB68DA84FB68DB8C9BB2002BCFD13B68A5
:1059BC0000937B6900224021F86800F010F8034640
:1059CC00002B01D0032306E0FB68202283F83D2046
:1059DC00002300E0022318462037BD4680BD80B569
:1059EC0084B000AFF860B9603B601346FB712CE0EB
:1059FC00BB69B3F1FF3F28D0BB69002B07D0FDF783
:105A0C008DFD02463B68D31ABA699A421DD2FB68D7
:105A1C001B68DA68FB681B6822F4D072DA60FB68DA
:105A2C001B685A69FB681B6822F001025A61FB680B
:105A3C00202283F83D20FB68202283F83E20FB685F
:105A4C00002283F83C2003230FE0FB681B681A68D4
:105A5C00BB681340BA689A420CBF01230023DBB227
:105A6C001A46FB799A42C3D0002318461037BD461C
:105A7C0080BD000080B584B000AF78607B681B6887
:105A8C001B6923F440517B68DA687B681B680A4306
:105A9C001A617B689A687B681B691A437B685B692F
:105AAC001343BB607B681B68DB6823F4B05323F0A3
:105ABC000C037A681268B9680B43D3607B681B6867
:105ACC005B6923F440717B689A697B681B680A43A5
