:020000040800F2
:1000000000500020992E00080D2B0008132B00082B
:10001000192B00081F2B0008252B000800000000EA
:100020000000000000000000000000002B2B000872
:10003000372B000800000000432B00084F2B00085E
:10004000E12E0008E12E0008E12E0008E12E000854
:10005000E12E0008E12E000815110008E12E00082D
:10006000E12E0008E12E0008E12E0008E12E000834
:10007000E12E0008E12E0008E12E0008E12E000824
:10008000E12E0008E12E0008E12E0008E12E000814
:10009000E12E0008E12E0008E12E0008E12E000804
:1000A000E12E0008E12E0008E12E0008E12E0008F4
:1000B000E12E0008E12E0008992D0008E12E00082D
:1000C000E12E0008E12E0008E12E0008E12E0008D4
:1000D000E12E0008E12E0008E12E0008E12E0008C4
:1000E000E12E0008E12E0008E12E000800000000CB
:1000F0000000000000000000000000000000000000
:0C01000000000000000000005FF808F1A3
:1001100010B5054C237833B9044B13B10448AFF341
:1001200000800123237010BDE001002000000000CA
:100130003881000808B5034B1BB103490348AFF3EE
:10014000008008BD00000000E401002038810008A4
:10015000034613F8012B002AFBD1181A0138704707
:100160004FF0FF0C1CEAD0521EBF1CEAD15392EA9A
:100170000C0F93EA0C0F6FD01A4480EA010C400276
:1001800018BF5FEA41211ED04FF0006343EA5010D0
:1001900043EA5111A0FB01310CF00040B1F5000F12
:1001A0003EBF490041EAD3715B0040EA010062F1C1
:1001B0007F02FD2A1DD8B3F1004F40EBC25008BFAB
:1001C00020F00100704790F0000F0CF0004C08BFC9
:1001D00049024CEA502040EA51207F3AC2BFD2F196
:1001E000FF0340EAC250704740F400004FF00003A4
:1001F000013A5DDC12F1190FDCBF00F000407047DE
:10020000C2F10002410021FA02F1C2F1200200FA1B
:1002100002FC5FEA310040F1000053EA4C0308BFE2
:1002200020EADC70704792F0000F00F0004C02BF33
:10023000400010F4000F013AF9D040EA0C0093F0AE
:10024000000F01F0004C02BF490011F4000F013B08
:10025000F9D041EA0C018FE70CEAD15392EA0C0F76
:1002600018BF93EA0C0F0AD030F0004C18BF31F0E1
:10027000004CD8D180EA010000F00040704790F0B7
:10028000000F17BF90F0004F084691F0000F91F05B
:10029000004F14D092EA0C0F01D142020FD193EA21
:1002A0000C0F03D14B0218BF084608D180EA0100A9
:1002B00000F0004040F0FE4040F40000704740F085
:1002C000FE4040F44000704781F0004102E000BF72
:1002D00083F0004330B54FEA41044FEA430594EA06
:1002E000050F08BF90EA020F1FBF54EA000C55EA41
:1002F000020C7FEA645C7FEA655C00F0E2804FEA12
:100300005454D4EB5555B8BF6D420CDD2C4480EAF3
:10031000020281EA030382EA000083EA010180EA23
:10032000020281EA0303362D88BF30BD11F0004F71
:100330004FEA01314FF4801C4CEA113102D04042A7
:1003400061EB410113F0004F4FEA03334CEA1333E2
:1003500002D0524263EB430394EA050F00F0A780FA
:10036000A4F10104D5F1200E0DDB02FA0EFC22FAF5
:1003700005F2801841F1000103FA0EF2801843FAE9
:1003800005F359410EE0A5F120050EF1200E012ADA
:1003900003FA0EFC28BF4CF0020C43FA05F3C01818
:1003A00051EBE37101F0004507D54FF0000EDCF191
:1003B000000C7EEB00006EEB0101B1F5801F1BD33A
:1003C000B1F5001F0CD349085FEA30004FEA3C0C3E
:1003D00004F101044FEA445212F5800F80F09A8034
:1003E000BCF1004F08BF5FEA500C50F1000041EB38
:1003F000045141EA050130BD5FEA4C0C404141EB3C
:100400000101013C28BFB1F5801FE9D291F0000F36
:1004100004BF01460020B1FA81F308BF2033A3F1E5
:100420000B03B3F120020CDA0C3208DD02F1140CDC
:10043000C2F10C0201FA0CF021FA02F10CE002F117
:100440001402D8BFC2F1200C01FA02F120FA0CFC10
:10045000DCBF41EA0C019040E41AA2BF01EB045159
:10046000294330BD6FEA04041F3C1CDA0C340EDC57
:1004700004F11404C4F1200220FA04F001FA02F39A
:1004800040EA030021FA04F345EA030130BDC4F158
:100490000C04C4F1200220FA02F001FA04F340EA4D
:1004A0000300294630BD21FA04F0294630BD94F0FE
:1004B000000F83F4801306BF81F480110134013DE5
:1004C0004EE77FEA645C18BF7FEA655C29D094EA56
:1004D000050F08BF90EA020F05D054EA000C04BFD4
:1004E0001946104630BD91EA030F1EBF00210020BF
:1004F00030BD5FEA545C05D14000494128BF41F05E
:10050000004130BD14F580043CBF01F5801130BDC1
:1005100001F0004545F0FE4141F470014FF000004C
:1005200030BD7FEA645C1ABF194610467FEA655CFD
:100530001CBF0B46024650EA013406BF52EA03359F
:1005400091EA030F41F4002130BD00BF90F0000F8D
:1005500004BF0021704730B54FF4806404F13204C9
:100560004FF000054FF0000150E700BF90F0000F82
:1005700004BF0021704730B54FF4806404F13204A9
:1005800010F0004548BF40424FF000013EE700BF79
:1005900042004FEAE2014FEA31014FEA02701FBF09
:1005A00012F07F4393F07F4F81F06051704732F03B
:1005B0007F4208BF704793F07F4F04BF41F4002192
:1005C000704730B54FF4607401F0004521F00041F0
:1005D0001CE700BF50EA010208BF704730B54FF07A
:1005E00000050AE050EA010208BF704730B511F07B
:1005F000004502D5404261EB41014FF4806404F1B3
:1006000032045FEA915C3FF4D8AE4FF003025FEA38
:10061000DC0C18BF03325FEADC0C18BF033202EBBC
:10062000DC02C2F1200300FA03FC20FA02F001FA16
:1006300003FE40EA0E0021FA02F11444BDE600BFB9
:1006400070B54FF0FF0C4CF4E06C1CEA11541DBF68
:100650001CEA135594EA0C0F95EA0C0F00F0DEF833
:100660002C4481EA030621EA4C5123EA4C5350EA18
:10067000013518BF52EA033541F4801143F4801369
:1006800038D0A0FB02CE4FF00005E1FB02E506F0FA
:100690000042E0FB03E54FF00006E1FB03569CF04F
:1006A000000F18BF4EF0010EA4F1FF04B6F5007F55
:1006B00064F5407404D25FEA4E0E6D4146EB0606C7
:1006C00042EAC62141EA55514FEAC52040EA5E5050
:1006D0004FEACE2EB4F1FD0C88BFBCF5E06F1ED8FA
:1006E000BEF1004F08BF5FEA500E50F1000041EB31
:1006F000045170BD06F0004646EA010140EA0200DE
:1007000081EA0301B4EB5C04C2BFD4EB0C0541EAFF
:10071000045170BD41F480114FF0000E013C00F314
:10072000AB8014F1360FDEBF002001F0004170BD38
:10073000C4F10004203C35DA0C341BDC04F1140451
:10074000C4F1200500FA05F320FA04F001FA05F2DD
:1007500040EA020001F0004221F0004110EBD370AA
:1007600021FA04F642EB06015EEA430E08BF20EAD6
:10077000D37070BDC4F10C04C4F1200500FA04F379
:1007800020FA05F001FA04F240EA020001F000410B
:1007900010EBD37041F100015EEA430E08BF20EA7E
:1007A000D37070BDC4F1200500FA05F24EEA020EC6
:1007B00020FA04F301FA05F243EA020321FA04F0F5
:1007C00001F0004121FA04F220EA020000EBD370AC
:1007D0005EEA430E08BF20EAD37070BD94F0000FAC
:1007E0000FD101F00046400041EB010111F4801FE0
:1007F00008BF013CF7D041EA060195F0000F18BF91
:10080000704703F00046520043EB030313F4801FCC
:1008100008BF013DF7D043EA0603704794EA0C0F86
:100820000CEA135518BF95EA0C0F0CD050EA41069C
:1008300018BF52EA4306D1D181EA030101F0004119
:100840004FF0000070BD50EA410606BF1046194641
:1008500052EA430619D094EA0C0F02D150EA01364D
:1008600013D195EA0C0F05D152EA03361CBF10468E
:1008700019460AD181EA030101F0004141F0FE412D
:1008800041F470014FF0000070BD41F0FE4141F4B1
:10089000780170BD70B54FF0FF0C4CF4E06C1CEAB1
:1008A00011541DBF1CEA135594EA0C0F95EA0C0F66
:1008B00000F0A7F8A4EB050481EA030E52EA033521
:1008C0004FEA013100F088804FEA03334FF0805542
:1008D00045EA131343EA12634FEA022245EA11156F
:1008E00045EA10654FEA00260EF000419D4208BF20
:1008F000964244F1FD0404F5407402D25B084FEACD
:100900003202B61A65EB03055B084FEA32024FF478
:1009100080104FF4002CB6EB020E75EB030E22BFD5
:10092000B61A754640EA0C005B084FEA3202B6EB95
:10093000020E75EB030E22BFB61A754640EA5C0044
:100940005B084FEA3202B6EB020E75EB030E22BFD4
:10095000B61A754640EA9C005B084FEA3202B6EBD5
:10096000020E75EB030E22BFB61A754640EADC0094
:1009700055EA060E18D04FEA051545EA16754FEAF6
:1009800006164FEAC30343EA52734FEAC2025FEA14
:100990001C1CC0D111F4801F0BD141EA00014FF0A3
:1009A00000004FF0004CB6E711F4801F04BF014374
:1009B0000020B4F1FD0C88BFBCF5E06F3FF6AFAE90
:1009C000B5EB030C04BFB6EB020C5FEA500C50F120
:1009D000000041EB045170BD0EF0004E4EEA1131A3
:1009E00014EB5C04C2BFD4EB0C0541EA045170BDAA
:1009F00041F480114FF0000E013C90E645EA060EEE
:100A00008DE60CEA135594EA0C0F08BF95EA0C0F1B
:100A10003FF43BAF94EA0C0F0AD150EA01347FF463
:100A200034AF95EA0C0F7FF425AF104619462CE73A
:100A300095EA0C0F06D152EA03353FF4FDAE10469D
:100A4000194622E750EA410618BF52EA43067FF4EE
:100A5000C5AE50EA41047FF40DAF52EA43057FF47E
:100A6000EBAE12E74FF0FF3C06E000BF4FF0010C89
:100A700002E000BF4FF0010C4DF804CD4FEA410CED
:100A80007FEA6C5C4FEA430C18BF7FEA6C5C1BD0BA
:100A900001B050EA410C0CBF52EA430C91EA030F3B
:100AA00002BF90EA020F0020704710F1000F91EA98
:100AB000030F58BF994208BF90422CBFD8176FEA66
:100AC000E37040F0010070474FEA410C7FEA6C5C34
:100AD00002D150EA013C07D14FEA430C7FEA6C5C3B
:100AE000D6D152EA033CD3D05DF8040B704700BF67
:100AF0008446104662468C461946634600E000BFB5
:100B000001B5FFF7B7FF002848BF10F1000F01BD86
:100B10004DF808EDFFF7F4FF0CBF012000205DF851
:100B200008FB00BF4DF808EDFFF7EAFF34BF0120D6
:100B300000205DF808FB00BF4DF808EDFFF7E0FF6F
:100B400094BF012000205DF808FB00BF4DF808EDC0
:100B5000FFF7CEFF94BF012000205DF808FB00BF27
:100B60004DF808EDFFF7C4FF34BF012000205DF809
:100B700008FB00BF4FEA410C7FEA6C5C02D150EAEF
:100B8000013C0AD14FEA430C7FEA6C5C02D152EA85
:100B9000033C02D14FF0000070474FF00100704756
:100BA0004FEA410212F5001215D211D56FF4787395
:100BB000B3EB625212D94FEAC12343F0004343EA38
:100BC000505311F0004F23FA02F018BF4042704713
:100BD0004FF00000704750EA013005D111F000409D
:100BE00008BF6FF0004070474FF00000704700BF33
:100BF00080F0004002E000BF81F0004142001FBFD2
:100C00005FEA410392EA030F7FEA226C7FEA236CDA
:100C10006AD04FEA1262D2EB1363C1BFD2184140CF
:100C200048404140B8BF5B42192B88BF704710F065
:100C3000004F40F4000020F07F4018BF404211F008
:100C4000004F41F4000121F07F4118BF494292EA70
:100C5000030F3FD0A2F1010241FA03FC10EB0C009C
:100C6000C3F1200301FA03F100F0004302D5494229
:100C700060EB4000B0F5000F13D3B0F1807F06D3D6
:100C800040084FEA310102F10102FE2A51D2B1F1CE
:100C9000004F40EBC25008BF20F0010040EA0300C3
:100CA0007047490040EB0000013A28BFB0F5000F43
:100CB000EDD2B0FA80FCACF1080CB2EB0C0200FAF9
:100CC0000CF0AABF00EBC25052421843BCBFD04048
:100CD0001843704792F0000F81F4000106BF80F4C2
:100CE00000000132013BB5E74FEA41037FEA226C85
:100CF00018BF7FEA236C21D092EA030F04D092F050
:100D0000000F08BF0846704790EA010F1CBF002083
:100D1000704712F07F4F04D1400028BF40F00040E0
:100D2000704712F100723CBF00F50000704700F000
:100D3000004343F0FE4040F4000070477FEA226227
:100D400016BF08467FEA23630146420206BF5FEAF8
:100D5000412390EA010F40F4800070474FF00003F8
:100D600004E000BF10F0004348BF40425FEA000CBF
:100D700008BF704743F0964301464FF000001CE067
:100D800050EA010208BF70474FF000030AE000BFBD
:100D900050EA010208BF704711F0004302D54042FB
:100DA00061EB41015FEA010C02BF8446014600206D
:100DB00043F0B64308BFA3F18053A3F50003BCFA88
:100DC0008CF2083AA3EBC25310DB01FA02FC634435
:100DD00000FA02FCC2F12002BCF1004F20FA02F23C
:100DE00043EB020008BF20F00100704702F120022F
:100DF00001FA02FCC2F1200250EA4C0021FA02F290
:100E000043EB020008BF20EADC7070474FEA400263
:100E1000B2F1FE4F0FD34FF09E03B3EB12620DD928
:100E20004FEA002343F0004310F0004F23FA02F092
:100E300018BF404270474FF00000704712F1610F39
:100E400001D1420205D110F0004008BF6FF0004010
:100E500070474FF00000704780B582B000AF4FF090
:100E600000037B6000221021214802F06AFB32233C
:100E700002222049204803F033F8012210211C48A7
:100E800002F05FFB1B4B1B781B021A4A527813437C
:100E90009B1003F00103002B14BF01230023DAB2DF
:100EA000164B1A70154B1B7883F00103DBB2002B35
:100EB00013D0104B1B781B020E4A52781343DB10E1
:100EC0001846FFF74FFF03467B604FF07A51786872
:100ED000FFF746F903467B6001E0094B7B60FA208F
:100EE00002F062F87B6818460837BD4680BD00BF37
:100EF0000008014000020020B0020020FC01002098
:100F0000000080BF80B483B000AF0E4B9B690D4AD8
:100F100043F0200393610B4B9B6903F020037B603C
:100F20007B68084B9B69074A43F004039361054BB8
:100F30009B6903F004033B603B6800BF0C37BD4670
:100F400080BC70470010024080B588B000AF314BC4
:100F50009B69304A43F0200393612E4B9B6903F059
:100F60002003FB60FB682B4B9B692A4A43F0040378
:100F70009361284B9B6903F00403BB60BB68254B5E
:100F80009B69244A43F010039361224B9B6903F051
:100F900010037B607B6807F1100300221A605A601F
:100FA0009A60DA6001233B611B4B7B610123BB61CB
:100FB0000223FB6107F110031946184802F026F9D5
:100FC0000E233B6100237B610123BB610223FB6194
:100FD00007F110031946114802F018F94FF40053B5
:100FE0003B6101237B610023BB610223FB6107F1AD
:100FF000100319460A4802F009F9002200210620D0
:1010000002F0CDF8062002F0E6F800BF2037BD461A
:1010100080BD00BF001002400000311000080140F8
:101020000010014080B500AF01F0B4FF02460E4B46
:101030001B68D31A052B12D901210C4802F06AFA59
:101040000346002B03D10A4B00221A7002E0084B22
:1010500001221A7001F09EFF0346034A1360044BFD
:101060001B78DBB2184680BD040200200008014056
:101070000802002080B500AF01F08CFF02460E4B45
:101080001B68D31A052B12D908210C4802F042FA2A
:101090000346002B03D10A4B00221A7002E0084BD2
:1010A00001221A7001F076FF0346034A1360044BD5
:1010B0001B78DBB2184680BD0C02002000080140FE
:1010C0001002002080B500AF01F064FF02460E4B15
:1010D0001B68D31A052B12D902210C4802F01AFA08
:1010E0000346002B03D10A4B00221A7002E0084B82
:1010F00001221A7001F04EFF0346034A1360044BAD
:101100001B78DBB2184680BD1402002000080140A5
:101110001802002080B500AF012002F02BFA00BFBA
:1011200080BD000080B586B000AF134B9B69124AAA
:1011300043F008039361104B9B6903F008037B6045
:101140007B6807F1080300221A605A609A60DA602F
:1011500040F60343BB600023FB6001233B61032394
:101160007B6107F108031946044802F04FF800BFFD
:101170001837BD4680BD00BF00100240000C014082
:1011800080B500AF00F032F80346002B04D01348BE
:1011900004F052FD01231EE000F060F80346002B2E
:1011A00004D00F4804F048FD022314E000F090F84A
:1011B0000346002B04D00B4804F03EFD03230AE055
:1011C00000F0C0F80346002B04D0074804F034FDBB
:1011D000042300E00023184680BD00BF50810008B2
:1011E00064810008788100088C81000880B500AF18
:1011F00001F0D0FE0246164B1B68D31A052B23D9EB
:101200000221144802F086F90346002B14D1124B38
:101210001B78DBB2012B12D102210E4802F07AF9C1
:101220000346002B04D10C4B00221A7001230CE062
:10123000094B01221A7002E0074B01221A7001F0DB
:10124000A9FE0346024A13600023184680BD00BF72
:101250001C020020000C01402002002080B500AFDD
:1012600001F098FE0246174B1B68D31A052B25D9AF
:101270004FF40061144802F04DF90346002B15D1DC
:10128000124B1B78DBB2012B13D14FF400610E48D7
:1012900002F040F90346002B04D10C4B00221A70D7
:1012A00001230CE0094B01221A7002E0074B0122D6
:1012B0001A7001F06FFE0346024A136000231846BD
:1012C00080BD00BF24020020000C01402802002045
:1012D00080B500AF01F05EFE0246174B1B68D31AC3
:1012E000052B25D94FF48061144802F013F9034609
:1012F000002B15D1124B1B78DBB2012B13D14FF40D
:1013000080610E4802F006F90346002B04D10C4B15
:1013100000221A7001230CE0094B01221A7002E02E
:10132000074B01221A7001F035FE0346024A136092
:101330000023184680BD00BF2C020020000C014095
:101340003002002080B500AF01F024FE0246164BAB
:101350001B68D31A052B23D90121144802F0DAF8AF
:101360000346002B14D1124B1B78DBB2012B12D198
:1013700001210E4802F0CEF80346002B04D10C4B9D
:1013800000221A7001230CE0094B01221A7002E0BE
:10139000074B01221A7001F0FDFD0346024A13605B
:1013A0000023184680BD00BF34020020000C01401D
:1013B0003802002080B58AB000AF474B9B69464A8F
:1013C00043F001039361444B9B6903F00103FB600D
:1013D000FB68424B5B687B627B6A23F0E0637B6265
:1013E0007B6A43F080737B623C4A7B6A53603B4B71
:1013F0005B683B623B6A23F0E0633B623B6A43F01D
:1014000000733B62354A3B6A5360334B9B69324AF7
:1014100043F004039361304B9B6903F00403BB600A
:10142000BB682D4B9B692C4A43F0080393612A4B00
:101430009B6903F008037B607B6807F110030022BF
:101440001A605A609A60DA6000224FF400712448F2
:1014500002F077F800224FF48071214802F071F811
:101460004FF440733B6101237B610223BB61022384
:10147000FB6107F110031946194801F0C7FE00226D
:10148000F821174802F05DF8F8233B6101237B61E6
:101490000223BB610223FB6107F1100319461048C8
:1014A00001F0B4FE00224FF418410E4802F049F852
:1014B0004FF418433B6101237B610223BB6102238C
:1014C000FB6107F110031946064801F09FFE00BFBB
:1014D0002837BD4680BD00BF00100240000001401B
:1014E000000C01400008014080B483B000AF034607
:1014F000FB71FB79002B03D0054B00221A7002E030
:10150000034B10221A7000BF0C37BD4680BC7047D9
:101510003902002080B582B000AF0346FB710B4654
:10152000BB7113467B71BB79012B06D9304B1B78FD
:1015300043F00803DAB22E4B1A702E4ABB791370AF
:101540002D4B00221A707B79002B09D0BB79012B1F
:1015500006D1274B1B7843F00403DAB2244B1A70F0
:101560004FF47A7001F020FD00224FF440712348BF
:1015700001F0E7FF1E4B1B7843F02003DBB2184657
:1015800000F002F90A2001F00FFD194B1B7843F01F
:101590002003DBB2184600F0F7F8012001F004FD4B
:1015A000134B1B7843F02003DBB2184600F0ECF835
:1015B0000F4B1B7843F02003DBB2184600F0E4F831
:1015C0000F4B04221A70012000F028F800F0F2F806
:1015D0000C4B02221A700B4B1B7843F00403DBB256
:1015E000184600F0D1F800BF0837BD4680BD00BFE7
:1015F000390200203C0200203D020020000C014086
:101600003A0200203B02002080B500AF022000F02B
:10161000BBF8022001F0C8FC00BF80BD80B582B0DD
:1016200000AF0346FB71FB79002B0FD0114B1B78E9
:1016300043F00403DAB20F4B1A700E4B1B7843F0E1
:101640000803DBB2184600F09FF80EE0094B1B7848
:1016500023F00403DAB2074B1A70064B1B7843F0F1
:101660000803DBB2184600F08FF800BF0837BD460C
:1016700080BD00BF3A02002080B500AF00224FF4C9
:1016800080710D4801F05DFF012001F08DFC012209
:101690004FF48071084801F054FF012001F084FCF0
:1016A00000224FF48071044801F04BFF012001F04B
:1016B0007BFC00BF80BD00BF000C014080B582B044
:1016C00000AF0346FB71FB79DB09DBB21A464FF42E
:1016D00000612B4801F035FFFB799B09DBB203F079
:1016E0000103DBB21A464FF48051254801F029FF6F
:1016F000FB795B09DBB203F00103DBB21A464FF45E
:1017000000411F4801F01DFFFB791B09DBB203F00C
:101710000103DBB21A4608211A4801F012FFFB79D7
:10172000DB08DBB203F00103DBB21A4610211548D7
:1017300001F007FFFB799B08DBB203F00103DBB28A
:101740001A4620210F4801F0FCFEFB795B08DBB252
:1017500003F00103DBB21A4640210A4801F0F1FE12
:10176000FB7903F00103DBB21A468021054801F042
:10177000E8FEFFF781FF00BF0837BD4680BD00BF10
:1017800000080140000C014080B582B000AF034664
:10179000FB7100224FF40071054801F0D2FEFB7985
:1017A0001846FFF78BFF00BF0837BD4680BD00BF5E
:1017B000000C014080B500AF0120FFF7E5FF0220DB
:1017C00001F0F2FB00BF80BD80B582B000AF0346E0
:1017D000FB7101224FF40071054801F0B2FEFB7964
:1017E0001846FFF76BFF00BF0837BD4680BD00BF3E
:1017F000000C014080B582B000AF78607B681B7838
:101800001846FFF7E1FF7B6801337B607B681B783C
:10181000002BF3D100BF00BF0837BD4680BD0000DC
:1018200090B587B000AF03460A46FB711346BB7103
:10183000114B07F108040FCB84E80F000F4B1B7806
:10184000BA799A4203D90D4B1B78013BBB71BB7926
:101850009B0018333B4453F8103CDAB2FB79134435
:10186000DBB263F07F03DBB21846FFF78DFF00BFEA
:101870001C37BD4690BD00BF9C8100083C02002083
:1018800080B500AF154B1B78072B25D801A252F865
:1018900023F000BFB5180008BB180008BB180008EB
:1018A000BB180008C1180008C7180008CD180008A8
:1018B000D318000800F014F80EE000F0EBF80BE08D
:1018C00000F0BEF808E000F03DF805E000F08EF80A
:1018D00002E000F061F800BF00BF80BDA902002057
:1018E00080B500AF124B1A78124B1B789A4206D083
:1018F000FFF760FF0F4B1A780D4B1A7001E0FFF7EE
:1019000083FE00210620FFF78BFF0B48FFF772FFD5
:1019100002210320FFF784FF0848FFF76BFF032134
:101920000320FFF77DFF0648FFF764FF00BF80BD7F
:10193000AA020020A9020020AC810008B88100089A
:10194000C881000880B500AF0F4B1A780F4B1B7889
:101950009A4206D0FFF72EFF0C4B1A780A4B1A70EA
:1019600001E0FFF751FE01210620FFF759FF08486B
:10197000FFF740FF02210620FFF752FF0548FFF75F
:1019800039FF00BF80BD00BFAA020020A9020020CD
:10199000D8810008E081000880B500AF0F4B1A78AD
:1019A0000F4B1B789A4206D0FFF704FF0C4B1A78B6
:1019B0000A4B1A7001E0FFF727FE01210520FFF70F
:1019C0002FFF0848FFF716FF02210520FFF728FF29
:1019D0000548FFF70FFF00BF80BD00BFAA0200202F
:1019E000A9020020E8810008F081000880B500AF5E
:1019F0000F4B1A780F4B1B789A4206D0FFF7DAFE8E
:101A00000C4B1A780A4B1A7001E0FFF7FDFD00211C
:101A10000520FFF705FF0848FFF7ECFE0221022032
:101A2000FFF7FEFE0548FFF7E5FE00BF80BD00BFE3
:101A3000AA020020A9020020F88100080082000804
:101A400080B500AF0F4B1A780F4B1B789A4206D027
:101A5000FFF7B0FE0C4B1A780A4B1A7001E0FFF743
:101A6000D3FD00210420FFF7DBFE0848FFF7C2FE8C
:101A700002210020FFF7D4FE0548FFF7BBFE00BFA0
:101A800080BD00BFAA020020A90200200482000835
:101A90000C82000880B582B000AF564B1A78564BC6
:101AA0001B789A4206D0FFF785FE534B1A78514BAC
:101AB0001A7001E0FFF7A8FD504B5A88504BA3FB6A
:101AC000021359090B461B015B1A9B00D31A9AB2E9
:101AD0004C4B1A80494B5B88494AA2FB03235B09A4
:101AE0009AB2494B1A80484B1B881A46454B1B88B3
:101AF0004649474804F0A8F800210020FFF790FE6F
:101B00004348FFF777FE3D4B9A883D4BA3FB0213FA
:101B100059090B461B015B1A9B00D31A9AB2394B29
:101B20001A80364B9B88364AA2FB03235B099AB284
:101B3000354B1A80344B1B881A46324B1B8835496B
:101B4000334804F081F800210920FFF769FE30488E
:101B5000FFF750FE294B5B78012B04D12E492C480E
:101B600004F072F810E0254B5B78022B04D12B496E
:101B7000274804F069F807E0204B5B78032B03D17A
:101B80002749234804F060F801210220FFF748FEAE
:101B90001F48FFF72FFE194B9B791A4621491C4815
:101BA00004F052F802210020FFF73AFE1848FFF730
:101BB00021FEFFF751F903461846FFF727F90346C0
:101BC0007B607B68B3F1FF3F04D11749104804F0F4
:101BD0003BF804E07A6815490D4804F035F8032114
:101BE0000020FFF71DFE0A48FFF704FE00BF08377C
:101BF000BD4680BDAA020020A90200209402002058
:101C000089888888900200209202002018820008AB
:101C10004002002024820008308200083C82000834
:101C20004C820008588200086C8200087C82000800
:101C300080B483B000AF0346FB7197F90730002BE7
:101C40000BDBFB7903F01F02064997F907305B09AC
:101C5000012000FA02F241F8232000BF0C37BD46F4
:101C600080BC704700E100E080B483B000AF034661
:101C7000FB7197F90730002B12DBFB7903F01F0291
:101C80000A4997F907305B09012000FA02F2203374
:101C900041F82320BFF34F8F00BFBFF36F8F00BF0A
:101CA00000BF0C37BD4680BC704700BF00E100E0BC
:101CB00080B582B000AF7860391D0A230122044844
:101CC00003F037F97B6818460837BD4680BD00BF72
:101CD0005403002080B500AF01F004F900F0E6FCE9
:101CE000FFF710F901F062F800F06EFEFFF72CF933
:101CF00000F0EAFDFFF716FA00F0F6FFFFF75AFBD7
:101D00000020FFF7F1FB002204211020FFF702FC66
:101D1000A44803F091FFA44B00221A70A24B0022AA
:101D20005A70A14B28229A710121A04801F0F2FBC0
:101D30000346012B08D19E4B01221A709D4B0522B0
:101D40001A709D4B01221A70FFF79AFDFFF76AF98E
:101D50000346002B09D0964B1B78002B05D1974BDF
:101D600001221A70924B01221A70944B1B78002B9F
:101D700000F08F8001218D4801F0CCFB03461A460C
:101D80008F4B1A708E4B1B78DBB2012B3DD1884BE9
:101D900001221A708B4B01221A70864B05221A7091
:101DA000854B01221A70804B03221A7000224FF4D7
:101DB0000051854801F0C5FB00224FF480717B483B
:101DC00001F0BFFB00224FF40051804801F0B9FB45
:101DD00000224FF480417D4801F0B3FB00224FF414
:101DE00000417A4801F0ADFB6F4B1B78022B4DD1BF
:101DF000744B01221A706C4B0022DA716A4B00227C
:101E00001A70694B00225A7040E0714B1B78002B0E
:101E100033D1654B5B78032B32D801A252F823F003
:101E2000311E00083F1E0008531E0008671E0008F0
:101E3000604B00221A705C4B00221A7020E05D4B50
:101E400001221A70584B01221A70624B01221A703B
:101E500016E0584B02221A70534B01221A705D4B48
:101E600001221A700CE0534B03221A704E4B0122D0
:101E70001A70584B01221A7002E04E4B06221A705B
:101E80004D4B01221A704A4B00221A704B4B002214
:101E90001A70474B1B78002B6FD14D4B1B78002BD2
:101EA0006BD1414B1B78022B67D0FFF7E3F8034659
:101EB000002B2DD0484B01221A70424B01221A7080
:101EC0003C4B07221A703C4B01221A70364B0322FE
:101ED0001A7000224FF400513B4801F032FB0022FF
:101EE0004FF48071314801F02CFB00224FF4005177
:101EF000364801F026FB00224FF48041334801F0C0
:101F000020FB00224FF40041304801F01AFB34E07E
:101F1000254B5B78032B27D801A252F823F000BF92
:101F2000311F00083F1F00084D1F00085B1F0008FD
:101F3000204B00221A701C4B00221A7014E01D4B1B
:101F400001221A70184B01221A700DE0194B02225F
:101F50001A70154B01221A7006E0164B03221A70F4
:101F6000114B01221A7000BF1A4B01221A70124B3A
:101F700001221A70184B00221A700F4B1B78002B8D
:101F800004D0FFF77DFC0C4B00221A700D4B1B7820
:101F9000002B25D0114802F0F9FB0A4B00221A70E1
:101FA0002CE000BF8C820008940200200008014051
:101FB0009E020020A9020020AB0200209F02002008
:101FC000AC020020A102002000100140000C0140E2
:101FD000A4020020A2020020A00200200C03002086
:101FE000964B1B78002B09D0954B1B78012B05D104
:101FF000944802F079FB914B00221A70924B1B78A7
:10200000002B40F0A381914B1B78002B40F09E8168
:102010008F4B1B78002B40F0998101224FF4005127
:102020008C4801F08EFA864B1B78012B40F0BD8066
:10203000FFF7A6F803461A46874B1A70864B1B78A3
:10204000013B032B00F2AD8001A252F823F000BF48
:1020500061200008A9200008CF200008772100088F
:102060007E4B01221A70764B1B7A002B02D0012B7B
:102070000BD096E0724B5B883C2B11D9704B5B8880
:102080003C3B9AB26E4B5A800AE06D4B9B883C2BCE
:1020900008D96B4B9B883C3B9AB2694B9A8001E014
:1020A00000BF7EE000BF7CE06C4B01221A70644BE5
:1020B00000221A70624B00225A70694B00221A707B
:1020C000664B01221A70674B01221A7069E0634B5C
:1020D00001221A705A4B1B7A002B02D0012B37D0E9
:1020E0005FE0574B5B88B3F5E16F0AD2544B5B78E6
:1020F000012B06D1524B5B883C339AB2504B5A802D
:102100001FE04F4B5B88B3F5166F0AD24C4B5B78E0
:10211000022B06D14A4B5B883C339AB2484B5A801B
:102120000FE0474B5B8840F6B732934209D8444BE7
:102130005B78032B05D1424B5B883C339AB2404B12
:102140005A803F4B5B881946474803F0EFFC11E08B
:102150003B4B9B88B3F5617F05D2394B9B883C3361
:102160009AB2374B9A80364B9B8819463F4803F00A
:10217000DDFC00BF15E0394B01221A70304B002204
:102180005A802F4B01221A722D4B5B881946364814
:1021900003F0CCFC2A4B9B881946344803F0C6FC5C
:1021A00000BF2D4B00221A70D0E0254B1B78002B6E
:1021B00040F0CC80FEF7E4FF03461A46264B1A7027
:1021C000254B1B78032B00F08D80032B00F3BA8086
:1021D000012B02D0022B55D0B4E0194B01225A70CA
:1021E000174B01221A70164B4FF416725A80144B7B
:1021F0004FF496729A80124B1E22DA71104B2822ED
:102200009A710F4B00221A72194B1E221A70194B29
:1022100000221A70184B00221A70084B01221A7003
:102220000F4B01221A700D4B01221A700A230C2247
:102230001249134802F07DFE85E000BFA202002093
:10224000940200200C0300209E020020A002002027
:10225000A402002000100140A3020020AB020020D5
:10226000A9020020A102002094820008A482000894
:1022700002000020A5020020A6020020B48200086F
:1022800054030020AA4B02225A70A94B01221A7053
:10229000A74B4FF496625A80A54B4FF496729A80E2
:1022A000A34B1E22DA71A24B46229A71A04B002248
:1022B0001A72A04B1E221A709F4B00221A709F4B5D
:1022C00000221A709E4B01221A709E4B02221A7035
:1022D0009D4B01221A700A230C229C499C4802F053
:1022E00028FE30E0924B03225A70914B01221A7063
:1022F0008F4B4FF4E1625A808D4B4FF496729A8067
:102300008B4B1E22DA718A4B5A229A71884B00221B
:102310001A72884B1E221A70874B00221A70874B44
:1023200000221A70864B01221A70864B03221A7003
:10233000854B01221A700A230D228649844802F037
:10234000F8FD00E000BF844B00221A70834B1B781D
:10235000002B3DD1824B1B78002B39D1814B1B7850
:10236000002B35D1724B1B78012B54D17E4B1B783F
:10237000002B50D17C4B1E221A707C4B01221A700C
:102380006B4B00221A706A4B00225A706D4B06226A
:102390001A7000224FF48071754801F0D2F80022C3
:1023A0004FF40051734801F0CCF800224FF4804103
:1023B000704801F0C6F800224FF400416D4801F06A
:1023C000C0F8684B01221A705F4B01221A7022E09C
:1023D000624B1B78002B1FD1614B1B78002B1BD14C
:1023E000604B1B78002B17D0FEF7CAFE03461A4637
:1023F000594B1A70584B1B78022B0DD1514B0022B0
:102400001A70594B1E221A704F4B01221A70554BED
:1024100000221A7000E000BF504B1B78002B40F0E8
:102420002E814F4B1B78002B40F029814D4B1B78A0
:10243000002B40F024813E4B1B78012B40F0D180D3
:1024400001224FF480714A4801F07BF84A4B1B7817
:10245000002B20D0364B5B881946484803F066FBBA
:10246000334B9B881946464803F060FB314B1B7881
:102470001946444803F05AFB304B1B781946424832
:1024800003F054FB2C4B1B781946404803F04EFBDD
:10249000394B00221A70294B1B78002B34D00022B4
:1024A0004FF40051334801F04CF800224FF48041C2
:1024B000304801F046F8214B1B78012B7FD80421CE
:1024C0002B4801F027F803461A46314B1A70304B5F
:1024D0001B78002B06D0174B1E221A70164B0022B9
:1024E0001A706CE02B4B1B78002B06D0114B00228E
:1024F0001A70114B1E221A7061E00E4B1E221A70C8
:102500000D4B00221A705AE00A4B1B78002B43D067
:1025100001224FF40051174801F013F800224FF444
:102520008041144801F00DF81A4B01221A7046E060
:102530009402002002000020A5020020A602002034
:10254000A2020020A9020020AB020020C0820008E5
:1025500054030020CC820008A30200209E02002029
:10256000A0020020A402002001000020A1020020FF
:1025700000080140000C014000000020DC8200083F
:10258000A4820008F082000800830008108300087D
:10259000A7020020A80200203B4B1B78002B0ED086
:1025A00000224FF40051394800F0CBFF01224FF4D4
:1025B0008041364800F0C5FF354B00221A70354B7C
:1025C0001B7A002B06D101224FF400412F4800F066
:1025D000B8FF54E000224FF400412C4800F0B1FF56
:1025E0004DE02C4B1B78022B31D12A4BDB79002B91
:1025F00014D100224FF40051274800F0A2FF274BCE
:1026000000221A70264B01221A70264B01221A70E2
:10261000204B00221A701F4B00225A7000224FF4E8
:102620008071214800F08DFF00224FF400511748BF
:1026300000F087FF00224FF48041144800F081FF32
:1026400000224FF40041114800F07BFF17E0002208
:102650004FF48071144800F074FF00224FF40051D1
:102660000A4800F06EFF00224FF48041074800F056
:1026700068FF00224FF40041044800F062FF084B5D
:1026800001221A70FFF762BBA5020020000C014076
:10269000A80200209402002000100140A90200209E
:1026A000AB020020A10200200008014080B590B0DC
:1026B00000AF07F1180328220021184602F0CEFDD2
:1026C0003B1D00221A605A609A60DA601A61022388
:1026D000BB610123BB621023FB6200237B6307F114
:1026E0001803184600F05EFF0346002B01D000F0EF
:1026F000E5F80F237B600023BB600023FB60002311
:102700003B6100237B613B1D0021184601F0CCF9A1
:102710000346002B01D000F0D1F800BF4037BD4682
:1027200080BD000080B582B000AF0346FB80FB880F
:10273000012B0BD10620FFF797FA064B01221A70E6
:10274000054B01221A700620FFF772FA00BF083706
:10275000BD4680BD9E0200209F02002080B582B051
:1027600000AF78600A2308224849494802F0E1FB9B
:10277000484B5B88002B06D0464B5B88013B9AB2E6
:10278000444B5A8014E0434B9B88002B06D0414BAE
:102790009B88013B9AB23F4B9A8009E03D4B1B78E6
:1027A000022B05D13B4BDB79013BDAB2394BDA71B5
:1027B000384B5B88002B07D1364B1B7A002B03D19B
:1027C000344B01221A7213E0324B9B88002B0FD13D
:1027D000304B1B7A012B0BD12F4803F02DFA2D4BD8
:1027E00002221A702B4B00225A702C4B04221A70B2
:1027F0002B4B1B78002B06D0294B1B78013BDAB200
:10280000274B1A7022E0274B1B78002B0DD0254B4D
:102810001B78013BDAB2234B1A70224B1B78002B3A
:1028200014D11F4B03221A7010E01F4B1B78002B92
:102830000CD01D4B1B78013BDAB21B4B1A701A4BA4
:102840001B78002B02D1164B03221A70FEF73AFCBC
:102850000346002B0AD0154B1B78002B0CD0134BD2
:102860001B78013BDAB2114B1A7005E00F4B1E22A8
:102870001A700F4B00221A700E4B01221A700E4B69
:1028800001221A7000BF0837BD4680BD24830008AE
:1028900054030020940200202C830008A902002089
:1028A000A602002002000020A50200200100002056
:1028B000A402002000000020AB02002080B400AF82
:1028C00072B600BFFEE7000080B586B000AF3A4B9D
:1028D0009B69394A43F008039361374B9B6903F0C6
:1028E00008037B607B68344B9B69334A43F01003D9
:1028F0009361314B9B6903F010033B603B6807F128
:10290000080300221A605A609A60DA6000224FF4CD
:1029100060412A4800F015FE4FF46043BB6001237C
:10292000FB6002233B6102237B6107F10803194628
:10293000224800F06BFC00224FF48071204800F028
:1029400000FE4FF48073BB600123FB6002233B61F8
:1029500002237B6107F108031946194800F056FC71
:1029600000224FF40041174800F0EBFD4FF4004304
:10297000BB600123FB6002233B6102237B6107F103
:10298000080319460F4800F041FC012210210C48B1
:1029900000F0D7FD1023BB600123FB6001233B61E6
:1029A00003237B6107F108031946054800F02EFC5C
:1029B00000BF1837BD4680BD00100240000C01402A
:1029C000000801400010014080B500AF174B184AC5
:1029D0001A60164B4FF482725A60144B00229A60B0
:1029E000124B0022DA60114B00221A610F4B0022B9
:1029F0005A610E4B4FF400729A610C4B2822DA6137
:102A00000A4B00221A62094B00225A62074B00222D
:102A10009A62064B0A22DA62044801F0DDF90346A5
:102A2000002B01D0FFF74AFF00BF80BDB00200209D
:102A30000030014080B588B000AF786007F1100326
:102A400000221A605A609A60DA607B681B681B4A31
:102A500093422FD11A4B9B69194A43F480539361D7
:102A6000174B9B6903F48053FB60FB68144B9B6915
:102A7000134A43F004039361114B9B6903F0040371
:102A8000BB60BB68A0233B6102237B610323FB6126
:102A900007F1100319460B4800F0B8FB40233B61D7
:102AA00000237B610023BB6107F110031946054831
:102AB00000F0ACFB00BF2037BD4680BD00300140B8
:102AC000001002400008014080B483B000AF0E4BFC
:102AD0009B690D4A43F0010393610B4B9B6903F023
:102AE00001037B607B68084BDB69074A43F0805336
:102AF000D361054BDB6903F080533B603B6800BF4B
:102B00000C37BD4680BC70470010024080B400AF57
:102B1000FEE780B400AFFEE780B400AFFEE780B40C
:102B200000AFFEE780B400AFFEE780B400AF00BFA7
:102B3000BD4680BC704780B400AF00BFBD4680BCBE
:102B4000704780B400AF00BFBD4680BC704780B501
:102B500000AF00F00DFA00BF80BD80B400AF0123CC
:102B60001846BD4680BC704780B582B000AF786023
:102B7000396002F049FB034616221A604FF0FF331A
:102B800018460837BD4680BD80B582B000AF78607A
:102B90004FF0FF317868FFF7E7FFFEE780B586B0BA
:102BA00000AFF860B9607A6000237B610AE0AFF3A0
:102BB00000800146BB685A1CBA60CAB21A707B69B1
:102BC00001337B617A697B689A42F0DB7B68184647
:102BD0001837BD4680BD80B586B000AFF860B960DB
:102BE0007A6000237B6109E0BB685A1CBA601B78DD
:102BF0001846FFF75DF87B6901337B617A697B6872
:102C00009A42F1DB7B6818461837BD4680BD80B418
:102C100083B000AF78604FF0FF3318460C37BD46E5
:102C200080BC704780B483B000AF786039603B6887
:102C30004FF400525A60002318460C37BD4680BC42
:102C4000704780B483B000AF7860012318460C371A
:102C5000BD4680BC704780B485B000AFF860B960F5
:102C60007A60002318461437BD4680BC70470000C8
:102C700080B586B000AF7860144A154BD31A7B61DB
:102C80007B693B61134B1B68002B02D1114B124A2D
:102C90001A60104B1A687B6813443A699A4207D24B
:102CA00002F0B2FA03460C221A604FF0FF3309E03B
:102CB000084B1B68FB60074B1A687B681344054A86
:102CC0001360FB6818461837BD4680BD00500020D1
:102CD0000004000008030020B003002080B400AF0F
:102CE00000BFBD4680BC704780B588B000AF274BA1
:102CF000DB69264A43F00403D361244BDB6903F00C
:102D000004037B607B6807F1100300221A605A609D
:102D10009A60DA6007F1080300221A605A601C4BBF
:102D20001C4A1A601A4B4FF4E1525A60184B0022A9
:102D30009A60174B40F25742DA60154B00221A6135
:102D4000134B80229A61124801F076FC4FF48053B5
:102D50003B6107F1100319460D4801F04DFE0023B9
:102D6000BB600023FB6007F108031946084802F026
:102D700023F8002201211E2000F011FA1E2000F08D
:102D80002AFA00BF2037BD4680BD00BF00100240B8
:102D90000C0300200008004080B500AF024801F09D
:102DA00023FD00BF80BD00BF0C03002080B500AF35
:102DB000114B124A1A60104B4FF4E1325A600E4B1D
:102DC00000229A600C4B0022DA600B4B00221A6141
:102DD000094B0C225A61084B00229A61064B0022D3
:102DE000DA61054802F058F80346002B01D0FFF7DE
:102DF00065FD00BF80BD00BF5403002000380140C6
:102E000080B588B000AF786007F1100300221A6027
:102E10005A609A60DA607B681B681C4A934231D121
:102E20001B4B9B691A4A43F480439361184B9B697F
:102E300003F48043FB60FB68154B9B69144A43F025
:102E400004039361124B9B6903F00403BB60BB68EE
:102E50004FF400733B6102237B610323FB6107F1A5
:102E6000100319460B4800F0D1F94FF480633B6121
:102E700000237B610023BB6107F11003194605485D
:102E800000F0C4F900BF2037BD4680BD00380140C6
:102E900000100240000801400C480D490D4A002373
:102EA00002E0D458C4500433C4188C42F9D30A4AFF
:102EB0000A4C002301E013600432A242FBD3FFF767
:102EC0000DFF02F0A7F9FEF705FF70470000002094
:102ED000E001002044870008E0010020AC0300204E
:102EE000FEE7000080B500AF084B1B68074A43F0BF
:102EF00010031360032000F047F90F2000F008F8DA
:102F0000FFF7E2FD0023184680BD00BF002002400D
:102F100080B582B000AF7860124B1A68124B1B78F4
:102F200019464FF47A73B3FBF1F3B2FBF3F318468F
:102F300000F05FF90346002B01D001230EE07B680F
:102F40000F2B0AD8002279684FF0FF3000F027F9E4
:102F5000064A7B681360002300E001231846083707
:102F6000BD4680BD040000200C00002008000020A9
:102F700080B400AF054B1B781A46054B1B68134401
:102F8000034A136000BFBD4680BC70470C000020A0
:102F90009803002080B400AF024B1B681846BD4662
:102FA00080BC70479803002080B584B000AF786083
:102FB000FFF7F0FFB8607B68FB60FB68B3F1FF3F91
:102FC00005D00A4B1B781A46FB681344FB6000BF10
:102FD000FFF7E0FF0246BB68D31AFA689A42F7D8B7
:102FE00000BF00BF1037BD4680BD00BF0C000020F1
:102FF00080B485B000AF78607B6803F00703FB60A6
:103000000C4BDB68BB60BA684FF6FF031340BB6034
:10301000FB681A02BB68134343F0BF6343F40033F9
:10302000BB60044ABB68D36000BF1437BD4680BC98
:10303000704700BF00ED00E080B400AF044BDB68D8
:103040001B0A03F007031846BD4680BC704700BF4B
:1030500000ED00E080B483B000AF0346FB7197F948
:103060000730002B0BDBFB7903F01F02064997F9B1
:1030700007305B09012000FA02F241F8232000BF6B
:103080000C37BD4680BC704700E100E080B483B0DF
:1030900000AF03463960FB7197F90730002B0ADB5C
:1030A0003B68DAB20C4997F907301201D2B20B44EF
:1030B00083F800230AE03B68DAB20849FB7903F0A1
:1030C0000F03043B1201D2B20B441A7600BF0C3737
:1030D000BD4680BC704700BF00E100E000ED00E0AD
:1030E00080B489B000AFF860B9607A60FB6803F023
:1030F0000703FB61FB69C3F10703042B28BF04230B
:10310000BB61FB690433062B02D9FB69033B00E07A
:1031100000237B614FF0FF32BB6902FA03F3DA430D
:10312000BB681A407B699A404FF0FF317B6901FA16
:1031300003F3D9437B680B40134318462437BD463D
:1031400080BC704780B582B000AF78607B68013B7F
:10315000B3F1807F01D301230FE00A4A7B68013B72
:1031600053600F214FF0FF30FFF790FF054B002217
:103170009A60044B07221A60002318460837BD46A0
:1031800080BD00BF10E000E080B582B000AF786085
:103190007868FFF72DFF00BF0837BD4680BD80B5BA
:1031A00086B000AF0346B9607A60FB7300237B6191
:1031B000FFF742FF78617A68B9687869FFF790FF96
:1031C000024697F90F3011461846FFF75FFF00BF20
:1031D0001837BD4680BD80B582B000AF0346FB7195
:1031E00097F907301846FFF735FF00BF0837BD468F
:1031F00080BD80B582B000AF78607868FFF7A2FF2D
:10320000034618460837BD4680BD000080B48BB029
:1032100000AF7860396000237B6200233B6269E184
:1032200001227B6A02FA03F3FB613B681B68FA69BF
:103230001340BB61BA69FB699A4240F058813B6810
:103240005B689A4A93425ED0984A934275D8984AEE
:10325000934258D0964A93426FD8964A934252D09E
:10326000944A934269D8944A93424CD0924A9342EA
:1032700063D8924A934246D0904A93425DD8122B2B
:103280002AD8122B59D801A252F823F0073300088C
:10329000E1320008F3320008353300083B33000800
:1032A0003B3300083B3300083B3300083B33000846
:1032B0003B3300083B3300083B3300083B33000836
:1032C0003B3300083B3300083B3300083B33000826
:1032D000E9320008FD320008794A934213D02CE00D
:1032E0003B68DB683B6229E03B68DB6804333B6298
:1032F00024E03B68DB6808333B621FE03B68DB6827
:103300000C333B621AE03B689B68002B02D104231C
:103310003B6213E03B689B68012B05D108233B62AD
:103320007B68FA691A6109E008233B627B68FA69E5
:103330005A6103E000233B6200E000BFBB69FF2B42
:1033400001D87B6801E07B6804337B61BB69FF2B9C
:1033500002D87B6A9B0002E07B6A083B9B003B61D2
:103360007B691A680F213B6901FA03F3DB431A40BA
:10337000396A3B6901FA03F31A437B691A603B68B7
:103380005B6803F08053002B00F0B1804D4B9B69CC
:103390004C4A43F0010393614A4B9B6903F00103DC
:1033A000BB60BB68484A7B6A9B08023352F82330F3
:1033B000FB607B6A03F003039B000F2202FA03F316
:1033C000DB43FA681340FB607B68404A934213D0AA
:1033D0007B683F4A93420DD07B683E4A934207D0B8
:1033E0007B683D4A934201D1032306E0042304E0B5
:1033F000022302E0012300E000237A6A02F00302C4
:1034000092009340FA681343FB602F497B6A9B0844
:103410000233FA6841F823203B685B6803F4803389
:10342000002B06D02D4B1A682C49BB6913430B6047
:1034300006E02A4B1A68BB69DB43284913400B603E
:103440003B685B6803F40033002B06D0234B5A68BB
:103450002249BB6913434B6006E0204B5A68BB69A5
:10346000DB431E4913404B603B685B6803F48013E9
:10347000002B06D0194B9A681849BB6913438B601F
:1034800006E0164B9A68BB69DB43144913408B6016
:103490003B685B6803F40013002B21D00F4BDA6804
:1034A0000E49BB691343CB6021E000BF000032101E
:1034B0000000311000002210000021100000121046
:1034C00000001110001002400000014000080140FF
:1034D000000C0140001001400014014000040140B4
:1034E0000B4BDA68BB69DB4309491340CB607B6A4D
:1034F00001337B623B681A687B6A22FA03F3002B74
:103500007FF48EAE00BF00BF2C37BD4680BC704735
:103510000004014080B485B000AF78600B467B802A
:103520007B689A687B881340002B02D00123FB73D1
:1035300001E00023FB73FB7B18461437BD4680BCBB
:10354000704780B483B000AF78600B467B80134631
:103550007B707B78002B03D07A887B681A6103E04C
:103560007B881A047B681A6100BF0C37BD4680BC9B
:103570007047000080B582B000AF0346FB80084B67
:103580005A69FB881340002B06D0054AFB8853611B
:10359000FB881846FFF7C6F800BF0837BD4680BD58
:1035A0000004014080B586B000AF78607B68002BD6
:1035B00001D1012372E27B681B6803F00103002B39
:1035C00000F08780924B5B6803F00C03042B0CD057
:1035D0008F4B5B6803F00C03082B12D18C4B5B689C
:1035E00003F48033B3F5803F0BD1894B1B6803F4A0
:1035F0000033002B6CD07B685B68002B68D1012303
:103600004CE27B685B68B3F5803F06D1804B1B685A
:103610007F4A43F4803313602EE07B685B68002BA5
:103620000CD17B4B1B687A4A23F480331360784BB0
:103630001B68774A23F4802313601DE07B685B6876
:10364000B3F5A02F0CD1724B1B68714A43F4802351
:1036500013606F4B1B686E4A43F4803313600BE0BA
:103660006B4B1B686A4A23F480331360684B1B68FA
:10367000674A23F4802313607B685B68002B13D0B8
:10368000FFF788FC386108E0FFF784FC02463B69DD
:10369000D31A642B01D9032300E25D4B1B6803F4AA
:1036A0000033002BF0D014E0FFF774FC386108E021
:1036B000FFF770FC02463B69D31A642B01D9032340
:1036C000ECE1534B1B6803F40033002BF0D100E016
:1036D00000BF7B681B6803F00203002B63D04C4BD8
:1036E0005B6803F00C03002B0BD0494B5B6803F0C5
:1036F0000C03082B1CD1464B5B6803F48033002B72
:1037000016D1434B1B6803F00203002B05D07B68E6
:103710001B69012B01D00123C0E13D4B1B6823F045
:10372000F8027B685B69DB00394913430B603AE0C0
:103730007B681B69002B20D0364B01221A60FFF7F3
:1037400029FC386108E0FFF725FC02463B69D31AE3
:10375000022B01D90323A1E12D4B1B6803F00203C7
:10376000002BF0D02A4B1B6823F0F8027B685B69C2
:10377000DB00274913430B6015E0264B00221A603B
:10378000FFF708FC386108E0FFF704FC02463B69DC
:10379000D31A022B01D9032380E11D4B1B6803F0D0
:1037A0000203002BF0D17B681B6803F00803002B99
:1037B0003AD07B689B69002B19D0174B01221A6005
:1037C000FFF7E8FB386108E0FFF7E4FB02463B69DE
:1037D000D31A022B01D9032360E10D4B5B6A03F07E
:1037E0000203002BF0D0012000F0D8FA1CE00A4BB5
:1037F00000221A60FFF7CEFB38610FE0FFF7CAFB2B
:1038000002463B69D31A022B08D9032346E100BFC5
:10381000001002400000424280044242924B5B6A28
:1038200003F00203002BE9D17B681B6803F004035B
:10383000002B00F0A6800023FB758B4BDB6903F0A7
:103840008053002B0DD1884BDB69874A43F08053AE
:10385000D361854BDB6903F08053BB60BB680123F8
:10386000FB75824B1B6803F48073002B18D17F4BD0
:103870001B687E4A43F480731360FFF78BFB38614B
:1038800008E0FFF787FB02463B69D31A642B01D996
:10389000032303E1754B1B6803F48073002BF0D006
:1038A0007B68DB68012B06D16F4B1B6A6E4A43F0C5
:1038B000010313622DE07B68DB68002B0CD16A4B9F
:1038C0001B6A694A23F001031362674B1B6A664A4D
:1038D00023F0040313621CE07B68DB68052B0CD12A
:1038E000614B1B6A604A43F0040313625E4B1B6A20
:1038F0005D4A43F0010313620BE05B4B1B6A5A4ABB
:1039000023F001031362584B1B6A574A23F0040348
:1039100013627B68DB68002B15D0FFF73BFB386137
:103920000AE0FFF737FB02463B69D31A41F28832BF
:10393000934201D90323B1E04B4B1B6A03F002030E
:10394000002BEED014E0FFF725FB38610AE0FFF70B
:1039500021FB02463B69D31A41F28832934201D9D6
:1039600003239BE0404B1B6A03F00203002BEED1C4
:10397000FB7D012B05D13C4BDB693B4A23F0805397
:10398000D3617B68DB69002B00F08780364B5B6876
:1039900003F00C03082B61D07B68DB69022B46D156
:1039A000334B00221A60FFF7F5FA386108E0FFF7A1
:1039B000F1FA02463B69D31A022B01D903236DE0C9
:1039C000294B1B6803F00073002BF0D17B681B6A46
:1039D000B3F5803F08D1244B5B6823F400327B6849
:1039E0009B68214913434B601F4B5B6823F474129F
:1039F0007B68196A7B685B6A0B431B4913434B6006
:103A00001B4B01221A60FFF7C5FA386108E0FFF787
:103A1000C1FA02463B69D31A022B01D903233DE0C8
:103A2000114B1B6803F00073002BF0D035E0104BF6
:103A300000221A60FFF7AEFA386108E0FFF7AAFA31
:103A400002463B69D31A022B01D9032326E0064B19
:103A50001B6803F00073002BF0D11EE07B68DB696C
:103A6000012B07D1012319E0001002400070004033
:103A7000600042420B4B5B68FB60FB6803F48032E2
:103A80007B681B6A9A4206D1FB6803F470127B685C
:103A90005B6A9A4201D0012300E0002318461837E0
:103AA000BD4680BD0010024080B584B000AF786094
:103AB00039607B68002B01D10123D0E06A4B1B6881
:103AC00003F007033A689A4210D9674B1B6823F04A
:103AD000070265493B6813430B60634B1B6803F0A7
:103AE00007033A689A4201D00123B8E07B681B685B
:103AF00003F00203002B20D07B681B6803F0040353
:103B0000002B05D0594B5B68584A43F4E06353607F
:103B10007B681B6803F00803002B05D0534B5B68E0
:103B2000524A43F460535360504B5B6823F0F002F9
:103B30007B689B684D4913434B607B681B6803F0AF
:103B40000103002B40D07B685B68012B07D1474BFA
:103B50001B6803F40033002B15D101237FE07B6841
:103B60005B68022B07D1414B1B6803F00073002BED
:103B700009D1012373E03D4B1B6803F00203002BC6
:103B800001D101236BE0394B5B6823F003027B68B2
:103B90005B68364913434B60FFF7FCF9F8600AE0B5
:103BA000FFF7F8F90246FB68D31A41F288329342D4
:103BB00001D9032353E02D4B5B6803F00C027B68B3
:103BC0005B689B009A42EBD1274B1B6803F007030D
:103BD0003A689A4210D2244B1B6823F0070222490C
:103BE0003B6813430B60204B1B6803F007033A68E4
:103BF0009A4201D0012332E07B681B6803F0040382
:103C0000002B08D0194B5B6823F4E0627B68DB680B
:103C1000164913434B607B681B6803F00803002BB5
:103C200009D0124B5B6823F460527B681B69DB0090
:103C30000E4913434B6000F021F802460B4B5B68C2
:103C40001B0903F00F030A49CB5C22FA03F3094A6C
:103C50001360094B1B681846FFF75AF900231846F2
:103C60001037BD4680BD00BF00200240001002405A
:103C700048830008040000200800002090B48AB0A7
:103C800000AF294B3C1D0FCB84E80F0040F201230D
:103C90003B800023FB610023BB6100237B62002388
:103CA0007B6100233B62214B5B68FB61FB6903F096
:103CB0000C03042B02D0082B03D02BE01C4B3B62DF
:103CC0002BE0FB699B0C03F00F0328333B4413F8F4
:103CD000243C7B61FB6903F48033002B12D0134B2F
:103CE0005B685B0C03F0010328333B4413F8283C6A
:103CF000BB617B690E4A03FB02F2BB69B2FBF3F3C3
:103D00007B6204E07B690B4A02FB03F37B627B6A04
:103D10003B6202E0064B3B6200BF3B6A1846283715
:103D2000BD4690BC704700BF3883000800100240B9
:103D300000127A0000093D0080B400AF024B1B68FE
:103D40001846BD4680BC70470400002080B500AF17
:103D5000FFF7F2FF0246054B5B681B0A03F00703FF
:103D60000349CB5C22FA03F3184680BD00100240E1
:103D70005883000880B500AFFFF7DEFF0246054B11
:103D80005B68DB0A03F007030349CB5C22FA03F309
:103D9000184680BD001002405883000880B485B0EA
:103DA00000AF78600A4B1B680A4AA2FB03235B0A38
:103DB0007A6802FB03F3FB6000BFFB685A1EFA60DF
:103DC000002BF9D100BF00BF1437BD4680BC70473F
:103DD00004000020D34D621080B582B000AF78603F
:103DE0007B68002B01D1012376E07B685B6A002BA6
:103DF00008D17B685B68B3F5827F09D07B680022BD
:103E0000DA6105E07B6800221A617B6800225A6152
:103E10007B6800229A627B6893F85130DBB2002BFA
:103E200006D17B68002283F850207868FEF702FEF6
:103E30007B68022283F851207B681B681A687B68C4
:103E40001B6822F040021A607B685B6803F4827290
:103E50007B689B6803F404431A437B68DB6803F4C4
:103E600000631A437B681B6903F002031A437B68F3
:103E70005B6903F001031A437B689B6903F40073D9
:103E80001A437B68DB6903F038031A437B681B6ABB
:103E900003F0800342EA03017B689B6A03F400524B
:103EA0007B681B680A431A607B689B691A0C7B68F5
:103EB0001B6802F004025A607B681B68DA697B6841
:103EC0001B6822F40062DA617B6800225A657B6815
:103ED000012283F85120002318460837BD4680BDD3
:103EE00080B588B002AFF860B9603B601346FB80D4
:103EF0000023FB75FB685B68B3F5827F12D1FB681A
:103F00009B68002B0ED1FB68042283F85120FA88AD
:103F10003B6800931346BA68B968F86800F0F1F896
:103F20000346EAE0FB6893F85030012B01D10223ED
:103F3000E3E0FB68012283F85020FFF72BF838619B
:103F4000FB6893F85130DBB2012B02D00223FB75E2
:103F5000CAE0BB68002B02D0FB88002B02D10123F2
:103F6000FB75C1E0FB68042283F85120FB68002246
:103F70005A65FB68BA689A63FB68FA889A87FB6897
:103F8000FA88DA87FB6800221A63FB6800229A86A7
:103F9000FB680022DA86FB6800221A64FB680022B4
:103FA0005A64FB689B68B3F5004F0FD1FB681B6830
:103FB0001A68FB681B6822F040021A60FB681B68E5
:103FC0001A68FB681B6822F480421A60FB681B6851
:103FD0001B6803F04003402B07D0FB681B681A687E
:103FE000FB681B6842F040021A60FB68DB68002B2C
:103FF00062D12EE0FB681B689B6803F00103012B74
:1040000015D1FB681B6803F10C02FB689B6B1278EF
:10401000D2B21A70FB689B6B5A1CFB689A63FB68F0
:10402000DB8F9BB2013B9AB2FB68DA8711E0FEF7A7
:10403000B1FF02463B69D31A3A689A4203D83B68FB
:10404000B3F1FF3F02D13B68002B02D10323FB7584
:104050004AE0FB68DB8F9BB2002BCBD131E0FB68E1
:104060001B689B6803F00103012B13D1FB681B68DD
:10407000DA68FB689B6B92B21A80FB689B6B9A1C98
:10408000FB689A63FB68DB8F9BB2013B9AB2FB68CB
:10409000DA8711E0FEF77EFF02463B69D31A3A68E1
:1040A0009A4203D83B68B3F1FF3F02D13B68002B33
:1040B00002D10323FB7517E0FB68DB8F9BB2002B5B
:1040C000CDD13A693968F86800F046FA0346002B0A
:1040D00002D0FB6820225A65FB685B6D002B02D082
:1040E0000123FB7500E000BFFB68012283F851202B
:1040F000FB68002283F85020FB7D18461837BD4628
:1041000080BD80B58CB000AFF860B9607A607B800C
:104110000123FB62002387F82B30FB6893F85030B3
:10412000012B01D102238AE1FB68012283F8502090
:10413000FEF730FF7862FB6893F8513087F8233040
:10414000FB685B68FB617B887B8397F82330012BDE
:104150000FD0FB69B3F5827F07D1FB689B68002B0A
:1041600003D197F82330042B03D0022387F82B3098
:104170005BE1BB68002B05D07B68002B02D07B88FD
:10418000002B03D1012387F82B304EE1FB6893F815
:104190005130DBB2042B03D0FB68052283F8512099
:1041A000FB6800225A65FB687A689A63FB687A8824
:1041B000DA87FB687A889A87FB68BA681A63FB68B3
:1041C0007A88DA86FB687A889A86FB6800221A6405
:1041D000FB6800225A64FB681B681B6803F04003FD
:1041E000402B07D0FB681B681A68FB681B6842F00D
:1041F00040021A60FB68DB68B3F5006F78D1FB689A
:104200005B68002B02D07B8B012B66D1FB681B6B9C
:104210001A88FB681B68DA60FB681B6B9A1CFB68DA
:104220001A63FB68DB8E9BB2013B9AB2FB68DA86AD
:1042300053E0FB681B689B6803F00203022B1BD151
:10424000FB68DB8E9BB2002B16D0FB6A012B13D1CF
:10425000FB681B6B1A88FB681B68DA60FB681B6BCA
:104260009A1CFB681A63FB68DB8E9BB2013B9AB217
:10427000FB68DA860023FB62FB681B689B6803F01F
:104280000103012B19D1FB68DB8F9BB2002B14D0EB
:10429000FB681B68DA68FB689B6B92B21A80FB684C
:1042A0009B6B9A1CFB689A63FB68DB8F9BB2013B9C
:1042B0009AB2FB68DA870123FB62FEF76BFE0246C7
:1042C0007B6AD31ABA6B9A4207D8BB6BB3F1FF3F34
:1042D00003D0032387F82B30A7E0FB68DB8E9BB26B
:1042E000002BA6D1FB68DB8F9BB2002BA1D17CE019
:1042F000FB685B68002B02D07B8B012B6BD1FB68CA
:104300001A6BFB681B680C3312781A70FB681B6B06
:104310005A1CFB681A63FB68DB8E9BB2013B9AB2A6
:10432000FB68DA8657E0FB681B689B6803F00203B2
:10433000022B1CD1FB68DB8E9BB2002B17D0FB6AD3
:10434000012B14D1FB681A6BFB681B680C331278C5
:104350001A70FB681B6B5A1CFB681A63FB68DB8EC8
:104360009BB2013B9AB2FB68DA860023FB62FB68D2
:104370001B689B6803F00103012B19D1FB68DB8FDD
:104380009BB2002B14D0FB681B68DA68FB689B6B40
:10439000D2B21A70FB689B6B5A1CFB689A63FB686D
:1043A000DB8F9BB2013B9AB2FB68DA870123FB6289
:1043B000FEF7F0FD02467B6AD31ABA6B9A4203D825
:1043C000BB6BB3F1FF3F02D1BB6B002B03D10323C7
:1043D00087F82B3029E0FB68DB8E9BB2002BA2D143
:1043E000FB68DB8F9BB2002B9DD17A6AB96BF868B2
:1043F00000F004F90346002B06D0012387F82B3088
:10440000FB6820225A6510E0FB689B68002B0BD1EB
:1044100000237B61FB681B68DB687B61FB681B68B2
:104420009B687B617B6900E000BFFB68012283F829
:104430005120FB68002283F8502097F82B30184653
:104440003037BD4680BD000080B588B000AFF86051
:10445000B9603B601346FB71FEF79CFD0246BB6AE8
:104460009B1A3A681344FB61FEF794FDB861394B1F
:104470001B685B011B0DFA6902FB03F37B6154E0CF
:104480003B68B3F1FF3F50D0FEF784FD0246BB69A5
:10449000D31AFA699A4202D9FB69002B3DD1FB6815
:1044A0001B685A68FB681B6822F0E0025A60FB68D0
:1044B0005B68B3F5827F11D1FB689B68B3F5004F51
:1044C00004D0FB689B68B3F5806F07D1FB681B685D
:1044D0001A68FB681B6822F040021A60FB689B6A3E
:1044E000B3F5005F0FD1FB681B681A68FB681B6897
:1044F00022F400521A60FB681B681A68FB681B688C
:1045000042F400521A60FB68012283F85120FB68D4
:10451000002283F85020032317E07B69002B01D190
:104520000023FB617B69013B7B61FB681B689A6828
:10453000BB681340BA689A420CBF01230023DBB268
:104540001A46FB799A429BD1002318462037BD4674
:1045500080BD00BF0400002080B586B002AFF860C7
:10456000B9607A60FB685B68B3F5827F11D1FB6844
:104570009B68B3F5004F04D0FB689B68B3F5806F70
:1045800007D1FB681B681A68FB681B6822F04002B1
:104590001A60FB685B68B3F5827F17D1FB689B6884
:1045A000B3F5806F12D17B680093BB6800220121B4
:1045B000F868FFF749FF0346002B1AD0FB685B6DD4
:1045C00043F02002FB685A65032313E07B680093E5
:1045D000BB6800228021F868FFF736FF0346002BF6
:1045E00007D0FB685B6D43F02002FB685A6503232C
:1045F00000E0002318461037BD4680BD80B586B068
:1046000002AFF860B9607A607B680093BB680022F3
:104610008021F868FFF718FF0346002B07D0FB68DE
:104620005B6D43F02002FB685A65032300E0002322
:1046300018461037BD4680BD80B582B000AF7860A7
:104640007B68002B01D1012341E07B6893F83D306A
:10465000DBB2002B06D17B68002283F83C2078680F
:1046600000F039F87B68022283F83D207B681A68E5
:104670007B6804331946104600F0A6FA7B680122D5
:1046800083F846207B68012283F83E207B68012264
:1046900083F83F207B68012283F840207B68012259
:1046A00083F841207B68012283F842207B68012245
:1046B00083F843207B68012283F844207B68012231
:1046C00083F845207B68012283F83D2000231846AB
:1046D0000837BD4680BD80B483B000AF786000BFAE
:1046E0000C37BD4680BC704780B485B000AF7860A1
:1046F0007B6893F83D30DBB2012B01D001233AE017
:104700007B68022283F83D207B681B68DA687B683F
:104710001B6842F00102DA607B681B68184A93420A
:104720000ED07B681B68B3F1804F09D07B681B6893
:10473000144A934204D07B681B68134A934211D1F8
:104740007B681B689B6803F00703FB60FB68062B14
:1047500010D07B681B681A687B681B6842F00102F6
:104760001A6007E07B681B681A687B681B6842F068
:1047700001021A60002318461437BD4680BC7047FA
:10478000002C0140000400400008004080B483B0C9
:1047900000AF78607B681B68DA687B681B6822F072
:1047A0000102DA607B681B681A6A41F21113134038
:1047B000002B0FD17B681B681A6A40F244431340F8
:1047C000002B07D17B681B681A687B681B6822F086
:1047D00001021A607B68012283F83D2000231846FD
:1047E0000C37BD4680BC704780B582B000AF7860A2
:1047F0007B681B681B6903F00203022B22D17B68D4
:104800001B68DB6803F00203022B1BD17B681B686B
:104810006FF002021A617B6801221A777B681B68BD
:104820009B6903F00303002B03D0786800F0B1F913
:1048300005E0786800F0A4F9786800F0B3F97B68C7
:1048400000221A777B681B681B6903F00403042BA2
:1048500022D17B681B68DB6803F00403042B1BD1A7
:104860007B681B686FF004021A617B6802221A776A
:104870007B681B689B6903F44073002B03D0786846
:1048800000F087F905E0786800F07AF9786800F0C0
:1048900089F97B6800221A777B681B681B6903F023
:1048A0000803082B22D17B681B68DB6803F0080330
:1048B000082B1BD17B681B686FF008021A617B68AC
:1048C00004221A777B681B68DB6903F00303002B63
:1048D00003D0786800F05DF905E0786800F050F9E1
:1048E000786800F05FF97B6800221A777B681B68A4
:1048F0001B6903F01003102B22D17B681B68DB6857
:1049000003F01003102B1BD17B681B686FF01002A3
:104910001A617B6808221A777B681B68DB6903F4DD
:104920004073002B03D0786800F033F905E0786815
:1049300000F026F9786800F035F97B6800221A77D4
:104940007B681B681B6903F00103012B0ED17B6898
:104950001B68DB6803F00103012B07D17B681B6830
:104960006FF001021A617868FDF7F8FE7B681B683A
:104970001B6903F08003802B0ED17B681B68DB680A
:1049800003F08003802B07D17B681B686FF08002E7
:104990001A61786800F077FA7B681B681B6903F07E
:1049A0004003402B0ED17B681B68DB6803F040039B
:1049B000402B07D17B681B686FF040021A61786852
:1049C00000F0F9F87B681B681B6903F02003202BBB
:1049D0000ED17B681B68DB6803F02003202B07D116
:1049E0007B681B686FF020021A61786800F042FA59
:1049F00000BF0837BD4680BD80B584B000AF786089
:104A000039607B6893F83C30012B01D10223B3E07D
:104A10007B68012283F83C207B68022283F83D20DA
:104A20007B681B689B68FB60FB6823F07703FB6077
:104A3000FB6823F47F43FB607B681B68FA689A601D
:104A40003B681B68B3F5005F3ED0B3F5005F00F232
:104A50008780B3F5805F00F08580B3F5805F7FD8F5
:104A6000702B1AD0702B7BD8602B50D0602B77D84E
:104A7000502B3CD0502B73D8402B58D0402B6FD8A4
:104A8000302B64D0302B6BD8202B60D0202B67D8F4
:104A9000002B5CD0102B5AD062E07B6818683B6812
:104AA00099683B685A683B68DB6800F066F97B6888
:104AB0001B689B68FB60FB6843F07703FB607B68C7
:104AC0001B68FA689A604EE07B6818683B689968D2
:104AD0003B685A683B68DB6800F04FF97B681B68ED
:104AE0009A687B681B6842F480429A603BE07B686E
:104AF00018683B6859683B68DB681A4600F0C6F8DE
:104B00007B681B685021184600F01DF92BE07B687C
:104B100018683B6859683B68DB681A4600F0E4F89F
:104B20007B681B686021184600F00DF91BE07B686C
:104B300018683B6859683B68DB681A4600F0A6F8BD
:104B40007B681B684021184600F0FDF80BE07B688D
:104B50001A683B681B681946104600F0F4F802E03A
:104B600000BF00E000BF7B68012283F83D207B6826
:104B7000002283F83C20002318461037BD4680BD34
:104B800080B483B000AF786000BF0C37BD4680BCF6
:104B9000704780B483B000AF786000BF0C37BD466B
:104BA00080BC704780B483B000AF786000BF0C3722
:104BB000BD4680BC704780B483B000AF786000BF52
:104BC0000C37BD4680BC704780B485B000AF7860BC
:104BD00039607B681B68FB607B68294A93420BD075
:104BE0007B68B3F1804F07D07B68264A934203D09D
:104BF0007B68254A934208D1FB6823F07003FB6071
:104C00003B685B68FA681343FB607B681C4A93420D
:104C10000BD07B68B3F1804F07D07B68194A934271
:104C200003D07B68184A934208D1FB6823F4407391
:104C3000FB603B68DB68FA681343FB60FB6823F0AA
:104C400080023B685B691343FB607B68FA681A600B
:104C50003B689A687B68DA623B681A687B689A628C
:104C60007B68074A934203D13B681A697B681A63E1
:104C70007B6801225A6100BF1437BD4680BC704773
:104C8000002C0140000400400008004080B487B0C0
:104C900000AFF860B9607A60FB681B6A7B61FB68F3
:104CA0001B6A23F00102FB681A62FB689B693B6187
:104CB0003B6923F0F0033B617B681B013A691343B6
:104CC0003B617B6923F00A037B617A69BB6813430C
:104CD0007B61FB683A699A61FB687A691A6200BF76
:104CE0001C37BD4680BC704780B487B000AFF86009
:104CF000B9607A60FB681B6A23F01002FB681A62D5
:104D0000FB689B697B61FB681B6A3B617B6923F4E1
:104D100070437B617B681B037A6913437B613B694A
:104D200023F0A0033B61BB681B013A6913433B615D
:104D3000FB687A699A61FB683A691A6200BF1C379E
:104D4000BD4680BC704780B485B000AF78603960E4
:104D50007B689B68FB60FB6823F07003FB603A682C
:104D6000FB68134343F00703FB607B68FA689A60B3
:104D700000BF1437BD4680BC704780B487B000AF19
:104D8000F860B9607A603B60FB689B687B617B6917
:104D900023F47F437B613B681A027B681A43BB683C
:104DA00013437A6913437B61FB687A699A6000BF99
:104DB0001C37BD4680BC704780B485B000AF7860BA
:104DC00039607B6893F83C30012B01D1022346E027
:104DD0007B68012283F83C207B68022283F83D2017
:104DE0007B681B685B68FB607B681B689B68BB60BB
:104DF000FB6823F07003FB603B681B68FA68134391
:104E0000FB607B681B68FA685A607B681B68164AFF
:104E100093420ED07B681B68B3F1804F09D07B684A
:104E20001B68124A934204D07B681B68104A934265
:104E30000CD1BB6823F08003BB603B685B68BA6839
:104E40001343BB607B681B68BA689A607B68012269
:104E500083F83D207B68002283F83C20002318461D
:104E60001437BD4680BC7047002C01400004004050
:104E70000008004080B483B000AF786000BF0C37FA
:104E8000BD4680BC704780B483B000AF786000BF7F
:104E90000C37BD4680BC704780B582B000AF7860EB
:104EA0007B68002B01D101233FE07B6893F83D3004
:104EB000DBB2002B06D17B68002283F83C207868A7
:104EC000FDF79EFF7B68242283F83D207B681B68EA
:104ED000DA687B681B6822F40052DA60786800F0B8
:104EE00005F97B681B681A697B681B6822F490428D
:104EF0001A617B681B685A697B681B6822F02A026A
:104F00005A617B681B68DA687B681B6842F4005250
:104F1000DA607B6800221A647B68202283F83D20D7
:104F20007B68202283F83E20002318460837BD46C0
:104F300080BD80B58AB002AFF860B9603B601346AF
:104F4000FB8000237B61FB6893F83D30DBB2202BB4
:104F50007CD1BB68002B02D0FB88002B01D1012340
:104F600075E0FB6893F83C30012B01D102236EE021
:104F7000FB68012283F83C20FB6800221A64FB686E
:104F8000212283F83D20FEF705F87861FB68FA8856
:104F90009A84FB68FA88DA84FB689B68B3F5805FC3
:104FA00008D1FB681B69002B04D10023FB61BB689F
:104FB000BB6103E0BB68FB610023BB61FB680022AF
:104FC00083F83C202AE03B6800937B690022802123
:104FD000F86800F040F80346002B01D0032336E0C8
:104FE000FB69002B0BD1BB691B881A46FB681B6849
:104FF000C2F308025A60BB690233BB6107E0FB6978
:105000001A78FB681B685A60FB690133FB61FB6817
:10501000DB8C9BB2013B9AB2FB68DA84FB68DB8CC9
:105020009BB2002BCFD13B6800937B6900224021CB
:10503000F86800F010F80346002B01D0032306E0C7
:10504000FB68202283F83D20002300E0022318465D
:105050002037BD4680BD80B584B000AFF860B96030
:105060003B601346FB712CE0BB69B3F1FF3F28D0D6
:10507000BB69002B07D0FDF78DFF02463B68D31AB2
:10508000BA699A421DD2FB681B68DA68FB681B6824
:1050900022F4D072DA60FB681B685A69FB681B68EF
:1050A00022F001025A61FB68202283F83D20FB6850
:1050B000202283F83E20FB68002283F83C20032353
:1050C0000FE0FB681B681A68BB681340BA689A4215
:1050D0000CBF01230023DBB21A46FB799A42C3D0EE
:1050E000002318461037BD4680BD000080B584B04F
:1050F00000AF78607B681B681B6923F440517B68B4
:10510000DA687B681B680A431A617B689A687B6867
:105110001B691A437B685B691343BB607B681B6830
:10512000DB6823F4B05323F00C037A681268B96883
:105130000B43D3607B681B685B6923F440717B6819
:105140009A697B681B680A435A617B681B682C4A12
:10515000934203D1FEF70EFEF86002E0FEF7F6FD83
:10516000F860FA6813469B0013449A001A447B685F
:105170005B689B00B2FBF3F3224AA2FB03235B09AB
:105180001901FA6813469B0013449A001A447B687D
:105190005B689B00B2FBF3F21A4BA3FB02035B09B3
:1051A000642000FB03F3D31A1B013233154AA2FB20
:1051B00003235B0903F0F0031944FA6813469B00CC
:1051C00013449A001A447B685B689B00B2FBF3F2BD
:1051D0000C4BA3FB02035B09642000FB03F3D31A0F
:1051E0001B013233074AA2FB03235B0903F00F02C2
:1051F0007B681B680A449A6000BF1037BD4680BDBB
:10520000003801401F85EB51014B1868704700BF03
:105210001000002070B500260C4D0D4C641BA4102E
:10522000A64209D102F088FF00260A4D0A4C641BF1
:10523000A410A64205D170BD55F8043B984701362D
:10524000EEE755F8043B98470136F2E73C87000843
:105250003C8700083C87000840870008034602445A
:10526000934200D1704703F8011BF9E7002B2DE9A9
:10527000F0471F46BBBF03F100431F4600232D2309
:1052800088B01446129A109D1370149BDDF84CA040
:1052900023F02008B8F1460F05D0B8F1450F00D132
:1052A0000135022300E0032307AA049206AACDE9F0
:1052B00002A2CDE9003522463B4600F031FEB8F1AE
:1052C000470F064602D1119BDB0722D5B8F1460FE6
:1052D00006EB050910D13378302B0AD100220023C8
:1052E00020463946FBF714FC18B9C5F10105CAF888
:1052F0000050DAF800309944002200232046394655
:10530000FBF706FC08B1CDF81C903022079B4B45FB
:1053100007D33046079B159A9B1B136008B0BDE866
:10532000F087591C07911A70F0E70346F7B500297A
:1053300003F8022BB6BF2D222B22494209294270C5
:105340002BDD0DF10704A4460A2791FBF7F60A4668
:10535000A64607FB1615632A05F13005314604F110
:10536000FF340EF8015CF0DC3031AEF1020504F8D8
:10537000011C2946441C61450AD30DF10902A2EB28
:105380000E02654588BF00221344181A03B0F0BD11
:1053900011F8012B04F8012FEDE730233031837031
:1053A000C170031DF1E700002DE9F04F91B00C46EC
:1053B000DDF8688016461F46054601F053FD036878
:1053C00018460993FAF7C4FE00230E93D8F800306C
:1053D0000A90073323F0070303F1080294F81890AA
:1053E000D4F800B0C8F80020D3E90023C4E91223A0
:1053F000D4E9128A2AF000430B934FF0FF32404663
:105400009C4B0B99FBF7B6FB70BB4FF0FF3240464D
:10541000984B0B99FBF790FB30BB002200234046D2
:105420005146FBF77FFB10B12D2384F84330924B9C
:105430009248B9F1470F94BF9846804603234FF036
:10544000000A23612BF004032360334621462846DB
:1054500000970FAA00F0D4F9013040F090804FF08F
:10546000FF3011B0BDE8F08F4246534640465146EA
:10547000FBF780FB48B1BAF1000FB8BF2D2380487D
:10548000B8BF84F843307F4BD3E7636809F0DF018E
:105490005A1C42D106236360002206920EAACDE96F
:1054A00004920DAA4BF4806303920DF13302CDE90F
:1054B00001322360636842460093284653460B91AD
:1054C000FFF7D4FE0B99804647290D9908D1C81CD7
:1054D00002DB6368994240DDA9F102095FFA89F9AC
:1054E000B9F1650F1FD84A46013904F150000D91FA
:1054F000FFF71BFF0E9A82461318012A236102DC74
:105500002268D20701D5013323619DF83330002B87
:105510009BD02D2384F8433097E74729BCD1002B3B
:10552000BAD10123B7E7B9F1660F18D10029636832
:105530000BDD216113B92268D00702D501330B447A
:1055400023614FF0000AA165DFE713B92268D20793
:1055500001D50233F4E70123F2E74FF067090E9B10
:10556000994205DB23682161D807EAD54B1CE7E7A0
:105570000029CCBF0122C1F102021344E0E72368F5
:105580005A0507D42369424631462846B8470130B8
:105590002BD164E7B9F1650F40F2DD80D4E9120147
:1055A00000220023FBF7B4FA002833D00123314650
:1055B0002846354AB84701303FF451AFDDE90D23A5
:1055C0009A4202DB2368D8070FD5DDE9092331466B
:1055D0002846B84701303FF442AF4FF0000804F1CD
:1055E0001A090E9B013B434509DC23689B0700F128
:1055F0000281E0680F9B9842B8BF184631E701234B
:105600004A4631462846B84701303FF428AF08F1F2
:105610000108E6E70D9B002B38DC012331462846C4
:10562000194AB84701303FF41AAFDDE90D2313439F
:1056300002D12368D907D8D5DDE9092331462846A8
:10564000B84701303FF40BAF4FF0000904F11A0ADC
:105650000D9B5B424B4501DC0E9B94E701235246B8
:1056600031462846B84701303FF4F9AE09F1010947
:10567000EEE700BFFFFFEF7F648300086883000848
:10568000708300086C830008748300080E9AA36D71
:105690009A42A8BF1A46002A914637DC4FF0000B09
:1056A00029EAE97904F11A02D4F858A0AAEB09030F
:1056B0005B4533DCDDE90D239A423BDB2368DA07E7
:1056C00038D40E9B0D99A3EB0A02A3EB0109914577
:1056D000A8BF9146B9F1000F34DC4FF0000829EA69
:1056E000E97904F11A0ADDE90D239B1AA3EB0903FA
:1056F00043457FF77AAF0123524631462846B847E3
:1057000001303FF4ACAE08F10108ECE71346314636
:1057100042462846B8470130C0D1A0E601233146B1
:1057200028460B92B84701303FF499AE0B9A0BF123
:10573000010BB9E73146DDE909232846B8470130B6
:10574000BFD18CE64B463146284608EB0A02B847E3
:105750000130C2D183E60E9A012A01DCDB0737D57E
:105760000123424631462846B84701303FF477AE20
:10577000DDE9092331462846B84701303FF46FAED2
:10578000D4E9120100220023FBF7C2F9D8B90E9B1D
:1057900008F10102013B31462846B84701300ED1DD
:1057A0005DE601234A4631462846B84701303FF4BA
:1057B00056AE08F101080E9B013B4345F1DC534610
:1057C00004F15002E0E64FF0000804F11A09F2E794
:1057D00001234246DFE701234A4631462846B847BF
:1057E00001303FF43CAE08F10108E3680F995B1A01
:1057F0004345F0DCFDE64FF0000804F11909F4E739
:105800002DE9F047164699468A680B690746934288
:10581000B8BF1346336091F843200C46DDF8208072
:105820000AB1013333602368990642BF33680233FB
:105830003360256815F0060506D104F1190AE368FE
:1058400032689B1AAB4228DC94F84320131E22686E
:1058500018BF012392062DD44946384604F143026D
:10586000C047013020D02368E56803F00603042B0D
:1058700018BF002532684FF00006A36808BFAD1AB4
:10588000226908BF25EAE5759342C4BF9B1AED184B
:105890001A34B5421AD1002008E001235246494685
:1058A0003846C047013003D14FF0FF30BDE8F087E4
:1058B0000135C4E73020E11881F843005A1C94F800
:1058C00045102244023382F84310C5E701232246E3
:1058D00049463846C0470130E6D00136D9E70000D6
:1058E0002DE9FF470F7E9146782F80460C469A4659
:1058F0000C9D01F1430207D8622F0AD8002F00F057
:10590000D980582F00F0A48004F1420584F8427039
:105910003AE0A7F16303152BF6D801A151F823F063
:10592000795900088D5900080959000809590008DB
:1059300009590008095900088D590008095900083B
:105940000959000809590008095900089B5A00081C
:10595000BD5900087D5A0008095900080959000876
:10596000BD5A000809590008BD5900080959000826
:1059700009590008855A00082B681A1D1B682A60FF
:1059800004F1420584F842300123A4E0206829682C
:10599000060601F104030AD50E682B60002E03DA17
:1059A0002D23764284F843300A235E4819E00E68BE
:1059B00010F0400F2B6018BF36B2EFE72B6820685D
:1059C000191D2960010601D51E6802E04606FBD5B7
:1059D0001E886F2F0CBF08230A235248002184F829
:1059E00043106568002DA8BF2168A560A4BF21F001
:1059F000040121600EB9002D4DD01546B6FBF3F120
:105A000003FB1167C75D05F8017D3746BB420E46B3
:105A1000F4D9082B0BD12368DE0708D52369616808
:105A20009942DEBF302305F8013C05F1FF35521BDA
:105A300022614B4621464046CDF800A003AAFFF75D
:105A4000DFFE01304CD14FF0FF3004B0BDE8F087ED
:105A5000344881F845702968236851F8046B29603F
:105A60001D0614D5DF0744BF43F0200323601EB991
:105A7000236823F0200323601023AFE7236843F05B
:105A8000200323607823284884F84530E3E759064B
:105A900048BFB6B2E6E71546BBE72B682668181D77
:105AA0006169286035061B6801D5196002E070063F
:105AB000FBD51980002315462361BAE72B68002126
:105AC0001A1D2A601D686268284601F03FFA08B175
:105AD000401B606063682361002384F84330A8E7BB
