:020000040800F2
:1000000000500020BD2400082D21000833210008E5
:10001000392100083F2100084521000800000000A8
:100020000000000000000000000000004B2100085C
:100030005721000800000000632100086F2100081C
:1000400005250008052500080525000805250008E8
:1000500005250008052500087B2100080525000866
:1000600005250008052500080525000805250008C8
:1000700005250008052500080525000805250008B8
:1000800005250008052500080525000805250008A8
:100090000525000805250008052500080525000898
:1000A0000525000805250008052500080525000888
:1000B00005250008052500088921000805250008F8
:1000C0000525000805250008052500080525000868
:1000D0000525000805250008052500080525000858
:1000E000052500080525000805250008000000007A
:1000F0000000000000000000000000000000000000
:0C01000000000000000000005FF808F1A3
:10010C0010B5054C237833B9044B13B10448AFF345
:10011C0000800123237010BD880000200000000027
:10012C007C5C000808B5034B1BB103490348AFF3D3
:10013C00008008BD000000008C0000207C5C0008E2
:10014C004FF0FF0C1CEAD0521EBF1CEAD15392EAAE
:10015C000C0F93EA0C0F6FD01A4480EA010C40028A
:10016C0018BF5FEA41211ED04FF0006343EA5010E4
:10017C0043EA5111A0FB01310CF00040B1F5000F26
:10018C003EBF490041EAD3715B0040EA010062F1D5
:10019C007F02FD2A1DD8B3F1004F40EBC25008BFBF
:1001AC0020F00100704790F0000F0CF0004C08BFDD
:1001BC0049024CEA502040EA51207F3AC2BFD2F1AA
:1001CC00FF0340EAC250704740F400004FF00003B8
:1001DC00013A5DDC12F1190FDCBF00F000407047F2
:1001EC00C2F10002410021FA02F1C2F1200200FA30
:1001FC0002FC5FEA310040F1000053EA4C0308BFF7
:10020C0020EADC70704792F0000F00F0004C02BF47
:10021C00400010F4000F013AF9D040EA0C0093F0C2
:10022C00000F01F0004C02BF490011F4000F013B1C
:10023C00F9D041EA0C018FE70CEAD15392EA0C0F8A
:10024C0018BF93EA0C0F0AD030F0004C18BF31F0F5
:10025C00004CD8D180EA010000F00040704790F0CB
:10026C00000F17BF90F0004F084691F0000F91F06F
:10027C00004F14D092EA0C0F01D142020FD193EA35
:10028C000C0F03D14B0218BF084608D180EA0100BD
:10029C0000F0004040F0FE4040F40000704740F099
:1002AC00FE4040F44000704780F0004002E000BF88
:1002BC0081F0004142001FBF5FEA410392EA030F45
:1002CC007FEA226C7FEA236C6AD04FEA1262D2EB8F
:1002DC001363C1BFD218414048404140B8BF5B4294
:1002EC00192B88BF704710F0004F40F4000020F02D
:1002FC007F4018BF404211F0004F41F4000121F043
:10030C007F4118BF494292EA030F3FD0A2F101028C
:10031C0041FA03FC10EB0C00C3F1200301FA03F1CA
:10032C0000F0004302D5494260EB4000B0F5000FED
:10033C0013D3B0F1807F06D340084FEA310102F1AC
:10034C000102FE2A51D2B1F1004F40EBC25008BF5E
:10035C0020F0010040EA03007047490040EB000028
:10036C00013A28BFB0F5000FEDD2B0FA80FCACF129
:10037C00080CB2EB0C0200FA0CF0AABF00EBC25056
:10038C0052421843BCBFD0401843704792F0000F44
:10039C0081F4000106BF80F400000132013BB5E797
:1003AC004FEA41037FEA226C18BF7FEA236C21D00D
:1003BC0092EA030F04D092F0000F08BF0846704772
:1003CC0090EA010F1CBF0020704712F07F4F04D140
:1003DC00400028BF40F00040704712F100723CBF53
:1003EC0000F50000704700F0004343F0FE4040F47D
:1003FC00000070477FEA226216BF08467FEA23633B
:10040C000146420206BF5FEA412390EA010F40F425
:10041C00800070474FF0000304E000BF10F0004371
:10042C0048BF40425FEA000C08BF704743F0964358
:10043C0001464FF000001CE050EA010208BF704773
:10044C004FF000030AE000BF50EA010208BF7047FA
:10045C0011F0004302D5404261EB41015FEA010C0F
:10046C0002BF84460146002043F0B64308BFA3F107
:10047C008053A3F50003BCFA8CF2083AA3EBC253E9
:10048C0010DB01FA02FC634400FA02FCC2F1200208
:10049C00BCF1004F20FA02F243EB020008BF20F03F
:1004AC000100704702F1200201FA02FCC2F12002A5
:1004BC0050EA4C0021FA02F243EB020008BF20EA9A
:1004CC00DC7070474FEA4002B2F1FE4F0FD34FF091
:1004DC009E03B3EB12620DD94FEA002343F00043A5
:1004EC0010F0004F23FA02F018BF404270474FF053
:1004FC000000704712F1610F01D1420205D110F0DA
:10050C00004008BF6FF0004070474FF0000070478C
:10051C0080B582B000AF4FF000037B600022102149
:10052C001F4802F01AFB322302221E491E4802F019
:10053C00FBFF012210211A4802F00FFB194B1B780C
:10054C001B02184A527813439B1003F00103002B33
:10055C0014BF01230023DAB2144B1A70134B1B780F
:10056C0083F00103DBB2002B13D00E4B1B781B0264
:10057C000C4A52781343DB101846FFF74FFF034623
:10058C007B604FF07A517868FFF7DAFD03467B60A9
:10059C0001E0074B7B607B6818460837BD4680BD81
:1005AC0000080140A800002050010020A4000020F9
:1005BC00000080BF80B588B000AF07F110030022A7
:1005CC001A605A609A60DA60694B9B69684A43F01A
:1005DC0010039361664B9B6903F01003FB60FB688F
:1005EC00634B9B69624A43F020039361604B9B69A8
:1005FC0003F02003BB60BB685D4B9B695C4A43F016
:10060C00040393615A4B9B6903F004037B607B6882
:10061C00574B9B69564A43F008039361544B9B69B3
:10062C0003F008033B603B6801224FF40051514832
:10063C0002F093FA00224FF400414E4802F08DFA7A
:10064C00002249F610114C4802F087FA00224EF2B3
:10065C00F8314A4802F081FA4FF400533B61012310
:10066C007B610023BB610223FB6107F11003194678
:10067C00404802F0D7F84FF400433B6101237B6103
:10068C000223BB610223FB6107F1100319463948B1
:10069C0002F0C8F801233B61394B7B610123BB613C
:1006AC0007F110031946344802F0BCF80E233B61E5
:1006BC0000237B610123BB6107F1100319462E480F
:1006CC0002F0B0F849F610033B6101237B61022371
:1006DC00BB610323FB6107F110031946264802F0A6
:1006EC00A1F840F603433B6100237B610123BB610E
:1006FC0007F110031946214802F094F84FF46043B7
:10070C003B6101237B610223BB610223FB6107F187
:10071C0010031946194802F085F84FF480733B61B9
:10072C0001237B610223BB610223FB6107F11003F0
:10073C001946114802F076F84FF47E733B610123A1
:10074C007B610223BB610323FB6107F11003194694
:10075C000A4802F067F800220021062002F02BF86C
:10076C00062002F044F800BF2037BD4680BD00BF14
:10077C00001002400010014000080140000C014034
:10078C000000311080B500AF01F010FF02460E4B97
:10079C001B68D31A052B12D908210C4802F0C6F994
:1007AC000346002B03D10A4B00221A7002E0084BBF
:1007BC0001221A7001F0FAFE0346034A1360044B3F
:1007CC001B78DBB2184680BDAC000020000801404D
:1007DC00B000002080B500AF01F0E8FE02460E4BE1
:1007EC001B68D31A052B12D902210C4802F09EF972
:1007FC000346002B03D10A4B00221A7002E0084B6F
:10080C0001221A7001F0D2FE0346034A1360044B16
:10081C001B78DBB2184680BDB400002000080140F4
:10082C00B800002080B500AF00F032F80346002B72
:10083C0004D0134804F0BCF801231EE000F060F86B
:10084C000346002B04D00F4804F0B2F8022314E046
:10085C0000F090F80346002B04D00B4804F0A8F8E5
:10086C0003230AE000F0C0F80346002B04D007482D
:10087C0004F09EF8042300E00023184680BD00BF5E
:10088C00945C0008A85C0008BC5C0008D05C000804
:10089C0080B500AF01F08AFE0246164B1B68D31AD6
:1008AC00012B23D90221144802F040F90346002BF6
:1008BC0014D1124B1B78DBB2012B12D102210E4842
:1008CC0002F034F90346002B04D10C4B00221A70B1
:1008DC0001230CE0094B01221A7002E0074B0122A4
:1008EC001A7001F063FE0346024A13600023184697
:1008FC0080BD00BFBC000020000C0140C0000020E7
:10090C0080B500AF01F052FE0246174B1B68D31A9C
:10091C00012B25D94FF48061144802F007F90346E6
:10092C00002B15D1124B1B78DBB2012B13D14FF4DA
:10093C0080610E4802F0FAF80346002B04D10C4BF0
:10094C0000221A7001230CE0094B01221A7002E0FC
:10095C00074B01221A7001F029FE0346024A13606C
:10096C000023184680BD00BFC4000020000C0140CD
:10097C00C800002080B500AF01F018FE0246174BEE
:10098C001B68D31A012B25D94FF40061144802F0CF
:10099C00CDF80346002B15D1124B1B78DBB2012B83
:1009AC0013D14FF400610E4802F0C0F80346002B3F
:1009BC0004D10C4B00221A7001230CE0094B0122CC
:1009CC001A7002E0074B01221A7001F0EFFD03468A
:1009DC00024A13600023184680BD00BFCC000020E3
:1009EC00000C0140D000002080B500AF01F0DEFD0E
:1009FC000246164B1B68D31A012B23D9012114482C
:100A0C0002F094F80346002B14D1124B1B78DBB286
:100A1C00012B12D101210E4802F088F80346002B5D
:100A2C0004D10C4B00221A7001230CE0094B01225B
:100A3C001A7002E0074B01221A7001F0B7FD034651
:100A4C00024A13600023184680BD00BFD40000206A
:100A5C00000C0140D800002080B483B000AF0346E6
:100A6C00FB71FB79002B03D0054B00221A7002E0BE
:100A7C00034B10221A7000BF0C37BD4680BC704768
:100A8C00D900002080B582B000AF0346FB710B4645
:100A9C00BB7113467B71BB79012B06D9334B1B7889
:100AAC0043F00803DAB2314B1A70314ABB79137038
:100ABC00304B00221A707B79002B09D0BB79012BAB
:100ACC0006D12A4B1B7843F00403DAB2274B1A7079
:100ADC004FF47A7001F074FD00224FF40061264847
:100AEC0002F03BF800224FF48051234802F035F815
:100AFC001E4B1B7843F02003DBB2184600F01EF9A6
:100B0C000A2001F05DFD194B1B7843F02003DBB28A
:100B1C00184600F013F9012001F052FD134B1B781D
:100B2C0043F02003DBB2184600F008F90F4B1B789A
:100B3C0043F02003DBB2184600F000F90F4B0422FF
:100B4C001A70012000F028F800F00EF90C4B02226C
:100B5C001A700B4B1B7843F00403DBB2184600F001
:100B6C00EDF800BF0837BD4680BD00BFD90000209E
:100B7C00DC000020DD00002000080140DA0000202D
:100B8C00DB00002080B500AF022000F0D7F8022077
:100B9C0001F016FD00BF80BD80B582B000AF0346EA
:100BAC00FB71FB79002B0FD0114B1B7843F0040326
:100BBC00DAB20F4B1A700E4B1B7843F00803DBB202
:100BCC00184600F0BBF80EE0094B1B7823F0040329
:100BDC00DAB2074B1A70064B1B7843F00803DBB2F2
:100BEC00184600F0ABF800BF0837BD4680BD00BF0B
:100BFC00DA00002080B584B000AF00224FF48051A1
:100C0C001A4801F0AAFF0023FB6002E0FB680133E5
:100C1C00FB60FB6841F287329342F7DD01224FF40F
:100C2C008051124801F099FF0023BB6002E0BB68C1
:100C3C000133BB60BB6841F287329342F7DD00227F
:100C4C004FF48051094801F088FF00237B6002E0DB
:100C5C007B6801337B607B6841F287329342F7DD1E
:100C6C0000BF00BF1037BD4680BD00BF000801406B
:100C7C0080B582B000AF0346FB71FB79DB09DBB2B8
:100C8C001A464FF400712B4801F067FFFB799B0962
:100C9C00DBB203F00103DBB21A464FF48071254836
:100CAC0001F05BFFFB795B09DBB203F00103DBB204
:100CBC001A4680211F4801F050FFFB791B09DBB25B
:100CCC0003F00103DBB21A4640211A4801F045FF3C
:100CDC00FB79DB08DBB203F00103DBB21A462021FF
:100CEC00144801F03AFFFB799B08DBB203F00103D7
:100CFC00DBB21A4610210F4801F02FFFFB795B087D
:100D0C00DBB203F00103DBB21A460821094801F0FB
:100D1C0024FFFB7903F00103DBB21A464FF40041C8
:100D2C00054801F01AFFFFF765FF00BF0837BD4605
:100D3C0080BD00BF000C01400008014080B582B0AE
:100D4C0000AF0346FB7100224FF40061054801F02F
:100D5C0004FFFB791846FFF78BFF00BF0837BD4631
:100D6C0080BD00BF0008014080B500AF0120FFF737
:100D7C00E5FF022001F024FC00BF80BD80B582B0ED
:100D8C0000AF0346FB7101224FF40061054801F0EE
:100D9C00E4FEFB791846FFF76BFF00BF0837BD4632
:100DAC0080BD00BF0008014080B582B000AF786004
:100DBC007B681B781846FFF7E1FF7B6801337B608B
:100DCC007B681B78002BF3D100BF00BF0837BD46F2
:100DDC0080BD000090B587B000AF03460A46FB719A
:100DEC001346BB71124B07F108040FCB84E80F00BC
:100DFC0097F906300F4A1278934204DD0D4B1B789D
:100E0C00013BDBB2BB7197F906309B0018333B44B6
:100E1C0053F8103CDAB2FB791344DBB263F07F0376
:100E2C00DBB21846FFF78AFF00BF1C37BD4690BDEA
:100E3C00E05C0008DC00002080B500AFFFF794FFF9
:100E4C0000210520FFF7C6FF0D48FFF7ADFF01217C
:100E5C000120FFF7BFFF0B48FFF7A6FF02214FF061
:100E6C00FF30FFF7B7FF0848FFF79EFF0321002074
:100E7C00FFF7B0FF0548FFF797FF00BF80BD00BF2D
:100E8C00F05C0008F85C0008085D0008145D0008C0
:100E9C0080B500AF154B1B78072B25D801A252F853
:100EAC0023F000BFD10E0008D70E0008D70E0008A3
:100EBC00D70E0008DD0E0008E30E0008E90E00084E
:100ECC00EF0E000800F014F80EE000F0EDF80BE067
:100EDC0000F0C0F808E000F03FF805E000F090F8F2
:100EEC0002E000F063F800BF00BF80BD4B010020A2
:100EFC0080B500AF134B1A78134B1B789A4206D06F
:100F0C00FFF732FF104B1A780E4B1A7001E0FFF707
:100F1C0039FE00210520FFF75DFF0C48FFF744FF69
:100F2C0002216FF00200FFF755FF0948FFF73CFF65
:100F3C0003216FF00200FFF74DFF0648FFF734FF67
:100F4C0000BF80BD4C0100204B010020205D00083B
:100F5C002C5D00083C5D000880B500AF0F4B1A7883
:100F6C000F4B1B789A4206D0FFF7FEFE0C4B1A78FB
:100F7C000A4B1A7001E0FFF705FE01210620FFF76E
:100F8C0029FF0848FFF710FF02210620FFF722FF78
:100F9C000548FFF709FF00BF80BD00BF4C010020D2
:100FAC004B0100204C5D0008545D000880B500AF7B
:100FBC000F4B1A780F4B1B789A4206D0FFF7D4FED2
:100FCC000C4B1A780A4B1A7001E0FFF7DBFD01217C
:100FDC000520FFF7FFFE0848FFF7E6FE022105207B
:100FEC00FFF7F8FE0548FFF7DFFE00BF80BD00BF2E
:100FFC004C0100204B0100205C5D0008645D000882
:10100C0080B500AF0F4B1A780F4B1B789A4206D065
:10101C00FFF7AAFE0C4B1A780A4B1A7001E0FFF787
:10102C00B1FD00210520FFF7D5FE0848FFF7BCFEF7
:10103C0002210520FFF7CEFE0548FFF7B5FE00BFE5
:10104C0080BD00BF4C0100204B0100206C5D0008EE
:10105C00645D000880B500AF0F4B1A780F4B1B78FE
:10106C009A4206D0FFF780FE0C4B1A780A4B1A7086
:10107C0001E0FFF787FD00210420FFF7ABFE0848D5
:10108C00FFF792FE02210020FFF7A4FE0548FFF7B0
:10109C008BFE00BF80BD00BF4C0100204B01002027
:1010AC00745D00087C5D000880B500AF554B1A7864
:1010BC00554B1B789A4206D0FFF756FE524B1A78C6
:1010CC00504B1A7001E0FFF75DFD504B5A88504BA6
:1010DC00A3FB021359090B461B015B1A9B00D31A85
:1010EC009AB24C4B1A80494B5B88494AA2FB0323AA
:1010FC005B099AB2484B1A80474B1B881A46454BE2
:10110C001B884649464803F05BFC00210020FFF792
:10111C0061FE4348FFF748FE3C4B9A883C4BA3FBCF
:10112C00021359090B461B015B1A9B00D31A9AB286
:10113C00384B1A80354B9B88354AA2FB03235B093D
:10114C009AB2354B1A80344B1B881A46314B1B888C
:10115C003449334803F034FC00210920FFF73AFEF0
:10116C002F48FFF721FE294B5B78012B04D12E4928
:10117C002B4803F025FC10E0244B5B78022B04D1A8
:10118C002A49274803F01CFC07E0204B5B78032B13
:10119C0003D12749224803F013FC01210220FFF759
:1011AC0019FE1F48FFF700FE184B9B791A46214980
:1011BC001B4803F005FC02214FF0FF30FFF70AFE3D
:1011CC001748FFF7F1FD1C4B1B68B3F1FF3F03D031
:1011DC00194B1B68002B04D11849114803F0F0FB84
:1011EC0006E0154B1B681A4615490D4803F0E8FB41
:1011FC0003214FF0FF30FFF7EDFD0948FFF7D4FD59
:10120C0000BF80BD4C0100204B01002034010020A8
:10121C00898888883001002032010020885D000810
:10122C00E0000020945D0008A05D0008AC5D0008A3
:10123C00BC5D0008C85D000814000020D85D0008E3
:10124C00E85D000880B483B000AF0346FB7197F9EA
:10125C000730002B0BDBFB7903F01F02064997F9D3
:10126C0007305B09012000FA02F241F8232000BF8D
:10127C000C37BD4680BC704700E100E080B483B001
:10128C0000AF0346FB7197F90730002B12DBFB799B
:10129C0003F01F020A4997F907305B09012000FA95
:1012AC0002F2203341F82320BFF34F8F00BFBFF36E
:1012BC006F8F00BF00BF0C37BD4680BC704700BFAE
:1012CC0000E100E080B582B000AF7860391D0A23E0
:1012DC000122044803F049F97B6818460837BD46DB
:1012EC0080BD00BFF401002080B500AF01F006F90D
:1012FC0000F036FDFFF75EF901F064F800F0EEFF48
:10130C0000F05CFE0020FFF7A7FB00220421102058
:10131C00FFF7B8FB9E4B00221A709D4B00225A70AF
:10132C00FFF78AFD40F6B83001F04AF9FFF71CFDD3
:10133C000121984801F0FAFB0346012B06D1964B8C
:10134C0001221A70954B05221A7002E0934B002271
:10135C001A70FFF79DFD924B1B78002B04D0FFF702
:10136C0097FD8F4B00221A708E4B1B78002B06D0EA
:10137C008D4802F027FD8B4B00221A700DE08B4B31
:10138C001B78002B09D0824B1B78012B05D186488A
:10139C0002F0C6FC854B00221A707F4B1B78002B89
:1013AC0040F0FC81824B1B78002B40F0F781814B85
:1013BC001B78002B40F0F281FFF734FA03461A46F3
:1013CC007D4B1A70724B1B78012B40F0FF807A4BCF
:1013DC001B78042B00F2D88001A252F823F000BF36
:1013EC0095150008011400085F140008BB140008D0
:1013FC00631500086A4B01221A70654B1B7A002B8F
:10140C0010D1634B5B883C2B0CD9614B5B883C3B0C
:10141C009AB25F4B5A805E4B5B881946674803F063
:10142C0041FAAEE05A4B1B7A012B40F0AA80584B84
:10143C009B883C2B40F2A580554B9B883C3B9AB239
:10144C00534B9A80524B9B8819465D4803F02AFAFD
:10145C0097E0534B01221A704D4B00221A704C4BE3
:10146C0000225A704D4B00221A704E4B01221A70FA
:10147C0000224FF40041534801F06FFB00224FF45F
:10148C008071444801F069FB00224FF400514E4832
:10149C0001F063FB00224FF480414B4801F05DFBEF
:1014AC0000224FF40041484801F057FB6CE03C4BE4
:1014BC0001221A70364B1B7A002B36D1344B5B78D9
:1014CC00012B0BD1324B5B88B3F5E16F26D2304B3D
:1014DC005B883C339AB22E4B5A801FE02C4B5B78C6
:1014EC00022B0BD12A4B5B88B3F5166F16D2284B07
:1014FC005B883C339AB2264B5A800FE0244B5B78C6
:10150C00032B0BD1224B5B8840F6B732934205D8A4
:10151C001F4B5B883C339AB21D4B5A801C4B5B882B
:10152C001946264803F0BEF92DE0194B1B7A012B06
:10153C0029D1174B9B88B3F5617F05D2144B9B883F
:10154C003C339AB2124B9A80114B9B8819461C481B
:10155C0003F0A8F917E0124B01221A700C4B002271
:10156C005A800B4B01221A72094B5B88194613489F
:10157C0003F098F9064B9B881946114803F092F931
:10158C0002E000BF00E000BF0B4B00221A7005E127
:10159C0034010020000801403E0100204B010020D6
:1015AC004201002040010020AC010020410100203C
:1015BC0045010020440100204A010020F85D00088C
:1015CC00085E000800100140000C0140AE4B1B7877
:1015DC00002B40F0AB80AD4B1B78032B00F2A280AC
:1015EC0001A252F823F000BF3117000805160008BD
:1015FC0069160008CD160008A34B01221A70A24BE5
:10160C0001225A70A24B1A889F4B5A80A04B5A88C1
:10161C009D4B9A809E4B9B88DAB29B4B9A719A4B4E
:10162C001E22DA71984B00221A729A4B1E221A70E3
:10163C00994B00221A70994B00221A70984B012278
:10164C001A70984B01221A70974B01221A70974B03
:10165C0001221A70964803F0ABF963E08A4B012221
:10166C001A70894B02225A70894BDA88864B5A8041
:10167C00874B1A89844B9A80854B5B89DAB2824BF3
:10168C009A71814B1E22DA717F4B00221A72814BA8
:10169C001E221A70804B00221A70804B00221A7086
:1016AC007F4B01221A707F4B02221A707E4B012253
:1016BC001A707E4B01221A707E4803F079F931E0E2
:1016CC00714B01221A70704B03225A70704B9A891D
:1016DC006D4B5A806E4BDA896B4B9A806C4B1B8A24
:1016EC00DAB2694B9A71684B1E22DA71664B002292
:1016FC001A72684B1E221A70674B00221A70674BC5
:10170C0000221A70664B01221A70664B03221A7063
:10171C00654B01221A70654B01221A70664803F062
:10172C0047F900BF594B00221A7037E0564B1B7813
:10173C00022B33D1554B1B78022B2CD15A4B012247
:10174C001A70514B00221A704F4B00225A70554B95
:10175C0000221A70594B01221A7000224FF40041DA
:10176C00574801F0FAF900224FF48071554801F006
:10177C00F4F900224FF40051534801F0EEF9002225
:10178C004FF48041504801F0E8F900224FF4004139
:10179C004D4801F0E2F93D4B00221A704B4B1B787F
:1017AC00002B00F0BB800121464801F0BFF9034635
:1017BC001A46474B1A70464B1B78DBB2012B3DD1B6
:1017CC00314B1B78022B0BD13C4B01221A702E4B48
:1017DC000022DA712C4B00221A702B4B00225A700B
:1017EC003C4B01221A70354B01221A702D4B0522ED
:1017FC001A702D4B01221A70234B03221A700022EF
:10180C004FF400412E4801F0A8F900224FF48071EA
:10181C002C4801F0A2F900224FF400512A4801F0A3
:10182C009CF900224FF48041274801F096F90022E0
:10183C004FF40041244801F090F96CE0264B1B78E2
:10184C00002B5FD1104B5B78032B5ED801A252F8B2
:10185C0023F000BF711800087F180008E918000871
:10186C00FD1800080F4B00221A70074B00221A704B
:10187C004BE00C4B01221A70034B01221A70084BDF
:10188C0001221A7041E000BF340100204A010020FF
:10189C00000000201300002046010020470100201A
:1018AC00410100204B010020420100204301002097
:1018BC00185E0008245E0008305E0008400100201D
:1018CC000010014000080140000C01403F010020C5
:1018DC004D0100203E01002044010020A54B0222B6
:1018EC001A70A54B01221A70A44B01221A700CE03D
:1018FC00A04B03221A70A04B01221A709F4B01229D
:10190C001A7002E09B4B06221A709D4B01221A7032
:10191C009C4B00221A709C4B00221A70994B1B781E
:10192C00002B79D1994B1B78002B75D1924B1B78DE
:10193C00022B71D0FEF726FF0346002B2DD0944BC3
:10194C0001221A70934B01221A708A4B07221A70CB
:10195C008B4B01221A70884B03221A7000224FF411
:10196C0000418D4801F0F9F800224FF480718B484A
:10197C0001F0F3F800224FF40051894801F0EDF822
:10198C0000224FF48041864801F0E7F800224FF422
:10199C000041834801F0E1F83EE07D4B00221A70D3
:1019AC00754B1B78032B37D1734B5B78032B30D8DB
:1019BC0001A252F823F000BFD5190008E319000862
:1019CC00F71900080B1A00086A4B00221A706A4BB0
:1019DC0000221A701DE0674B01221A70664B01221F
:1019EC001A70664B01221A7013E0624B02221A70B5
:1019FC00614B01221A70614B01221A7009E05D4B98
:101A0C0003221A705C4B01221A705C4B01221A7073
:101A1C0000BF5B4B01221A705A4B1B78002B40D134
:101A2C005B4B1B78002B3CD1584B1B78002B38D1CF
:101A3C00514B1B78012B5AD15A4B1B78002B56D18A
:101A4C00524B01221A704E4B01221A70514B01223B
:101A5C001A70494B03221A70474B00225A70454B9F
:101A6C0006221A7000224FF400414B4801F075F821
:101A7C0000224FF48071494801F06FF800224FF4B6
:101A8C000051474801F069F800224FF48041444866
:101A9C0001F063F800224FF40041414801F05DF879
:101AAC0025E0384B1B78002B22D1394B1B78002BAF
:101ABC001ED1364B1B78002B1AD0FEF7B3FE034613
:101ACC001A46394B1A70384B1B78022B10D12A4B03
:101ADC0000221A70274B00221A70324B1E221A70E9
:101AEC00274B01221A70294B00221A7000E000BF0C
:101AFC00244B1B78002B7FF42EAC254B1B78002B32
:101B0C007FF429AC214B1B78002B7FF424AC274BA2
:101B1C001B78002B3FF41FAC174B1B78012B40F0AC
:101B2C00A98001224FF480711C4801F016F8204B5B
:101B3C001B78002B0CD000224FF40051184801F0F8
:101B4C000CF800224FF48041154801F006F843E0F0
:101B5C00184B1B78002B2FD001224FF4005110484A
:101B6C0000F0FBFF00224FF480410D4800F0F5FF20
:101B7C0032E000BF4B010020340100204101002065
:101B8C00420100203E0100203F01002044010020C2
:101B9C0045010020400100200010014000080140D8
:101BAC00000C0140120000204A01002043010020DB
:101BBC0047010020130000205F4B1B78002B0BD03B
:101BCC0000224FF400515D4800F0C7FF01224FF492
:101BDC0080415A4800F0C1FFFEF79AFC03461846B4
:101BEC00FEF770FC0346564A1360564B1B7A002BCB
:101BFC0039D1FEF7EFFD0346002B34D1504B1B6857
:101C0C00B3F1FF3F03D04E4B1B68002B06D10022D3
:101C1C004FF40041494800F0A0FF23E0494B9B7969
:101C2C009A1C474B1B689A4203DB454B1B68002BE5
:101C3C0006DC00224FF40041404800F08EFF11E01A
:101C4C00404B9B795A1F3E4B1B689A426DDD3C4BB7
:101C5C001B68002B69DD01224FF40041374800F06E
:101C6C007CFF62E061E000224FF40041334800F059
:101C7C0074FF5BE0334B1B78022B37D1314BDB7994
:101C8C00002B15D100224FF400412F4800F065FFC6
:101C9C002E4B00221A702E4B01221A702D4B012252
:101CAC001A70284B00221A70264B00225A7004E03E
:101CBC004FF40041244800F068FF00224FF480717B
:101CCC00254800F04AFF00224FF400511B4800F059
:101CDC0044FF00224FF48041184800F03EFF0022E0
:101CEC004FF40041154800F038FF1FE000224FF47C
:101CFC000041154800F031FF00224FF48071164866
:101D0C0000F02BFF00224FF400510C4800F025FF8F
:101D1C0000224FF48041094800F01FFF00224FF4CD
:101D2C000041064800F019FF00E000BF0B4B0022F9
:101D3C001A70FFF710BB00BF46010020000C0140D9
:101D4C001400002034010020001001404B01002041
:101D5C004201002040010020000801404301002006
:101D6C0080B590B000AF07F1180328220021184667
:101D7C0002F090FD3B1D00221A605A609A60DA60F6
:101D8C001A610123BB614FF48033FB6100233B627A
:101D9C000123BB6202237B634FF48033BB634FF49C
:101DAC00E013FB6307F11803184600F01FFF03460E
:101DBC00002B01D000F0FCF80F237B600223BB60EA
:101DCC000023FB604FF480633B6100237B613B1D70
:101DDC000221184601F08CF90346002B01D000F0CB
:101DEC00E7F800BF4037BD4680BD000080B582B02B
:101DFC0000AF0346FB80FB88012B0BD10620FFF7BD
:101E0C003DFA064B01221A70054B01221A7006206E
:101E1C00FFF718FA00BF0837BD4680BD3E01002011
:101E2C003F01002080B582B000AF7860544B5B88D6
:101E3C00002B06D0524B5B88013B9AB2504B5A8018
:101E4C0014E04F4B9B88002B06D04D4B9B88013BDD
:101E5C009AB24B4B9A8009E0494B1B78022B05D167
:101E6C00474BDB79013BDAB2454BDA71444B5B886B
:101E7C00002B07D1424B1B7A002B03D1404B012284
:101E8C001A7210E03E4B9B88002B0CD13C4B1B7AFA
:101E9C00012B08D13A4B02221A70394B00225A708E
:101EAC00384B04221A70384B1B78002B06D0364B5B
:101EBC001B78013BDAB2344B1A703CE0334B1B7885
:101ECC00002B09D0314B1B78013BDAB22F4B1A7027
:101EDC002F4B01221A702EE02E4B1B78002B09D0B1
:101EEC002C4B1B78013BDAB22A4B1A70284B002280
:101EFC001A7020E00421284800F018FE03461A4608
:101F0C00264B1A70254B1B78002B06D01E4B00223B
:101F1C001A701E4B1E221A700DE01B4B03221A70F6
:101F2C001B4B1B78002B03D01A4B1E221A7002E09D
:101F3C00164B1E221A70FEF74DFC0346002B0ED0DA
:101F4C000F4B1B7A002B0AD1154B1B78002B0CD096
:101F5C00134B1B78013BDAB2114B1A7005E0104B96
:101F6C001E221A700F4B00221A700F4B01221A708E
:101F7C000E4B01221A7000BF0837BD4680BD00BF52
:101F8C00340100204B0100204701002013000020E9
:101F9C0049010020460100200008014048010020B2
:101FAC0012000020440100204301002042010020C7
:101FBC0080B400AF72B600BFFEE7000080B500AF82
:101FCC00174B184A1A60164B4FF482725A60144B16
:101FDC0000229A60124B0022DA60114B00221A6127
:101FEC000F4B00225A610E4B4FF400729A610C4B4E
:101FFC003022DA610A4B00221A62094B00225A6223
:10200C00074B00229A62064B0A22DA62044801F05E
:10201C0007FA0346002B01D0FFF7CAFF00BF80BDB3
:10202C00500100200030014080B588B000AF7860CE
:10203C0007F1100300221A605A609A60DA607B681C
:10204C001B681B4A93422FD11A4B9B69194A43F4C4
:10205C0080539361174B9B6903F48053FB60FB68BF
:10206C00144B9B69134A43F004039361114B9B6916
:10207C0003F00403BB60BB68A0233B6102237B61BC
:10208C000323FB6107F1100319460B4800F0CAFB50
:10209C0040233B6100237B610023BB6107F11003EC
:1020AC001946054800F0BEFB00BF2037BD4680BD79
:1020BC0000300140001002400008014080B485B09F
:1020CC0000AF154B9B69144A43F001039361124B0B
:1020DC009B6903F00103BB60BB680F4BDB690E4AC5
:1020EC0043F08053D3610C4BDB6903F080537B606E
:1020FC007B680A4B5B68FB60FB6823F0E063FB606A
:10210C00FB6843F00073FB60044AFB68536000BF3C
:10211C001437BD4680BC70470010024000000140DF
:10212C0080B400AFFEE780B400AFFEE780B400AF30
:10213C00FEE780B400AFFEE780B400AFFEE780B4EA
:10214C0000AF00BFBD4680BC704780B400AF00BF7D
:10215C00BD4680BC704780B400AF00BFBD4680BC9C
:10216C00704780B500AF00F00FFA00BF80BD80B59E
:10217C0000AF012000F022FD00BF80BD80B500AF94
:10218C00024801F04DFE00BF80BD00BFAC01002035
:10219C0080B586B000AFF860B9607A6000237B61CF
:1021AC000AE0AFF300800146BB685A1CBA60CAB2A1
:1021BC001A707B6901337B617A697B689A42F0DB28
:1021CC007B6818461837BD4680BD80B586B000AF19
:1021DC00F860B9607A6000237B6109E0BB685A1C27
:1021EC00BA601B781846FFF76DF87B6901337B6189
:1021FC007A697B689A42F1DB7B6818461837BD46D2
:10220C0080BD80B483B000AF78604FF0FF331846C8
:10221C000C37BD4680BC704780B483B000AF78608B
:10222C0039603B684FF400525A60002318460C3753
:10223C00BD4680BC704780B483B000AF786001238A
:10224C0018460C37BD4680BC704780B485B000AFD3
:10225C00F860B9607A60002318461437BD4680BC1C
:10226C007047000080B586B000AF7860144A154BFB
:10227C00D31A7B617B693B61134B1B68002B02D12A
:10228C00114B124A1A60104B1A687B6813443A6956
:10229C009A4207D202F0D4FA03460C221A604FF08D
:1022AC00FF3309E0084B1B68FB60074B1A687B681F
:1022BC001344054A1360FB6818461837BD4680BDA9
:1022CC000050002000040000A80100205002002053
:1022DC0080B400AF00BFBD4680BC704780B586B0EF
:1022EC0000AF07F1080300221A605A609A60DA60A6
:1022FC003B4600221A605A601D4B1E4A1A601C4B4A
:10230C004FF4E1525A601A4B00229A60184B42F279
:10231C000F72DA60164B00221A61154B00229A617B
:10232C00134801F0ADFC0346002B01D0FFF740FE33
:10233C004FF48053BB6007F1080319460C4801F0B9
:10234C0077FE0346002B01D0FFF732FE20233B60C3
:10235C0000237B603B461946054802F049F80346CA
:10236C00002B01D0FFF724FE00BF1837BD4680BDFF
:10237C00AC0100200008004080B584B000AF78604C
:10238C007B681B680D4A934213D10D4BDB690C4AD9
:10239C0043F00403D3610A4BDB6903F00403FB60D5
:1023AC00FB68002201211E2000F005FA1E2000F01F
:1023BC001EFA00BF1037BD4680BD00BF00080040AC
:1023CC000010024080B500AF114B124A1A60104B3E
:1023DC004FF4E1325A600E4B00229A600C4B0022F3
:1023EC00DA600B4B00221A61094B0C225A61084B24
:1023FC0000229A61064B0022DA61054802F068F867
:10240C000346002B01D0FFF7D3FD00BF80BD00BFFA
:10241C00F40100200038014080B588B000AF78602E
:10242C0007F1100300221A605A609A60DA607B6828
:10243C001B681C4A934231D11B4B9B691A4A43F4CB
:10244C0080439361184B9B6903F48043FB60FB68EA
:10245C00154B9B69144A43F004039361124B9B691F
:10246C0003F00403BB60BB684FF400733B610223B1
:10247C007B610323FB6107F1100319460B4800F045
:10248C00D1F94FF480633B6100237B610023BB6176
:10249C0007F110031946054800F0C4F900BF2037B6
:1024AC00BD4680BD003801400010024000080140CC
:1024BC000C480D490D4A002302E0D458C450043393
:1024CC00C4188C42F9D30A4A0A4C002301E0136069
:1024DC000432A242FBD3FFF7FBFE02F0B7F9FEF782
:1024EC0003FF70470000002088000020045F0008F4
:1024FC00880000204C020020FEE7000080B500AFF1
:10250C00084B1B68074A43F010031360032000F0CC
:10251C0047F90F2000F008F8FFF7D0FD002318460C
:10252C0080BD00BF0020024080B582B000AF786053
:10253C00124B1A68124B1B7819464FF47A73B3FB83
:10254C00F1F3B2FBF3F3184600F05FF90346002BEE
:10255C0001D001230EE07B680F2B0AD8002279688A
:10256C004FF0FF3000F027F9064A7B681360002318
:10257C0000E0012318460837BD4680BD1800002036
:10258C00200000201C00002080B400AF054B1B78FD
:10259C001A46054B1B681344034A136000BFBD4623
:1025AC0080BC7047200000203802002080B400AFAF
:1025BC00024B1B681846BD4680BC70473802002091
:1025CC0080B584B000AF7860FFF7F0FFB8607B682F
:1025DC00FB60FB68B3F1FF3F05D00A4B1B781A4632
:1025EC00FB681344FB6000BFFFF7E0FF0246BB68CB
:1025FC00D31AFA689A42F7D800BF00BF1037BD460D
:10260C0080BD00BF2000002080B485B000AF786092
:10261C007B6803F00703FB600C4BDB68BB60BA689C
:10262C004FF6FF031340BB60FB681A02BB681343F1
:10263C0043F0BF6343F40033BB60044ABB68D36010
:10264C0000BF1437BD4680BC704700BF00ED00E0F2
:10265C0080B400AF044BDB681B0A03F00703184679
:10266C00BD4680BC704700BF00ED00E080B483B075
:10267C0000AF0346FB7197F90730002B0BDBFB799E
:10268C0003F01F02064997F907305B09012000FA95
:10269C0002F241F8232000BF0C37BD4680BC7047C6
:1026AC0000E100E080B483B000AF03463960FB71F9
:1026BC0097F90730002B0ADB3B68DAB20C4997F923
:1026CC0007301201D2B20B4483F800230AE03B68B6
:1026DC00DAB20849FB7903F00F03043B1201D2B2C2
:1026EC000B441A7600BF0C37BD4680BC704700BF48
:1026FC0000E100E000ED00E080B489B000AFF860CC
:10270C00B9607A60FB6803F00703FB61FB69C3F1F6
:10271C000703042B28BF0423BB61FB690433062B7E
:10272C0002D9FB69033B00E000237B614FF0FF32D1
:10273C00BB6902FA03F3DA43BB681A407B699A401F
:10274C004FF0FF317B6901FA03F3D9437B680B40EF
:10275C00134318462437BD4680BC704780B582B001
:10276C0000AF78607B68013BB3F1807F01D301231C
:10277C000FE00A4A7B68013B53600F214FF0FF309A
:10278C00FFF790FF054B00229A60044B07221A605A
:10279C00002318460837BD4680BD00BF10E000E09E
:1027AC0080B582B000AF78607868FFF72DFF00BF6E
:1027BC000837BD4680BD80B586B000AF0346B96012
:1027CC007A60FB7300237B61FFF742FF78617A68C4
:1027DC00B9687869FFF790FF024697F90F301146F8
:1027EC001846FFF75FFF00BF1837BD4680BD80B5A8
:1027FC0082B000AF0346FB7197F907301846FFF71C
:10280C0035FF00BF0837BD4680BD80B582B000AF34
:10281C0078607868FFF7A2FF034618460837BD4674
:10282C0080BD000080B48BB000AF786039600023AD
:10283C007B6200233B6269E101227B6A02FA03F3AB
:10284C00FB613B681B68FA691340BB61BA69FB69A1
:10285C009A4240F058813B685B689A4A93425ED03A
:10286C00984A934275D8984A934258D0964A9342C4
:10287C006FD8964A934252D0944A934269D8944A5C
:10288C0093424CD0924A934263D8924A934246D098
:10289C00904A93425DD8122B2AD8122B59D801A2F8
:1028AC0052F823F02B2900080529000817290008E5
:1028BC00592900085F2900085F2900085F290008D2
:1028CC005F2900085F2900085F2900085F290008BC
:1028DC005F2900085F2900085F2900085F290008AC
:1028EC005F2900085F2900080D290008212900082C
:1028FC00794A934213D02CE03B68DB683B6229E0B9
:10290C003B68DB6804333B6224E03B68DB680833DC
:10291C003B621FE03B68DB680C333B621AE03B68B0
:10292C009B68002B02D104233B6213E03B689B683D
:10293C00012B05D108233B627B68FA691A6109E017
:10294C0008233B627B68FA695A6103E000233B620F
:10295C0000E000BFBB69FF2B01D87B6801E07B68FE
:10296C0004337B61BB69FF2B02D87B6A9B0002E0BE
:10297C007B6A083B9B003B617B691A680F213B69B2
:10298C0001FA03F3DB431A40396A3B6901FA03F39A
:10299C001A437B691A603B685B6803F08053002B19
:1029AC0000F0B1804D4B9B694C4A43F0010393619D
:1029BC004A4B9B6903F00103BB60BB68484A7B6AC6
:1029CC009B08023352F82330FB607B6A03F003034D
:1029DC009B000F2202FA03F3DB43FA681340FB60FF
:1029EC007B68404A934213D07B683F4A93420DD098
:1029FC007B683E4A934207D07B683D4A934201D1A3
:102A0C00032306E0042304E0022302E0012300E098
:102A1C0000237A6A02F0030292009340FA6813438F
:102A2C00FB602F497B6A9B080233FA6841F823202C
:102A3C003B685B6803F48033002B06D02D4B1A687F
:102A4C002C49BB6913430B6006E02A4B1A68BB691F
:102A5C00DB43284913400B603B685B6803F400338D
:102A6C00002B06D0234B5A682249BB6913434B6099
:102A7C0006E0204B5A68BB69DB431E4913404B6090
:102A8C003B685B6803F48013002B06D0194B9A68E3
:102A9C001849BB6913438B6006E0164B9A68BB69F7
:102AAC00DB43144913408B603B685B6803F40013F1
:102ABC00002B21D00F4BDA680E49BB691343CB6056
:102ACC0021E000BF00003210000031100000221085
:102ADC000000211000001210000011100010024024
:102AEC000000014000080140000C014000100140B2
:102AFC0000140140000401400B4BDA68BB69DB4356
:102B0C0009491340CB607B6A01337B623B681A68CE
:102B1C007B6A22FA03F3002B7FF48EAE00BF00BF5A
:102B2C002C37BD4680BC70470004014080B485B092
:102B3C0000AF78600B467B807B689A687B8813407B
:102B4C00002B02D00123FB7301E00023FB73FB7B02
:102B5C0018461437BD4680BC704780B483B000AFB4
:102B6C0078600B467B8013467B707B78002B03D000
:102B7C007A887B681A6103E07B881A047B681A6187
:102B8C0000BF0C37BD4680BC704780B485B000AF29
:102B9C0078600B467B807B68DB68FB607A88FB681F
:102BAC0013401A04FB68D9437B880B401A437B689B
:102BBC001A6100BF1437BD4680BC704780B582B027
:102BCC0000AF0346FB80084B5A69FB881340002B6F
:102BDC0006D0054AFB885361FB881846FFF706F9B7
:102BEC0000BF0837BD4680BD0004014080B586B0EB
:102BFC0000AF78607B68002B01D1012372E27B6807
:102C0C001B6803F00103002B00F08780924B5B687C
:102C1C0003F00C03042B0CD08F4B5B6803F00C03FC
:102C2C00082B12D18C4B5B6803F48033B3F5803FD7
:102C3C000BD1894B1B6803F40033002B6CD07B68E1
:102C4C005B68002B68D101234CE27B685B68B3F5B1
:102C5C00803F06D1804B1B687F4A43F4803313605E
:102C6C002EE07B685B68002B0CD17B4B1B687A4A8F
:102C7C0023F480331360784B1B68774A23F480234A
:102C8C0013601DE07B685B68B3F5A02F0CD1724B11
:102C9C001B68714A43F4802313606F4B1B686E4AA8
:102CAC0043F4803313600BE06B4B1B686A4A23F4CC
:102CBC0080331360684B1B68674A23F480231360CE
:102CCC007B685B68002B13D0FFF770FC386108E061
:102CDC00FFF76CFC02463B69D31A642B01D9032322
:102CEC0000E25D4B1B6803F40033002BF0D014E0C2
:102CFC00FFF75CFC386108E0FFF758FC02463B69C3
:102D0C00D31A642B01D90323ECE1534B1B6803F456
:102D1C000033002BF0D100E000BF7B681B6803F090
:102D2C000203002B63D04C4B5B6803F00C03002BAD
:102D3C000BD0494B5B6803F00C03082B1CD1464BA2
:102D4C005B6803F48033002B16D1434B1B6803F0F4
:102D5C000203002B05D07B681B69012B01D00123DA
:102D6C00C0E13D4B1B6823F0F8027B685B69DB001C
:102D7C00394913430B603AE07B681B69002B20D068
:102D8C00364B01221A60FFF711FC386108E0FFF79F
:102D9C000DFC02463B69D31A022B01D90323A1E196
:102DAC002D4B1B6803F00203002BF0D02A4B1B6841
:102DBC0023F0F8027B685B69DB00274913430B6047
:102DCC0015E0264B00221A60FFF7F0FB386108E093
:102DDC00FFF7ECFB02463B69D31A022B01D9032304
:102DEC0080E11D4B1B6803F00203002BF0D17B68C4
:102DFC001B6803F00803002B3AD07B689B69002BFF
:102E0C0019D0174B01221A60FFF7D0FB386108E08C
:102E1C00FFF7CCFB02463B69D31A022B01D90323E3
:102E2C0060E10D4B5B6A03F00203002BF0D0012034
:102E3C0000F0D8FA1CE00A4B00221A60FFF7B6FB30
:102E4C0038610FE0FFF7B2FB02463B69D31A022B45
:102E5C0008D9032346E100BF0010024000004242A3
:102E6C0080044242924B5B6A03F00203002BE9D1CF
:102E7C007B681B6803F00403002B00F0A680002382
:102E8C00FB758B4BDB6903F08053002B0DD1884B0A
:102E9C00DB69874A43F08053D361854BDB6903F0D0
:102EAC008053BB60BB680123FB75824B1B6803F42A
:102EBC008073002B18D17F4B1B687E4A43F48073C0
:102ECC001360FFF773FB386108E0FFF76FFB0246F6
:102EDC003B69D31A642B01D9032303E1754B1B689F
:102EEC0003F48073002BF0D07B68DB68012B06D1D8
:102EFC006F4B1B6A6E4A43F0010313622DE07B6833
:102F0C00DB68002B0CD16A4B1B6A694A23F0010366
:102F1C001362674B1B6A664A23F0040313621CE0BE
:102F2C007B68DB68052B0CD1614B1B6A604A43F054
:102F3C00040313625E4B1B6A5D4A43F00103136288
:102F4C000BE05B4B1B6A5A4A23F001031362584B8C
:102F5C001B6A574A23F0040313627B68DB68002B5F
:102F6C0015D0FFF723FB38610AE0FFF71FFB024681
:102F7C003B69D31A41F28832934201D90323B1E061
:102F8C004B4B1B6A03F00203002BEED014E0FFF74F
:102F9C000DFB38610AE0FFF709FB02463B69D31AC7
:102FAC0041F28832934201D903239BE0404B1B6AC8
:102FBC0003F00203002BEED1FB7D012B05D13C4B22
:102FCC00DB693B4A23F08053D3617B68DB69002BC0
:102FDC0000F08780364B5B6803F00C03082B61D044
:102FEC007B68DB69022B46D1334B00221A60FFF75A
:102FFC00DDFA386108E0FFF7D9FA02463B69D31ACB
:10300C00022B01D903236DE0294B1B6803F00073DD
:10301C00002BF0D17B681B6AB3F5803F08D1244BA1
:10302C005B6823F400327B689B68214913434B6037
:10303C001F4B5B6823F474127B68196A7B685B6AAC
:10304C000B431B4913434B601B4B01221A60FFF7C8
:10305C00ADFA386108E0FFF7A9FA02463B69D31ACA
:10306C00022B01D903233DE0114B1B6803F00073C5
:10307C00002BF0D035E0104B00221A60FFF796FAC7
:10308C00386108E0FFF792FA02463B69D31A022B2B
:10309C0001D9032326E0064B1B6803F00073002BB9
:1030AC00F0D11EE07B68DB69012B07D1012319E00D
:1030BC000010024000700040600042420B4B5B6805
:1030CC00FB60FB6803F480327B681B6A9A4206D172
:1030DC00FB6803F470127B685B6A9A4201D001238F
:1030EC0000E0002318461837BD4680BD0010024092
:1030FC0080B584B000AF786039607B68002B01D15B
:10310C000123D0E06A4B1B6803F007033A689A422C
:10311C0010D9674B1B6823F0070265493B681343C2
:10312C000B60634B1B6803F007033A689A4201D0AB
:10313C000123B8E07B681B6803F00203002B20D04E
:10314C007B681B6803F00403002B05D0594B5B68AC
:10315C00584A43F4E06353607B681B6803F0080330
:10316C00002B05D0534B5B68524A43F460535360B9
:10317C00504B5B6823F0F0027B689B684D4913430E
:10318C004B607B681B6803F00103002B40D07B680D
:10319C005B68012B07D1474B1B6803F40033002BF2
:1031AC0015D101237FE07B685B68022B07D1414B73
:1031BC001B6803F00073002B09D1012373E03D4B16
:1031CC001B6803F00203002B01D101236BE0394B88
:1031DC005B6823F003027B685B68364913434B60E2
:1031EC00FFF7E4F9F8600AE0FFF7E0F90246FB6844
:1031FC00D31A41F28832934201D9032353E02D4B69
:10320C005B6803F00C027B685B689B009A42EBD115
:10321C00274B1B6803F007033A689A4210D2244BE1
:10322C001B6823F0070222493B6813430B60204BB9
:10323C001B6803F007033A689A4201D0012332E07D
:10324C007B681B6803F00403002B08D0194B5B68E8
:10325C0023F4E0627B68DB68164913434B607B68A0
:10326C001B6803F00803002B09D0124B5B6823F496
:10327C0060527B681B69DB000E4913434B6000F006
:10328C0021F802460B4B5B681B0903F00F030A493C
:10329C00CB5C22FA03F3094A1360094B1B681846EE
:1032AC00FFF742F9002318461037BD4680BD00BF1A
:1032BC0000200240001002404C5E00081800002064
:1032CC001C00002090B48AB000AF294B3C1D0FCBE2
:1032DC0084E80F0040F201233B800023FB610023B4
:1032EC00BB6100237B6200237B6100233B62214B8B
:1032FC005B68FB61FB6903F00C03042B02D0082B09
:10330C0003D02BE01C4B3B622BE0FB699B0C03F0C6
:10331C000F0328333B4413F8243C7B61FB6903F413
:10332C008033002B12D0134B5B685B0C03F0010352
:10333C0028333B4413F8283CBB617B690E4A03FBE2
:10334C0002F2BB69B2FBF3F37B6204E07B690B4ACC
:10335C0002FB03F37B627B6A3B6202E0064B3B623F
:10336C0000BF3B6A18462837BD4690BC704700BF6B
:10337C003C5E00080010024000127A0000093D007B
:10338C0080B400AF024B1B681846BD4680BC70472A
:10339C001800002080B500AFFFF7F2FF0246054B86
:1033AC005B681B0A03F007030349CB5C22FA03F3A7
:1033BC00184680BD001002405C5E000880B500AF6E
:1033CC00FFF7DEFF0246054B5B68DB0A03F00703E1
:1033DC000349CB5C22FA03F3184680BD001002406F
:1033EC005C5E000880B485B000AF78600A4B1B6847
:1033FC000A4AA2FB03235B0A7A6802FB03F3FB6015
:10340C0000BFFB685A1EFA60002BF9D100BF00BF49
:10341C001437BD4680BC704718000020D34D621095
:10342C0080B582B000AF78607B68002B01D101239E
:10343C0076E07B685B6A002B08D17B685B68B3F530
:10344C00827F09D07B680022DA6105E07B6800226C
:10345C001A617B6800225A617B6800229A627B6841
:10346C0093F85130DBB2002B06D17B68002283F835
:10347C0050207868FEF7D8FD7B68022283F8512033
:10348C007B681B681A687B681B6822F040021A6014
:10349C007B685B6803F482727B689B6803F404436B
:1034AC001A437B68DB6803F400631A437B681B696F
:1034BC0003F002031A437B685B6903F001031A43B0
:1034CC007B689B6903F400731A437B68DB6903F028
:1034DC0038031A437B681B6A03F0800342EA03013A
:1034EC007B689B6A03F400527B681B680A431A6072
:1034FC007B689B691A0C7B681B6802F004025A609B
:10350C007B681B68DA697B681B6822F40062DA61ED
:10351C007B6800225A657B68012283F851200023C6
:10352C0018460837BD4680BD80B588B002AFF8603C
:10353C00B9603B601346FB800023FB75FB685B683E
:10354C00B3F5827F12D1FB689B68002B0ED1FB6810
:10355C00042283F85120FA883B6800931346BA681A
:10356C00B968F86800F0F1F80346EAE0FB6893F8F4
:10357C005030012B01D10223E3E0FB68012283F8D8
:10358C005020FFF713F83861FB6893F85130DBB229
:10359C00012B02D00223FB75CAE0BB68002B02D0C2
:1035AC00FB88002B02D10123FB75C1E0FB680422D0
:1035BC0083F85120FB6800225A65FB68BA689A634D
:1035CC00FB68FA889A87FB68FA88DA87FB6800221E
:1035DC001A63FB6800229A86FB680022DA86FB6875
:1035EC0000221A64FB6800225A64FB689B68B3F5DE
:1035FC00004F0FD1FB681B681A68FB681B6822F030
:10360C0040021A60FB681B681A68FB681B6822F48E
:10361C0080421A60FB681B681B6803F04003402B58
:10362C0007D0FB681B681A68FB681B6842F04002F5
:10363C001A60FB68DB68002B62D12EE0FB681B680C
:10364C009B6803F00103012B15D1FB681B6803F188
:10365C000C02FB689B6B1278D2B21A70FB689B6BE6
:10366C005A1CFB689A63FB68DB8F9BB2013B9AB2D6
:10367C00FB68DA8711E0FEF799FF02463B69D31A23
:10368C003A689A4203D83B68B3F1FF3F02D13B68DA
:10369C00002B02D10323FB754AE0FB68DB8F9BB246
:1036AC00002BCBD131E0FB681B689B6803F0010356
:1036BC00012B13D1FB681B68DA68FB689B6B92B219
:1036CC001A80FB689B6B9A1CFB689A63FB68DB8F08
:1036DC009BB2013B9AB2FB68DA8711E0FEF766FFFA
:1036EC0002463B69D31A3A689A4203D83B68B3F155
:1036FC00FF3F02D13B68002B02D10323FB7517E07F
:10370C00FB68DB8F9BB2002BCDD13A693968F86826
:10371C0000F046FA0346002B02D0FB6820225A65C3
:10372C00FB685B6D002B02D00123FB7500E000BF32
:10373C00FB68012283F85120FB68002283F850209B
:10374C00FB7D18461837BD4680BD80B58CB000AFE8
:10375C00F860B9607A607B800123FB62002387F8F4
:10376C002B30FB6893F85030012B01D102238AE1F6
:10377C00FB68012283F85020FEF718FF7862FB6883
:10378C0093F8513087F82330FB685B68FB617B88CA
:10379C007B8397F82330012B0FD0FB69B3F5827F25
:1037AC0007D1FB689B68002B03D197F82330042BBF
:1037BC0003D0022387F82B305BE1BB68002B05D0CC
:1037CC007B68002B02D07B88002B03D1012387F868
:1037DC002B304EE1FB6893F85130DBB2042B03D055
:1037EC00FB68052283F85120FB6800225A65FB68B0
:1037FC007A689A63FB687A88DA87FB687A889A8792
:10380C00FB68BA681A63FB687A88DA86FB687A8880
:10381C009A86FB6800221A64FB6800225A64FB68D3
:10382C001B681B6803F04003402B07D0FB681B6828
:10383C001A68FB681B6842F040021A60FB68DB6880
:10384C00B3F5006F78D1FB685B68002B02D07B8BE3
:10385C00012B66D1FB681B6B1A88FB681B68DA604E
:10386C00FB681B6B9A1CFB681A63FB68DB8E9BB2B4
:10387C00013B9AB2FB68DA8653E0FB681B689B68D5
:10388C0003F00203022B1BD1FB68DB8E9BB2002BD7
:10389C0016D0FB6A012B13D1FB681B6B1A88FB68D3
:1038AC001B68DA60FB681B6B9A1CFB681A63FB686D
:1038BC00DB8E9BB2013B9AB2FB68DA860023FB627B
:1038CC00FB681B689B6803F00103012B19D1FB6893
:1038DC00DB8F9BB2002B14D0FB681B68DA68FB688B
:1038EC009B6B92B21A80FB689B6B9A1CFB689A6369
:1038FC00FB68DB8F9BB2013B9AB2FB68DA87012332
:10390C00FB62FEF753FE02467B6AD31ABA6B9A42ED
:10391C0007D8BB6BB3F1FF3F03D0032387F82B30E1
:10392C00A7E0FB68DB8E9BB2002BA6D1FB68DB8F7C
:10393C009BB2002BA1D17CE0FB685B68002B02D012
:10394C007B8B012B6BD1FB681A6BFB681B680C33F0
:10395C0012781A70FB681B6B5A1CFB681A63FB68A5
:10396C00DB8E9BB2013B9AB2FB68DA8657E0FB68B0
:10397C001B689B6803F00203022B1CD1FB68DB8ED7
:10398C009BB2002B17D0FB6A012B14D1FB681A6B6E
:10399C00FB681B680C3312781A70FB681B6B5A1C83
:1039AC00FB681A63FB68DB8E9BB2013B9AB2FB6827
:1039BC00DA860023FB62FB681B689B6803F001033B
:1039CC00012B19D1FB68DB8F9BB2002B14D0FB6849
:1039DC001B68DA68FB689B6BD2B21A70FB689B6B36
:1039EC005A1CFB689A63FB68DB8F9BB2013B9AB253
:1039FC00FB68DA870123FB62FEF7D8FD02467B6A7F
:103A0C00D31ABA6B9A4203D8BB6BB3F1FF3F02D106
:103A1C00BB6B002B03D1032387F82B3029E0FB6809
:103A2C00DB8E9BB2002BA2D1FB68DB8F9BB2002BF1
:103A3C009DD17A6AB96BF86800F004F90346002B43
:103A4C0006D0012387F82B30FB6820225A6510E042
:103A5C00FB689B68002B0BD100237B61FB681B6808
:103A6C00DB687B61FB681B689B687B617B6900E0A2
:103A7C0000BFFB68012283F85120FB68002283F809
:103A8C00502097F82B3018463037BD4680BD0000CB
:103A9C0080B588B000AFF860B9603B601346FB712D
:103AAC00FEF784FD0246BB6A9B1A3A681344FB611D
:103ABC00FEF77CFDB861394B1B685B011B0DFA6985
:103ACC0002FB03F37B6154E03B68B3F1FF3F50D042
:103ADC00FEF76CFD0246BB69D31AFA699A4202D909
:103AEC00FB69002B3DD1FB681B685A68FB681B689F
:103AFC0022F0E0025A60FB685B68B3F5827F11D15B
:103B0C00FB689B68B3F5004F04D0FB689B68B3F56A
:103B1C00806F07D1FB681B681A68FB681B6822F072
:103B2C0040021A60FB689B6AB3F5005F0FD1FB681B
:103B3C001B681A68FB681B6822F400521A60FB6849
:103B4C001B681A68FB681B6842F400521A60FB6819
:103B5C00012283F85120FB68002283F850200323B4
:103B6C0017E07B69002B01D10023FB617B69013BD2
:103B7C007B61FB681B689A68BB681340BA689A4201
:103B8C000CBF01230023DBB21A46FB799A429BD16E
:103B9C00002318462037BD4680BD00BF180000200A
:103BAC0080B586B002AFF860B9607A60FB685B687C
:103BBC00B3F5827F11D1FB689B68B3F5004F04D03D
:103BCC00FB689B68B3F5806F07D1FB681B681A68AC
:103BDC00FB681B6822F040021A60FB685B68B3F557
:103BEC00827F17D1FB689B68B3F5806F12D17B681D
:103BFC000093BB6800220121F868FFF749FF0346D8
:103C0C00002B1AD0FB685B6D43F02002FB685A65F1
:103C1C00032313E07B680093BB6800228021F868C3
:103C2C00FFF736FF0346002B07D0FB685B6D43F0B4
:103C3C002002FB685A65032300E000231846103766
:103C4C00BD4680BD80B586B002AFF860B9607A60C1
:103C5C007B680093BB6800228021F868FFF718FF8F
:103C6C000346002B07D0FB685B6D43F02002FB681A
:103C7C005A65032300E0002318461037BD4680BD6B
:103C8C0080B582B000AF78607B68002B01D1012336
:103C9C0041E07B6893F83D30DBB2002B06D17B68AA
:103CAC00002283F83C207868FEF766FB7B680222D2
:103CBC0083F83D207B681A687B68043319461046EC
:103CCC0000F09EFA7B68012283F846207B68012273
:103CDC0083F83E207B68012283F83F207B68012219
:103CEC0083F840207B68012283F841207B68012205
:103CFC0083F842207B68012283F843207B680122F1
:103D0C0083F844207B68012283F845207B680122DC
:103D1C0083F83D20002318460837BD4680BD0000BF
:103D2C0080B485B000AF78607B6893F83D30DBB22F
:103D3C00012B01D001233AE07B68022283F83D205D
:103D4C007B681B68DA687B681B6842F00102DA60EA
:103D5C007B681B68184A93420ED07B681B68B3F1D2
:103D6C00804F09D07B681B68144A934204D07B684F
:103D7C001B68134A934211D17B681B689B6803F044
:103D8C000703FB60FB68062B10D07B681B681A6866
:103D9C007B681B6842F001021A6007E07B681B68B5
:103DAC001A687B681B6842F001021A6000231846EF
:103DBC001437BD4680BC7047002C01400004004005
:103DCC000008004080B483B000AF78607B681B684B
:103DDC00DA687B681B6822F00102DA607B681B687A
:103DEC001A6A41F211131340002B0FD17B681B6828
:103DFC001A6A40F244431340002B07D17B681B68BE
:103E0C001A687B681B6822F001021A607B68012229
:103E1C0083F83D20002318460C37BD4680BC704704
:103E2C0080B582B000AF78607B681B681B6903F0BB
:103E3C000203022B22D17B681B68DB6803F00203B0
:103E4C00022B1BD17B681B686FF002021A617B6826
:103E5C0001221A777B681B689B6903F00303002B14
:103E6C0003D0786800F0B1F905E0786800F0A4F9A7
:103E7C00786800F0B3F97B6800221A777B681B68BE
:103E8C001B6903F00403042B22D17B681B68DB68DD
:103E9C0003F00403042B1BD17B681B686FF0040236
:103EAC001A617B6802221A777B681B689B6903F492
:103EBC004073002B03D0786800F087F905E0786830
:103ECC0000F07AF9786800F089F97B6800221A779B
:103EDC007B681B681B6903F00803082B22D17B68E5
:103EEC001B68DB6803F00803082B1BD17B681B687D
:103EFC006FF008021A617B6804221A777B681B68D2
:103F0C00DB6903F00303002B03D0786800F05DF944
:103F1C0005E0786800F050F9786800F05FF97B688C
:103F2C0000221A777B681B681B6903F01003102BA7
:103F3C0022D17B681B68DB6803F01003102B1BD1AC
:103F4C007B681B686FF010021A617B6808221A7775
:103F5C007B681B68DB6903F44073002B03D0786823
:103F6C0000F033F905E0786800F026F9786800F085
:103F7C0035F97B6800221A777B681B681B6903F094
:103F8C000103012B0ED17B681B68DB6803F0010376
:103F9C00012B07D17B681B686FF001021A617868EE
:103FAC00FDF740FF7B681B681B6903F08003802BC7
:103FBC000ED17B681B68DB6803F08003802B07D174
:103FCC007B681B686FF080021A61786800F077FAE2
:103FDC007B681B681B6903F04003402B0ED17B6888
:103FEC001B68DB6803F04003402B07D17B681B6820
:103FFC006FF040021A61786800F0F9F87B681B6872
:10400C001B6903F02003202B0ED17B681B68DB6837
:10401C0003F02003202B07D17B681B686FF0200274
:10402C001A61786800F042FA00BF0837BD4680BDBF
:10403C0080B584B000AF786039607B6893F83C3011
:10404C00012B01D10223B3E07B68012283F83C20D1
:10405C007B68022283F83D207B681B689B68FB60B1
:10406C00FB6823F07703FB60FB6823F47F43FB6062
:10407C007B681B68FA689A603B681B68B3F5005F45
:10408C003ED0B3F5005F00F28780B3F5805F00F09F
:10409C008580B3F5805F7FD8702B1AD0702B7BD8BE
:1040AC00602B50D0602B77D8502B3CD0502B73D832
:1040BC00402B58D0402B6FD8302B64D0302B6BD882
:1040CC00202B60D0202B67D8002B5CD0102B5AD023
:1040DC0062E07B6818683B6899683B685A683B6883
:1040EC00DB6800F066F97B681B689B68FB60FB680B
:1040FC0043F07703FB607B681B68FA689A604EE0BC
:10410C007B6818683B6899683B685A683B68DB6851
:10411C0000F04FF97B681B689A687B681B6842F457
:10412C0080429A603BE07B6818683B6859683B6842
:10413C00DB681A4600F0C6F87B681B6850211846ED
:10414C0000F01DF92BE07B6818683B6859683B68E8
:10415C00DB681A4600F0E4F87B681B68602118469F
:10416C0000F00DF91BE07B6818683B6859683B68E8
:10417C00DB681A4600F0A6F87B681B6840211846DD
:10418C0000F0FDF80BE07B681A683B681B68194669
:10419C00104600F0F4F802E000BF00E000BF7B68BE
:1041AC00012283F83D207B68002283F83C20002309
:1041BC0018461037BD4680BD80B483B000AF786020
:1041CC0000BF0C37BD4680BC704780B483B000AFD5
:1041DC00786000BF0C37BD4680BC704780B483B09C
:1041EC0000AF786000BF0C37BD4680BC704780B410
:1041FC0083B000AF786000BF0C37BD4680BC704701
:10420C0080B485B000AF786039607B681B68FB6058
:10421C007B68294A93420BD07B68B3F1804F07D05F
:10422C007B68264A934203D07B68254A934208D187
:10423C00FB6823F07003FB603B685B68FA68134310
:10424C00FB607B681C4A93420BD07B68B3F1804FB8
:10425C0007D07B68194A934203D07B68184A934273
:10426C0008D1FB6823F44073FB603B68DB68FA6899
:10427C001343FB60FB6823F080023B685B691343CC
:10428C00FB607B68FA681A603B689A687B68DA6244
:10429C003B681A687B689A627B68074A934203D131
:1042AC003B681A697B681A637B6801225A6100BFFC
:1042BC001437BD4680BC7047002C01400004004000
:1042CC000008004080B487B000AFF860B9607A6035
:1042DC00FB681B6A7B61FB681B6A23F00102FB68AD
:1042EC001A62FB689B693B613B6923F0F0033B61FD
:1042FC007B681B013A6913433B617B6923F00A031A
:10430C007B617A69BB6813437B61FB683A699A618C
:10431C00FB687A691A6200BF1C37BD4680BC7047C7
:10432C0080B487B000AFF860B9607A60FB681B6A34
:10433C0023F01002FB681A62FB689B697B61FB68C7
:10434C001B6A3B617B6923F470437B617B681B03B5
:10435C007A6913437B613B6923F0A0033B61BB6823
:10436C001B013A6913433B61FB687A699A61FB68EC
:10437C003A691A6200BF1C37BD4680BC704780B4D6
:10438C0085B000AF786039607B689B68FB60FB6828
:10439C0023F07003FB603A68FB68134343F0070398
:1043AC00FB607B68FA689A6000BF1437BD4680BC1E
:1043BC00704780B487B000AFF860B9607A603B603A
:1043CC00FB689B687B617B6923F47F437B613B6863
:1043DC001A027B681A43BB6813437A6913437B61E7
:1043EC00FB687A699A6000BF1C37BD4680BC704779
:1043FC0080B485B000AF786039607B6893F83C304E
:10440C00012B01D1022346E07B68012283F83C207A
:10441C007B68022283F83D207B681B685B68FB602D
:10442C007B681B689B68BB60FB6823F07003FB60B8
:10443C003B681B68FA681343FB607B681B68FA686F
:10444C005A607B681B68164A93420ED07B681B68C7
:10445C00B3F1804F09D07B681B68124A934204D099
:10446C007B681B68104A93420CD1BB6823F0800315
:10447C00BB603B685B68BA681343BB607B681B68B6
:10448C00BA689A607B68012283F83D207B68002221
:10449C0083F83C20002318461437BD4680BC704777
:1044AC00002C0140000400400008004080B483B0A0
:1044BC0000AF786000BF0C37BD4680BC704780B43D
:1044CC0083B000AF786000BF0C37BD4680BC70472E
:1044DC0080B582B000AF78607B68002B01D10123DE
:1044EC003FE07B6893F83D30DBB2002B06D17B6854
:1044FC00002283F83C207868FDF78EFF7B6824222D
:10450C0083F83D207B681B68DA687B681B6822F4A3
:10451C000052DA60786800F005F97B681B681A694C
:10452C007B681B6822F490421A617B681B685A698D
:10453C007B681B6822F02A025A617B681B68DA6868
:10454C007B681B6842F40052DA607B6800221A64B4
:10455C007B68202283F83D207B68202283F83E2054
:10456C00002318460837BD4680BD80B58AB002AF1F
:10457C00F860B9603B601346FB8000237B61FB68ED
:10458C0093F83D30DBB2202B7CD1BB68002B02D0E2
:10459C00FB88002B01D1012375E0FB6893F83C30BC
:1045AC00012B01D102236EE0FB68012283F83C2031
:1045BC00FB6800221A64FB68212283F83D20FDF77A
:1045CC00F5FF7861FB68FA889A84FB68FA88DA84CC
:1045DC00FB689B68B3F5805F08D1FB681B69002BF7
:1045EC0004D10023FB61BB68BB6103E0BB68FB61CA
:1045FC000023BB61FB68002283F83C202AE03B6867
:10460C0000937B6900228021F86800F040F8034693
:10461C00002B01D0032336E0FB69002B0BD1BB69C7
:10462C001B881A46FB681B68C2F308025A60BB69F8
:10463C000233BB6107E0FB691A78FB681B685A60A0
:10464C00FB690133FB61FB68DB8C9BB2013B9AB2CB
:10465C00FB68DA84FB68DB8C9BB2002BCFD13B6808
:10466C0000937B6900224021F86800F010F80346A3
:10467C00002B01D0032306E0FB68202283F83D20A9
:10468C00002300E0022318462037BD4680BD80B5CC
:10469C0084B000AFF860B9603B601346FB712CE04E
:1046AC00BB69B3F1FF3F28D0BB69002B07D0FDF7E6
:1046BC007DFF02463B68D31ABA699A421DD2FB6849
:1046CC001B68DA68FB681B6822F4D072DA60FB683E
:1046DC001B685A69FB681B6822F001025A61FB686F
:1046EC00202283F83D20FB68202283F83E20FB68C3
:1046FC00002283F83C2003230FE0FB681B681A6838
:10470C00BB681340BA689A420CBF01230023DBB28A
:10471C001A46FB799A42C3D0002318461037BD467F
:10472C0080BD000080B584B000AF78607B681B68EA
:10473C001B6923F440517B68DA687B681B680A4369
:10474C001A617B689A687B681B691A437B685B6992
:10475C001343BB607B681B68DB6823F4B05323F006
:10476C000C037A681268B9680B43D3607B681B68CA
:10477C005B6923F440717B689A697B681B680A4308
:10478C005A617B681B682C4A934203D1FEF716FED4
:10479C00F86002E0FEF7FEFDF860FA6813469B0035
:1047AC0013449A001A447B685B689B00B2FBF3F3DA
:1047BC00224AA2FB03235B091901FA6813469B00EA
:1047CC0013449A001A447B685B689B00B2FBF3F2BB
:1047DC001A4BA3FB02035B09642000FB03F3D31AFF
:1047EC001B013233154AA2FB03235B0903F0F003D0
:1047FC001944FA6813469B0013449A001A447B68C8
:10480C005B689B00B2FBF3F20C4BA3FB02035B094E
:10481C00642000FB03F3D31A1B013233074AA2FBBB
:10482C0003235B0903F00F027B681B680A449A6040
:10483C0000BF1037BD4680BD003801401F85EB51CD
:10484C00014B1868704700BF2400002070B500268B
:10485C000C4D0D4C641BA410A64209D101F008FAB2
:10486C0000260A4D0A4C641BA410A64205D170BD4B
:10487C0055F8043B98470136EEE755F8043B98474A
:10488C000136F2E7FC5E0008FC5E0008FC5E0008E6
:10489C00005F000803460244934200D1704703F8BE
:1048AC00011BF9E70FB40A4B13B51C6824B1A369BB
:1048BC0013B9204600F07AFA05AB2046049AA16899
:1048CC00019300F0D9FD02B0BDE8104004B0704770
:1048DC002400002070B50E46054618B183690BB94B
:1048EC0000F064FAAB69AC6813B9284600F05EFAC4
:1048FC002C4B9C4220D16C68636EDB0705D4A389DA
:10490C00980502D4A06D00F0EFFAA38919071DD504
:10491C002369DBB1013EA36816F8011F013BA360BC
:10492C0039BB002B38DA22460A21284600F068F8F9
:10493C00013011D00A2511E01B4B9C4201D1AC680F
:10494C00DAE71A4B9C4208BFEC68D5E721462846AB
:10495C0000F0A8F80028DDD04FF0FF35636EDA07C1
:10496C0005D4A3899B0502D4A06D00F0BEFA28469D
:10497C0070BD002B04DAA2699A4206DC0A2904D025
:10498C0023685A1C22601970C5E72246284600F09D
:10499C0037F80130BFD1DFE70A2523685A1C2260A3
:1049AC001D70DBE7885E0008A85E0008685E0008E2
:1049BC00024B01461868FFF78DBF00BF2400002092
:1049CC000EB46FF0004100B59CB01DAB0290069088
:1049DC00079104910848094953F8042B0591006884
:1049EC0002A9019300F020FC0022029B1A701CB05B
:1049FC005DF804EB03B07047240000200802FFFFB1
:104A0C00F8B50E461446054618B183690BB900F08B
:104A1C00CDF9214B9C422BD16C68A369A360A3896F
:104A2C001A072FD523696BB323692068F6B2C01A15
:104A3C0063693746834204DC2146284600F022F99C
:104A4C0030BBA3680130013BA36023685A1C226071
:104A5C001E706369834204D0A389DB0706D50A2E36
:104A6C0004D12146284600F00DF988B93846F8BD26
:104A7C000A4B9C4201D1AC68CFE7094B9C4208BF62
:104A8C00EC68CAE72146284600F00CF80028CBD089
:104A9C004FF0FF37EAE700BF885E0008A85E000809
:104AAC00685E0008324B70B51D6806460C4625B191
:104ABC00AB6913B9284600F079F92E4B9C420FD103
:104ACC006C68A389B4F90C2019072CD4DD0611D419
:104ADC000923336042F040034FF0FF30A3813EE0E6
:104AEC00254B9C4201D1AC68EBE7244B9C4208BFA0
:104AFC00EC68E6E7580712D5616B41B104F1440349
:104B0C00994202D0304600F057FA00236363A38920
:104B1C0023F02403A3810023636023692360A3890A
:104B2C0043F00803A38123694BB9A38903F42073D1
:104B3C00B3F5007F03D02146304600F0FDF9A08983
:104B4C00B4F90C2010F001030AD00023A3606369B0
:104B5C005B42A361236943B910F08000BAD170BDE8
:104B6C00810758BF6369A360F4E70020F7E700BF33
:104B7C0024000020885E0008A85E0008685E00081B
:104B8C008A89F8B5054610070C4657D44B68002B9C
:104B9C0004DC0B6C002B01DC0020F8BDE66A002E57
:104BAC00FAD0002312F480522F682B6032D0606D43
:104BBC00A3895A0705D56368C01A636B0BB1236CC4
:104BCC00C01A00230246E66A2846216AB047431CF5
:104BDC00A38906D129681D292CD8294ACA40D60791
:104BEC0028D5002262602269D904226004D5421CB7
:104BFC0001D12B6803B96065616B2F600029CBD0A4
:104C0C0004F14403994202D0284600F0D5F9002063
:104C1C006063C2E7216A01232846B047411CC7D113
:104C2C002B68002BC4D01D2B01D0162B01D12F606B
:104C3C00B2E7A38943F04003A381AEE70F69002FCD
:104C4C00AAD0930718BF00230E6808BF4B69F61B48
:104C5C000F608B60002E9FDD33463A462846216A52
:104C6C00D4F828C0E047002806DCA3894FF0FF30B9
:104C7C0043F04003A38190E70744361AEAE700BFEC
:104C8C000100402038B50B6905460C4613B90025C8
:104C9C00284638BD18B183690BB900F087F8144B5E
:104CAC009C421BD16C68B4F90C30002BEFD0626EB7
:104CBC00D00704D4990502D4A06D00F015F928464C
:104CCC002146FFF75DFF636E0546DA07E0D4A38942
:104CDC009B05DDD4A06D00F008F9D9E7054B9C428B
:104CEC0001D1AC68DFE7044B9C4208BFEC68DAE703
:104CFC00885E0008A85E0008685E0008002310B5F6
:104D0C000446C0E90033C0E9043383608181436603
:104D1C00C2818361194608225C30FFF7BBFD054B4D
:104D2C0024626362044BA362044BE362044B23636F
:104D3C0010BD00BF315A0008535A00088B5A0008A6
:104D4C00AF5A0008014900F0AFB800BF914C000801
:104D5C00682270B54D1E55430E4605F1740100F0E6
:104D6C0093F9044640B10021C0E900160C30A06054
:104D7C0005F16802FFF78EFD204670BD014800F07A
:104D8C00B3B800BF3D020020014800F0AEB800BF30
:104D9C003D020020014800F0A7B800BF3E020020F1
:104DAC00014800F0A2B800BF3E02002010B5044636
:104DBC00FFF7F0FFA3691BB1BDE81040FFF7F0BF90
:104DCC00C4E912332365134B134A1B68A262A34236
:104DDC0008BF0123204608BFA36100F01FF86060E4
:104DEC00204600F01BF8A060204600F017F80022C7
:104DFC000421E0606068FFF781FF01220921A068AF
:104E0C00FFF77CFF02221221E068FFF777FF0123F6
:104E1C00A361D1E7645E0008514D0008F8B5074660
:104E2C00FFF7ACFF1E4B1E68B36913B93046FFF792
:104E3C00BDFF4836D6E90134013B03D533680BB3CB
:104E4C003668F7E7B4F90C50D5B9164B04F1580095
:104E5C00E360656600F047F8FFF796FF08222946E5
:104E6C00C4E90155C4E904552560A56104F15C0051
:104E7C00FFF710FDC4E90D55C4E912552046F8BDE5
:104E8C006834D9E704213846FFF762FF04463060E6
:104E9C000028D5D1FFF778FF0C233B60EEE700BF6D
:104EAC00645E00080100FFFF2DE9F84306468846C2
:104EBC00002700F14804D4E90195B9F1010905D5A1
:104ECC002468002CF7D13846BDE8F883AB89012B58
:104EDC0007D9B5F90E30013303D029463046C04707
:104EEC0007436835E9E770477047704770B50E4661
:104EFC00B1F90E10144600291D4696B008DA0022AE
:104F0C00B6F90C302A601A0610D44FF480630EE008
:104F1C006A4600F0EDFD0028F1DB019A02F47042C4
:104F2C00A2F500535A425A412A60EEE74023002072
:104F3C00236016B070BD00008B8973B59D070646C3
:104F4C000C4607D504F147032360236101236361F9
:104F5C0002B070BD6A4601ABFFF7C8FF0099054669
:104F6C00304600F091F848B9B4F90C309A05EFD4FA
:104F7C0023F0030343F00203A381E3E70D4BB36279
:104F8C00A389206043F08003A381009B20616361AF
:104F9C00019B5BB13046B4F90E1000F0BBFD28B19B
:104FAC00A38923F0030343F00103A381A0890543E4
:104FBC00A581CDE7514D000838B50546002940D0F4
:104FCC0051F8043C0C1F002BB8BFE41800F0FAFD9C
:104FDC001C4A136833B9636014602846BDE8384036
:104FEC0000F0F6BDA34208D9206821188B4201BFFE
:104FFC0019685B6809182160EDE71A465B680BB10C
:10500C00A342FAD911685018A0420BD12068014470
:10501C00501883421160E0D118685B68014411603C
:10502C005360DAE702D90C232B60D6E720682118ED
:10503C008B4201BF19685B6809182160636054607A
:10504C00CBE738BD4002002070B50E4E0C463168DF
:10505C00054611B900F0D6FC30602146284600F018
:10506C00D1FC431C0AD0C41C24F00304A04207D07A
:10507C00211A284600F0C6FC013001D14FF0FF3454
:10508C00204670BD440200202DE9F041CD1C25F0D6
:10509C00030508350C2D38BF0C25002D074601DB08
:1050AC00A94205D90C2300263B603046BDE8F081AF
:1050BC002E4E00F087FD33681C4634BB294638461B
:1050CC00FFF7C2FF431C04464DD134682646002E20
:1050DC0040D123683146384604EB030800F092FCBB
:1050EC0080453AD1216803356D1A25F00305083542
:1050FC000C2D38BF0C2538462946FFF7A5FF01308B
:10510C002BD023682B4423600EE02268521B1ED444
:10511C000B2A16D96119A342256018BF5960636820
:10512C0008BF316062514B60384604F10B0600F049
:10513C004FFD26F00706231DF21AB6D09B1BA35079
:10514C00B3E76268A3420CBF32605A60ECE72346B7
:10515C006468B2E734467668B9E70C2338463B609E
:10516C0000F036FDA1E72560DEE700BF400200201D
:10517C002DE9F0478E6882469E420C4690461F46AB
:10518C0038D88A8912F4906F32D0256809690133B6
:10519C00A5EB010965694B4405EB450505EBD57598
:1051AC006D109D4238BF1D46530531D52946FFF77A
:1051BC006BFF064650B90C234FF0FF30CAF8003095
:1051CC00A38943F04003A381BDE8F0874A462169D7
:1051DC0000F0D0FCA38923F4906343F08003A381F7
:1051EC0026614E4426603E466561A5EB0905A56027
:1051FC00BE4200D93E4632464146206800F0C8FC0B
:10520C00A36800209B1BA360236833442360DBE767
:10521C002A4600F0E3FC06460028E1D150462169FD
:10522C00FFF7CAFEC7E700002DE9F04F98468B89BF
:10523C0007461B060D4614469DB00ED50B6963B987
:10524C004021FFF721FF2860286120B90C233B6027
:10525C004FF0FF30D1E040236B61002309932023F2
:10526C008DF8293030234FF00109CDF80C80DFF890
:10527C00A4818DF82A3023469A4613F8012B0AB1E3
:10528C00252AF9D1BAEB040B0BD05B4622462946F2
:10529C003846FFF76DFF013000F0AA80099A5A4496
:1052AC0009929AF80030002B00F0A28000234FF0F6
:1052BC00FF32CDE905230AF1010A049307938DF817
:1052CC0053301A935446052214F8011B514800F030
:1052DC0043FC049AD8B9D00644BF20238DF8533030
:1052EC00110744BF2B238DF853309AF800302A2B2A
:1052FC0015D0544600204FF00A0C079A214611F89D
:10530C00013B303B092B4ED9B0B1079214E0A0EB16
:10531C00080309FA03F31343A2460493D2E7039B51
:10532C00191D1B680391002BBBBF5B4242F00202AC
:10533C0007930793B8BF049223782E2B0CD1637874
:10534C002A2B35D1039B02341A1D1B680392002BA8
:10535C00B8BF4FF0FF330593DFF8BCA003225046D3
:10536C00217800F0F9FB40B14023A0EB0A0003FACE
:10537C0000F0049B01340343049314F8011B062230
:10538C0026488DF8281000F0E7FB002838D0244B75
:10539C001BBB039B073323F0070308330393099BC1
:1053AC003344099367E70C4601200CFB0232A5E756
:1053BC0000234FF00A0C194601340593204610F8CF
:1053CC00012B303A092A03D9002BC5D00591C3E72C
:1053DC00044601230CFB0121F0E703AB00932A46A2
:1053EC003846104B04A9AFF30080421C0646D6D1B8
:1053FC00AB895B063FF52CAF09981DB0BDE8F08F6B
:10540C0003AB00932A463846064B04A900F0D4F9A6
:10541C00EBE700BFC85E0008CE5E0008D25E000855
:10542C00000000007D510008936810B4013B002B74
:10543C00936007DA9469A34201DB0A2902D110BCFC
:10544C00FFF7DEBA1368581C10601970084610BCC0
:10545C007047F8B506460F461446D518AC4201D134
:10546C00002007E03A46304614F8011BFFF7DCFF3A
:10547C00431CF3D1F8BD00002DE9F04F0D46144646
:10548C00984606469DB018B183690BB9FFF78EFCA0
:10549C00894B9D421BD175686B6ED90705D4AB89BE
:1054AC009A0502D4A86DFFF71FFDAB891B0701D528
:1054BC002B69EBB929463046FFF7F4FAC0B16B6E95
:1054CC00DC070ED54FF0FF301DB0BDE8F08F7B4BE5
:1054DC009D4201D1B568DFE7794B9D4208BFF56865
:1054EC00DAE7AB899805EDD4A86DFFF7FEFCE9E788
:1054FC000023099320238DF8293030234FF0010924
:10550C00CDF80C80DFF8BC818DF82A3023469A4602
:10551C0013F8012B0AB1252AF9D1BAEB040B0BD0E5
:10552C005B46224629463046FFF793FF013000F0D8
:10553C00AA80099A5A4409929AF80030002B00F07C
:10554C00A28000234FF0FF32CDE905230AF1010AB6
:10555C00049307938DF853301A935446052214F88C
:10556C00011B584800F0F8FA049AD8B9D10644BF88
:10557C0020238DF85330130744BF2B238DF8533061
:10558C009AF800302A2B15D0544600204FF00A0C04
:10559C00079A214611F8013B303B092B4ED9B0B18B
:1055AC00079214E0A0EB080309FA03F31343A24695
:1055BC000493D2E7039B191D1B680391002BBBBFFF
:1055CC005B4242F0020207930793B8BF0492237820
:1055DC002E2B0CD163782A2B35D1039B02341A1D48
:1055EC001B680392002BB8BF4FF0FF330593DFF815
:1055FC00D8A003225046217800F0AEFA40B14023E7
:10560C00A0EB0A0003FA00F0049B0134034304935B
:10561C0014F8011B06222D488DF8281000F09CFA76
:10562C0000283FD02A4B1BBB039B073323F00703F7
:10563C0008330393099B3B44099367E70C4601200D
:10564C000CFB0232A5E700234FF00A0C194601347B
:10565C000593204610F8012B303A092A03D9002B68
:10566C00C5D00591C3E7044601230CFB0121F0E7EB
:10567C0003AB00932A463046164B04A9AFF30080C7
:10568C000746781CD6D16B6ED90705D4AB899A0521
:10569C0002D4A86DFFF729FCAB895B063FF512AF6E
:1056AC00099811E703AB00932A463046094B04A92D
:1056BC0000F082F8E4E700BF885E0008A85E0008EE
:1056CC00685E0008C85E0008CE5E0008D25E000866
:1056DC00000000005F5400082DE9F047164699467B
:1056EC008A680B6907469342B8BF1346336091F83A
:1056FC0043200C46DDF820800AB101333360236867
:10570C00990642BF336802333360256815F00605ED
:10571C0006D104F1190AE36832689B1AAB4228DC03
:10572C0094F84320131E226818BF012392062DD42F
:10573C004946384604F14302C047013020D0236863
:10574C00E56803F00603042B18BF002532684FF000
:10575C000006A36808BFAD1A226908BF25EAE575E3
:10576C009342C4BF9B1AED181A34B5421AD10020CB
:10577C0008E00123524649463846C047013003D160
:10578C004FF0FF30BDE8F0870135C4E73020E11859
:10579C0081F843005A1C94F845102244023382F8D5
:1057AC004310C5E70123224649463846C04701301D
:1057BC00E6D00136D9E700002DE9FF470F7E914670
:1057CC00782F80460C469A460C9D01F1430207D86F
:1057DC00622F0AD8002F00F0D980582F00F0A48037
:1057EC0004F1420584F842703AE0A7F16303152BEB
:1057FC00F6D801A151F823F05D5800087158000843
:10580C00ED570008ED570008ED570008ED5700085C
:10581C0071580008ED570008ED570008ED570008C7
:10582C00ED5700087F590008A1580008615900087D
:10583C00ED570008ED570008A1590008ED57000876
:10584C00A1580008ED570008ED57000869590008E9
:10585C002B681A1D1B682A6004F1420584F842303B
:10586C000123A4E020682968060601F104030AD587
:10587C000E682B60002E03DA2D23764284F8433019
:10588C000A235E4819E00E6810F0400F2B6018BF19
:10589C0036B2EFE72B682068191D2960010601D587
:1058AC001E6802E04606FBD51E886F2F0CBF08232E
:1058BC000A235248002184F843106568002DA8BFC4
:1058CC002168A560A4BF21F0040121600EB9002D50
:1058DC004DD01546B6FBF3F103FB1167C75D05F818
:1058EC00017D3746BB420E46F4D9082B0BD12368F9
:1058FC00DE0708D5236961689942DEBF302305F8BD
:10590C00013C05F1FF35521B22614B4621464046B6
:10591C00CDF800A003AAFFF7DFFE01304CD14FF009
:10592C00FF3004B0BDE8F087344881F84570296831
:10593C00236851F8046B29601D0614D5DF0744BF9A
:10594C0043F0200323601EB9236823F02003236057
:10595C001023AFE7236843F0200323607823284803
:10596C0084F84530E3E7590648BFB6B2E6E715467A
:10597C00BBE72B682668181D6169286035061B6813
:10598C0001D5196002E07006FBD51980002315467D
:10599C002361BAE72B6800211A1D2A601D68626812
:1059AC00284600F0D9F808B1401B60606368236199
:1059BC00002384F84330A8E72A4649464046236929
:1059CC00D0470130ABD023689B0713D4E068039B0E
:1059DC009842B8BF1846A4E70123324649464046D0
:1059EC00D04701309BD00135E36803995B1AAB4279
:1059FC00F2DCEBE7002504F11906F5E7D95E0008A7
:105A0C00EA5E000838B50023054D044608462B60B5
:105A1C00FCF728FC431C02D12B6803B1236038BD72
:105A2C004802002010B50C46B1F90E1000F006F932
:105A3C000028ABBF636DA3891B1823F48053ACBF44
:105A4C006365A38110BD2DE9F0411F468B89054686
:105A5C00DB050C46164605D502230022B1F90E10C3
:105A6C0000F068F8A389324623F48053A3812846BA
:105A7C003B46B4F90E10BDE8F04100F017B810B574
:105A8C000C46B1F90E1000F055F8431CA38915BF54
:105A9C00606523F4805343F48053A38118BFA38122
:105AAC0010BDB1F90E1000F013B8000038B5044663
:105ABC00084611460022054D2A601A46FCF785FB64
:105ACC00431C02D12B6803B1236038BD480200206F
