:020000040800F2
:1000000000500020651B00081D1800082318000878
:10001000291800082F1800083518000800000000F3
:100020000000000000000000000000003B18000875
:100030004718000800000000531800085F18000867
:10004000AD1B0008AD1B0008AD1B0008AD1B000870
:10005000AD1B0008AD1B000829020008AD1B0008FD
:10006000AD1B0008AD1B0008AD1B0008AD1B000850
:10007000AD1B0008AD1B0008AD1B0008AD1B000840
:10008000AD1B0008AD1B0008AD1B0008AD1B000830
:10009000AD1B0008AD1B0008AD1B0008AD1B000820
:1000A000AD1B0008AD1B0008AD1B0008AD1B000810
:1000B000AD1B0008AD1B0008651A0008AD1B000849
:1000C000AD1B0008AD1B0008AD1B0008AD1B0008F0
:1000D000AD1B0008AD1B0008AD1B0008AD1B0008E0
:1000E000AD1B0008AD1B0008AD1B000800000000A0
:1000F0000000000000000000000000000000000000
:0C01000000000000000000005FF808F1A3
:10010C0010B5054C237833B9044B13B10448AFF345
:10011C0000800123237010BD74000020000000003B
:10012C00A44A000808B5034B1BB103490348AFF3BD
:10013C00008008BD0000000078000020A44A0008E0
:10014C0080B588B000AF314B9B69304A43F0200337
:10015C0093612E4B9B6903F02003FB60FB682B4BD8
:10016C009B692A4A43F004039361284B9B6903F073
:10017C000403BB60BB68254B9B69244A43F0100306
:10018C009361224B9B6903F010037B607B6807F142
:10019C00100300221A605A609A60DA6001233B61F6
:1001AC001B4B7B610123BB610223FB6107F1100335
:1001BC001946184801F08AFE0E233B6100237B612F
:1001CC000123BB610223FB6107F11003194611489F
:1001DC0001F07CFE4FF400533B6101237B61002353
:1001EC00BB610223FB6107F1100319460A4801F0B9
:1001FC006DFE00220021062001F031FE062001F0E8
:10020C004AFE00BF2037BD4680BD00BF0010024033
:10021C0000003110000801400010014080B500AF13
:10022C00012002F007F800BF80BD000080B586B049
:10023C0000AF134B9B69124A43F008039361104BB8
:10024C009B6903F008037B607B6807F108030022BD
:10025C001A605A609A60DA6040F60343BB60002370
:10026C00FB6001233B6103237B6107F10803194603
:10027C00044801F02BFE00BF1837BD4680BD00BFFF
:10028C0000100240000C014080B500AF00F032F8C5
:10029C000346002B04D0134803F09EFA01231EE002
:1002AC0000F060F80346002B04D00F4803F094FADA
:1002BC00022314E000F090F80346002B04D00B4806
:1002CC0003F08AFA03230AE000F0C0F80346002B7F
:1002DC0004D0074803F080FA042300E000231846FA
:1002EC0080BD00BFBC4A0008D04A0008E44A0008A0
:1002FC00F84A000880B500AF01F0ACFC0246164B82
:10030C001B68D31A052B23D90221144801F062FF74
:10031C000346002B14D1124B1B78DBB2012B12D1EC
:10032C0002210E4801F056FF0346002B04D10C4B62
:10033C0000221A7001230CE0094B01221A7002E012
:10034C00074B01221A7001F085FC0346024A136028
:10035C000023184680BD00BF90000020000C014017
:10036C009400002080B500AF01F074FC0246174BDE
:10037C001B68D31A052B25D94FF40061144801F0E2
:10038C0029FF0346002B15D1124B1B78DBB2012B36
:10039C0013D14FF400610E4801F01CFF0346002BF3
:1003AC0004D10C4B00221A7001230CE0094B0122E2
:1003BC001A7002E0074B01221A7001F04BFC034645
:1003CC00024A13600023184680BD00BF980000202D
:1003DC00000C01409C00002080B500AF01F03AFCFD
:1003EC000246174B1B68D31A052B25D94FF4806195
:1003FC00144801F0EFFE0346002B15D1124B1B786D
:10040C00DBB2012B13D14FF480610E4801F0E2FEF8
:10041C000346002B04D10C4B00221A7001230CE074
:10042C00094B01221A7002E0074B01221A7001F0ED
:10043C0011FC0346024A13600023184680BD00BF1E
:10044C00A0000020000C0140A400002080B500AFEB
:10045C0001F000FC0246164B1B68D31A052B23D95E
:10046C000121144801F0B6FE0346002B14D1124BA7
:10047C001B78DBB2012B12D101210E4801F0AAFE30
:10048C000346002B04D10C4B00221A7001230CE004
:10049C00094B01221A7002E0074B01221A7001F07D
:1004AC00D9FB0346024A13600023184680BD00BFE7
:1004BC00A8000020000C0140AC00002080B58AB0E0
:1004CC0000AF474B9B69464A43F001039361444B91
:1004DC009B6903F00103FB60FB68424B5B687B622A
:1004EC007B6A23F0E0637B627B6A43F080737B6200
:1004FC003C4A7B6A53603B4B5B683B623B6A23F034
:10050C00E0633B623B6A43F000733B62354A3B6AF3
:10051C005360334B9B69324A43F004039361304B75
:10052C009B6903F00403BB60BB682D4B9B692C4A91
:10053C0043F0080393612A4B9B6903F008037B602B
:10054C007B6807F1100300221A605A609A60DA6027
:10055C0000224FF40071244801F053FE00224FF4A6
:10056C008071214801F04DFE4FF440733B61012333
:10057C007B610223BB610223FB6107F11003194667
:10058C00194801F0A3FC0022F821174801F039FEAC
:10059C00F8233B6101237B610223BB610223FB61D6
:1005AC0007F110031946104801F090FC00224FF49B
:1005BC0018410E4801F025FE4FF418433B6101230E
:1005CC007B610223BB610223FB6107F11003194617
:1005DC00064801F07BFC00BF2837BD4680BD00BF3C
:1005EC000010024000000140000C014000080140D6
:1005FC0080B483B000AF0346FB71FB79002B03D0B2
:10060C00054B00221A7002E0034B10221A7000BF37
:10061C000C37BD4680BC7047AD00002080B582B061
:10062C0000AF0346FB710B46BB7113467B71BB7964
:10063C00012B06D9304B1B7843F00803DAB22E4B52
:10064C001A702E4ABB7913702D4B00221A707B79CD
:10065C00002B09D0BB79012B06D1274B1B7843F01B
:10066C000403DAB2244B1A704FF47A7001F0FCFADE
:10067C0000224FF44071234801F0C3FD1E4B1B7840
:10068C0043F02003DBB2184600F002F90A2001F017
:10069C00EBFA194B1B7843F02003DBB2184600F041
:1006AC00F7F8012001F0E0FA134B1B7843F020031C
:1006BC00DBB2184600F0ECF80F4B1B7843F020032C
:1006CC00DBB2184600F0E4F80F4B04221A7001203C
:1006DC0000F028F800F0F2F80C4B02221A700B4BC9
:1006EC001B7843F00403DBB2184600F0D1F800BFCE
:1006FC000837BD4680BD00BFAD000020B000002013
:10070C00B1000020000C0140AE000020AF00002022
:10071C0080B500AF022000F0BBF8022001F0A4FA73
:10072C0000BF80BD80B582B000AF0346FB71FB7982
:10073C00002B0FD0114B1B7843F00403DAB20F4B94
:10074C001A700E4B1B7843F00803DBB2184600F00E
:10075C009FF80EE0094B1B7823F00403DAB2074B29
:10076C001A70064B1B7843F00803DBB2184600F0F6
:10077C008FF800BF0837BD4680BD00BFAE0000201B
:10078C0080B500AF00224FF480710D4801F039FDA7
:10079C00012001F069FA01224FF48071084801F040
:1007AC0030FD012001F060FA00224FF48071044802
:1007BC0001F027FD012001F057FA00BF80BD00BFFA
:1007CC00000C014080B582B000AF0346FB71FB7991
:1007DC00DB09DBB21A464FF400612B4801F011FD26
:1007EC00FB799B09DBB203F00103DBB21A464FF431
:1007FC008051254801F005FDFB795B09DBB203F064
:10080C000103DBB21A464FF400411F4801F0F9FC1A
:10081C00FB791B09DBB203F00103DBB21A4608219A
:10082C001A4801F0EEFCFB79DB08DBB203F00103A4
:10083C00DBB21A461021154801F0E3FCFB799B084A
:10084C00DBB203F00103DBB21A4620210F4801F0A2
:10085C00D8FCFB795B08DBB203F00103DBB21A4670
:10086C0040210A4801F0CDFCFB7903F00103DBB217
:10087C001A468021054801F0C4FCFFF781FF00BF38
:10088C000837BD4680BD00BF00080140000C014088
:10089C0080B582B000AF0346FB7100224FF40071AB
:1008AC00054801F0AEFCFB791846FFF78BFF00BF43
:1008BC000837BD4680BD00BF000C014080B500AFBD
:1008CC000120FFF7E5FF022001F0CEF900BF80BD4B
:1008DC0080B582B000AF0346FB7101224FF400716A
:1008EC00054801F08EFCFB791846FFF76BFF00BF43
:1008FC000837BD4680BD00BF000C014080B582B0FA
:10090C0000AF78607B681B781846FFF7E1FF7B68C7
:10091C0001337B607B681B78002BF3D100BF00BFD9
:10092C000837BD4680BD000090B587B000AF0346C8
:10093C000A46FB711346BB71114B07F108040FCB30
:10094C0084E80F000F4B1B78BA799A4203D90D4BF0
:10095C001B78013BBB71BB799B0018333B4453F8AC
:10096C00103CDAB2FB791344DBB263F07F03DBB2E9
:10097C001846FFF78DFF00BF1C37BD4690BD00BF6A
:10098C00084B0008B000002080B500AF154B1B7859
:10099C00072B25D801A252F823F000BFC909000883
:1009AC00CF090008CF090008CF090008D5090008B5
:1009BC00DB090008E1090008E709000800F014F859
:1009CC000EE000F0EBF80BE000F0BEF808E000F0F1
:1009DC003DF805E000F08EF802E000F061F800BF91
:1009EC0000BF80BD1A01002080B500AF124B1A78F1
:1009FC00124B1B789A4206D0FFF760FF0F4B1A7808
:100A0C000D4B1A7001E0FFF783FE00210620FFF763
:100A1C008BFF0B48FFF772FF02210320FFF784FFC7
:100A2C000848FFF76BFF03210320FFF77DFF064803
:100A3C00FFF764FF00BF80BD1B0100201A010020DE
:100A4C00184B0008244B0008344B000880B500AF4D
:100A5C000F4B1A780F4B1B789A4206D0FFF72EFFDC
:100A6C000C4B1A780A4B1A7001E0FFF751FE00216B
:100A7C000620FFF759FF0848FFF740FF022102202C
:100A8C00FFF752FF0548FFF739FF00BF80BD00BFDD
:100A9C001B0100201A010020444B00084C4B00089D
:100AAC0080B500AF0F4B1A780F4B1B789A4206D0CB
:100ABC00FFF704FF0C4B1A780A4B1A7001E0FFF792
:100ACC0027FE00210520FFF72FFF0848FFF716FF30
:100ADC0002210120FFF728FF0548FFF70FFF00BF99
:100AEC0080BD00BF1B0100201A010020544B0008E0
:100AFC005C4B000880B500AF0F4B1A780F4B1B787E
:100B0C009A4206D0FFF7DAFE0C4B1A780A4B1A7091
:100B1C0001E0FFF7FDFD00210520FFF705FF084868
:100B2C00FFF7ECFE02210220FFF7FEFE0548FFF75F
:100B3C00E5FE00BF80BD00BF1B0100201A01002094
:100B4C00544B0008644B000880B500AF0F4B1A786B
:100B5C000F4B1B789A4206D0FFF7B0FE0C4B1A785D
:100B6C000A4B1A7001E0FFF7D3FD00210420FFF7B8
:100B7C00DBFE0848FFF7C2FE02210020FFF7D4FE7F
:100B8C000548FFF7BBFE00BF80BD00BF1B01002066
:100B9C001A010020684B0008704B000880B500AFAC
:100BAC004C4B1A784C4B1B789A4206D0FFF786FEBA
:100BBC00494B1A78474B1A7001E0FFF7A9FD474BD8
:100BCC005A88474BA3FB021359090B461B015B1AAE
:100BDC009B00D31A9AB2434B1A80404B5B88404A15
:100BEC00A2FB03235B099AB23F4B1A803E4B1B8836
:100BFC001A463C4B1B883D493D4802F0F5FD00214F
:100C0C000020FFF791FE3A48FFF778FE334B9A88A5
:100C1C00334BA3FB021359090B461B015B1A9B00B8
:100C2C00D31A9AB22F4B1A802C4B9B882C4AA2FBBE
:100C3C0003235B099AB22C4B1A802B4B1B881A4648
:100C4C00284B1B882B492A4802F0CEFD00210D2091
:100C5C00FFF76AFE2648FFF751FE204B5B78012B0D
:100C6C0004D12549224802F0BFFD10E01B4B5B78F4
:100C7C00022B04D121491E4802F0B6FD07E0174BA8
:100C8C005B78032B03D11E49194802F0ADFD0121FD
:100C9C000520FFF749FE1648FFF730FE0F4B9B79F6
:100CAC001A461849124802F09FFD03210020FFF755
:100CBC003BFE0F48FFF722FE13490D4802F094FD4E
:100CCC0003210D20FFF730FE0948FFF717FE00BF88
:100CDC0080BD00BF1B0100201A010020080100206C
:100CEC008988888804010020060100207C4B0008BC
:100CFC00B4000020884B0008944B0008A04B00085F
:100D0C00B04B0008BC4B0008C84B000880B483B043
:100D1C0000AF0346FB7197F90730002B0BDBFB7917
:100D2C0003F01F02064997F907305B09012000FA0E
:100D3C0002F241F8232000BF0C37BD4680BC70473F
:100D4C0000E100E080B483B000AF0346FB7197F97B
:100D5C000730002B12DBFB7903F01F020A4997F9CD
:100D6C0007305B09012000FA02F2203341F82320FE
:100D7C00BFF34F8F00BFBFF36F8F00BF00BF0C37A7
:100D8C00BD4680BC704700BF00E100E080B582B07A
:100D9C0000AF7860391D0A230122044802F0F9FAE9
:100DAC007B6818460837BD4680BD00BF6C0100202B
:100DBC0080B500AF00F0F6FE00F04EFB00F056FEE2
:100DCC00FFF7BEF900F094FCFFF730FA00F0ECFDF1
:100DDC00FFF774FB0020FFF70BFC0022042110200E
:100DEC00FFF71CFC954802F0F7FC954B00221A709B
:100DFC00934B00225A70924B28229A7101219148F0
:100E0C0001F0E8F90346012B08D18F4B01221A702F
:100E1C008E4B05221A708E4B01221A70FFF7B4FD0F
:100E2C008B4B1B78002B04D0FFF7AEFD884B0022B8
:100E3C001A70884B1B78002B06D0874801F0D6FE21
:100E4C00844B00221A700DE0844B1B78002B09D0C8
:100E5C007B4B1B78012B05D17F4801F075FE7F4B36
:100E6C0000221A70784B1B78002B06D000224FF40E
:100E7C0000517B4801F0C5F98EE101224FF400517D
:100E8C00774801F0BEF96E4B1B78012B40F0BD800A
:100E9C00FFF7FAF903461A46724B1A70714B1B781E
:100EAC00013B032B00F2AD8001A252F823F000BFEE
:100EBC00CD0E0008150F00083B0F0008E30F0008CB
:100ECC00634B01221A705E4B1B7A002B02D0012B54
:100EDC000BD096E05A4B5B883C2B11D9584B5B8856
:100EEC003C3B9AB2564B5A800AE0554B9B883C2BA4
:100EFC0008D9534B9B883C3B9AB2514B9A8001E0EA
:100F0C0000BF7EE000BF7CE0514B01221A704C4BBD
:100F1C0000221A704A4B00225A704C4B00221A7055
:100F2C004B4B01221A704B4B01221A7069E0484B53
:100F3C0001221A70424B1B7A002B02D0012B37D0A6
:100F4C005FE03F4B5B88B3F5E16F0AD23C4B5B78BB
:100F5C00012B06D13A4B5B883C339AB2384B5A8002
:100F6C001FE0374B5B88B3F5166F0AD2344B5B78B6
:100F7C00022B06D1324B5B883C339AB2304B5A80F1
:100F8C000FE02F4B5B8840F6B732934209D82C4BBD
:100F9C005B78032B05D12A4B5B883C339AB2284BE8
:100FAC005A80274B5B8819462F4802F08FFB11E0C3
:100FBC00234B9B88B3F5617F05D2214B9B883C3337
:100FCC009AB21F4B9A801E4B9B881946274802F0F9
:100FDC007DFB00BF15E01E4B01221A70184B00223E
:100FEC005A80174B01221A72154B5B8819461E4802
:100FFC0002F06CFB124B9B8819461C4802F066FBF6
:10100C0000BF184B00221A70C6E00D4B1B78002B4A
:10101C0040F0C280FFF738F903461A46114B1A709C
:10102C00104B1B78032B00F08380032B00F3B08054
:10103C00012B1DD0022B4BD0AAE000BFD04B0008D7
:10104C000801002000080140120100201A010020B4
:10105C001C01002013010020240100201401002099
:10106C000010014015010020D84B0008E84B000887
:10107C00B14B01225A70B04B01221A70AE4B4FF497
:10108C0016725A80AC4B4FF496729A80AA4B1E2261
:10109C00DA71A94B28229A71A74B00221A72A74B1E
:1010AC001E221A70A64B00221A70A64B00221A7030
:1010BC00A54B01221A70A54B01221A70A44B0122D8
:1010CC001A700A230C22A349A34802F062F960E0CB
:1010DC00994B02225A70984B01221A70964B4FF47E
:1010EC0096625A80944B4FF496729A80924B1E22C1
:1010FC00DA71914B46229A718F4B00221A728F4BE8
:10110C001E221A708E4B00221A708E4B00221A70FF
:10111C008D4B01221A708D4B02221A708C4B0122BE
:10112C001A700A230C228D498B4802F032F930E0F8
:10113C00814B03225A70804B01221A707E4B4FF464
:10114C00E1625A807C4B4FF496729A807A4B1E2245
:10115C00DA71794B5A229A71774B00221A72774BBB
:10116C001E221A70764B00221A70764B00221A70CF
:10117C00754B01221A70754B03221A70744B0122A5
:10118C001A700A230D227649734802F002F900E026
:10119C0000BF744B00221A70734B1B78002B29D0A4
:1011AC0000224FF48071714801F02BF800224FF4AB
:1011BC0000516F4801F025F800224FF480416C4833
:1011CC0001F01FF800224FF40041694801F019F8B2
:1011DC00594B1B78022B40F02D81664B01221A7063
:1011EC00554B0022DA71544B00221A70524B0022DC
:1011FC005A701FE1504B1B78012B40F0CD8001221F
:10120C004FF48071594800F0FCFF5B4B1B78002BAE
:10121C0020D0494B5B881946584802F057FA464B88
:10122C009B881946564802F051FA444B1B781946D4
:10123C00544802F04BFA434B1B781946524802F0C3
:10124C0045FA3F4B1B781946504802F03FFA4A4B7F
:10125C0000221A703B4B1B78002B34D000224FF429
:10126C000051434800F0CDFF00224FF4804140482C
:10127C0000F0C7FF334B1B78012B4BD804213B48A4
:10128C0000F0A8FF03461A46414B1A70404B1B78DE
:10129C00002B06D0294B1E221A70294B00221A70E3
:1012AC0038E03C4B1B78002B06D0244B00221A70E4
:1012BC00234B1E221A702DE0204B1E221A70204B3D
:1012CC0000221A7026E01D4B1B78002B0FD0012238
:1012DC004FF40051264800F094FF00224FF4804157
:1012EC00234800F08EFF2B4B01221A7012E0144B96
:1012FC001B78002B0ED000224FF400511C4800F03C
:10130C0080FF01224FF48041194800F07AFF214BF5
:10131C0000221A70084B1B7A002B06D101224FF4C5
:10132C000041134800F06DFF84E000224FF40041AF
:10133C000F4800F066FF7DE008010020010000204E
:10134C001601002017010020140100201A010020B2
:10135C001C010020F84B00086C010020044C000814
:10136C00104C00081501002012010020000801405B
:10137C00000C01401301002000000020204C00084C
:10138C00E84B0008344C0008444C0008544C00084E
:10139C001801002019010020284B1B78022B31D199
:1013AC00264BDB79002B14D100224FF4005124483A
:1013BC0000F027FF234B00221A70234B01221A70D6
:1013CC00224B01221A701D4B00221A701B4B00225B
:1013DC005A7000224FF480711D4800F012FF002259
:1013EC004FF400511B4800F00CFF00224FF48041D9
:1013FC00184800F006FF00224FF40041154800F099
:10140C0000FF17E000224FF48071114800F0F9FE44
:10141C0000224FF400510F4800F0F3FE00224FF46D
:10142C0080410C4800F0EDFE00224FF400410948C9
:10143C0000F0E7FE044B01221A70F1E408010020D1
:10144C00001001401A0100201C0100201301002093
:10145C0000080140000C014080B590B000AF07F1CE
:10146C00180328220021184602F028F93B1D0022FF
:10147C001A605A609A60DA601A610223BB61012318
:10148C00BB621023FB6200237B6307F11803184631
:10149C0000F0E8FE0346002B01D000F023F90F23E7
:1014AC007B600023BB600023FB6000233B610023B7
:1014BC007B613B1D0021184601F056F90346002BB9
:1014CC0001D000F00FF900BF4037BD4680BD0000D1
:1014DC0080B582B000AF0346FB80FB88012B57D14F
:1014EC000620FFF72FFC01212B4800F073FE03466A
:1014FC001A462A4B1A70294B1B78DBB2012B0FD1E1
:10150C00274B01221A70274B01221A70264B0522F9
:10151C001A70264B01221A70254B03221A7034E0E4
:10152C00234B5B78032B27D801A252F823F000BF82
:10153C004D1500085B1500086915000877150008A3
:10154C00194B00221A701A4B00221A7014E0164B19
:10155C0001221A70164B01221A700DE0124B022256
:10156C001A70134B01221A7006E00F4B03221A70EB
:10157C000F4B01221A7000BF0E4B01221A70084B40
:10158C0000221A70094B01221A700620FFF7BEFBCD
:10159C0000BF0837BD4680BD000801401D0100207A
:1015AC0012010020130100201A0100201C01002050
:1015BC00080100201401002080B582B000AF7860D3
:1015CC000A2308223D493E4801F0E3FE3D4B5B886F
:1015DC00002B06D03B4B5B88013B9AB2394B5A80AF
:1015EC0014E0384B9B88002B06D0364B9B88013B74
:1015FC009AB2344B9A8009E0324B1B78022B05D1FE
:10160C00304BDB79013BDAB22E4BDA712D4B5B8818
:10161C00002B07D12B4B1B7A002B03D1294B01221A
:10162C001A7213E0274B9B88002B0FD1254B1B7A8A
:10163C00012B0BD1244802F0CFF8224B02221A7056
:10164C00204B00225A70214B04221A70204B1B781D
:10165C00002B06D01E4B1B78013BDAB21C4B1A70C8
:10166C0022E01C4B1B78002B0DD01A4B1B78013B36
:10167C00DAB2184B1A70174B1B78002B14D1144B81
:10168C0003221A7010E0144B1B78002B0CD0124B59
:10169C001B78013BDAB2104B1A700F4B1B78002BE6
:1016AC0002D10B4B03221A700C4B01221A700C4BFB
:1016BC0001221A7000BF0837BD4680BD684C000877
:1016CC006C01002008010020704C00081A01002059
:1016DC00170100200100002016010020000000204E
:1016EC001C01002080B400AF72B600BFFEE7000002
:1016FC0080B586B000AF314B9B69304A43F008038C
:10170C0093612E4B9B6903F008037B607B682B4B2A
:10171C009B692A4A43F010039361284B9B6903F0A1
:10172C0010033B603B6807F1080300221A605A6003
:10173C009A60DA6000224FF46041214800F061FDAC
:10174C004FF46043BB600123FB6002233B61022327
:10175C007B6107F108031946194800F0B7FB00221A
:10176C004FF48071174800F04CFD4FF48073BB6050
:10177C000123FB6002233B6102237B6107F1080319
:10178C001946104800F0A2FB00224FF400410E480D
:10179C0000F037FD4FF40043BB600123FB600223D4
:1017AC003B6102237B6107F108031946064800F0F0
:1017BC008DFB00BF1837BD4680BD00BF0010024036
:1017CC00000C0140000801400010014080B483B0BF
:1017DC0000AF0E4B9B690D4A43F0010393610B4B19
:1017EC009B6903F001037B607B68084BDB69074A4C
:1017FC0043F08053D361054BDB6903F080533B60AE
:10180C003B6800BF0C37BD4680BC704700100240DF
:10181C0080B400AFFEE780B400AFFEE780B400AF49
:10182C00FEE780B400AFFEE780B400AFFEE780B403
:10183C0000AF00BFBD4680BC704780B400AF00BF96
:10184C00BD4680BC704780B400AF00BFBD4680BCB5
:10185C00704780B500AF00F0EBF900BF80BD80B5DC
:10186C0086B000AFF860B9607A6000237B610AE053
:10187C00AFF300800146BB685A1CBA60CAB21A703A
:10188C007B6901337B617A697B689A42F0DB7B6808
:10189C0018461837BD4680BD80B586B000AFF860DD
:1018AC00B9607A6000237B6109E0BB685A1CBA609E
:1018BC001B781846FFF76AFA7B6901337B617A69FA
:1018CC007B689A42F1DB7B6818461837BD4680BDB1
:1018DC0080B483B000AF78604FF0FF3318460C37FC
:1018EC00BD4680BC704780B483B000AF786039606F
:1018FC003B684FF400525A60002318460C37BD4623
:10190C0080BC704780B483B000AF78600123184668
:10191C000C37BD4680BC704780B485B000AFF86012
:10192C00B9607A60002318461437BD4680BC7047F6
:10193C0080B586B000AF7860144A154BD31A7B6122
:10194C007B693B61134B1B68002B02D1114B124A74
:10195C001A60104B1A687B6813443A699A4207D292
:10196C0001F082FE03460C221A604FF0FF3309E0AF
:10197C00084B1B68FB60074B1A687B681344054ACD
:10198C001360FB6818461837BD4680BD0050002018
:10199C000004000020010020C801002080B400AF2A
:1019AC0000BFBD4680BC704780B588B000AF274BE8
:1019BC00DB69264A43F00403D361244BDB6903F053
:1019CC0004037B607B6807F1100300221A605A60E5
:1019DC009A60DA6007F1080300221A605A601C4B07
:1019EC001C4A1A601A4B4FF4E1525A60184B0022F1
:1019FC009A60174B40F25742DA60154B00221A617D
:101A0C00134B80229A61124801F046F84FF4805330
:101A1C003B6107F1100319460D4801F01DFA002334
:101A2C00BB600023FB6007F108031946084801F06E
:101A3C00F3FB002201211E2000F011FA1E2000F001
:101A4C002AFA00BF2037BD4680BD00BF00100240FF
:101A5C00240100200008004080B500AF024801F0CE
:101A6C00F3F800BF80BD00BF2401002080B500AF9B
:101A7C00114B124A1A60104B4FF4E1325A600E4B64
:101A8C0000229A600C4B0022DA600B4B00221A6188
:101A9C00094B0C225A61084B00229A61064B00221A
:101AAC00DA61054801F028FC0346002B01D0FFF752
:101ABC0019FE00BF80BD00BF6C0100200038014042
:101ACC0080B588B000AF786007F1100300221A606F
:101ADC005A609A60DA607B681B681C4A934231D169
:101AEC001B4B9B691A4A43F480439361184B9B69C7
:101AFC0003F48043FB60FB68154B9B69144A43F06D
:101B0C0004039361124B9B6903F00403BB60BB6835
:101B1C004FF400733B6102237B610323FB6107F1EC
:101B2C00100319460B4800F0D1F94FF480633B6168
:101B3C0000237B610023BB6107F1100319460548A4
:101B4C0000F0C4F900BF2037BD4680BD003801400D
:101B5C0000100240000801400C480D490D4A0023BA
:101B6C0002E0D458C4500433C4188C42F9D30A4A46
:101B7C000A4C002301E013600432A242FBD3FFF7AE
:101B8C000DFF01F077FDFFF713F9704700000020FF
:101B9C0074000020444D000874000020C401002093
:101BAC00FEE7000080B500AF084B1B68074A43F006
:101BBC0010031360032000F047F90F2000F008F821
:101BCC00FFF704FE0023184680BD00BF0020024032
:101BDC0080B582B000AF7860124B1A68124B1B783C
:101BEC0019464FF47A73B3FBF1F3B2FBF3F31846D7
:101BFC0000F05FF90346002B01D001230EE07B6857
:101C0C000F2B0AD8002279684FF0FF3000F027F92B
:101C1C00064A7B681360002300E00123184608374E
:101C2C00BD4680BD040000200C00002008000020F0
:101C3C0080B400AF054B1B781A46054B1B68134448
:101C4C00034A136000BFBD4680BC70470C000020E7
:101C5C00B001002080B400AF024B1B681846BD4693
:101C6C0080BC7047B001002080B584B000AF7860B4
:101C7C00FFF7F0FFB8607B68FB60FB68B3F1FF3FD8
:101C8C0005D00A4B1B781A46FB681344FB6000BF57
:101C9C00FFF7E0FF0246BB68D31AFA689A42F7D8FE
:101CAC0000BF00BF1037BD4680BD00BF0C00002038
:101CBC0080B485B000AF78607B6803F00703FB60ED
:101CCC000C4BDB68BB60BA684FF6FF031340BB607C
:101CDC00FB681A02BB68134343F0BF6343F4003341
:101CEC00BB60044ABB68D36000BF1437BD4680BCE0
:101CFC00704700BF00ED00E080B400AF044BDB6820
:101D0C001B0A03F007031846BD4680BC704700BF92
:101D1C0000ED00E080B483B000AF0346FB7197F98F
:101D2C000730002B0BDBFB7903F01F02064997F9F8
:101D3C0007305B09012000FA02F241F8232000BFB2
:101D4C000C37BD4680BC704700E100E080B483B026
:101D5C0000AF03463960FB7197F90730002B0ADBA3
:101D6C003B68DAB20C4997F907301201D2B20B4436
:101D7C0083F800230AE03B68DAB20849FB7903F0E8
:101D8C000F03043B1201D2B20B441A7600BF0C377E
:101D9C00BD4680BC704700BF00E100E000ED00E0F4
:101DAC0080B489B000AFF860B9607A60FB6803F06A
:101DBC000703FB61FB69C3F10703042B28BF042352
:101DCC00BB61FB690433062B02D9FB69033B00E0C2
:101DDC0000237B614FF0FF32BB6902FA03F3DA4355
:101DEC00BB681A407B699A404FF0FF317B6901FA5E
:101DFC0003F3D9437B680B40134318462437BD4685
:101E0C0080BC704780B582B000AF78607B68013BC6
:101E1C00B3F1807F01D301230FE00A4A7B68013BB9
:101E2C0053600F214FF0FF30FFF790FF054B00225E
:101E3C009A60044B07221A60002318460837BD46E7
:101E4C0080BD00BF10E000E080B582B000AF7860CC
:101E5C007868FFF72DFF00BF0837BD4680BD80B501
:101E6C0086B000AF0346B9607A60FB7300237B61D8
:101E7C00FFF742FF78617A68B9687869FFF790FFDD
:101E8C00024697F90F3011461846FFF75FFF00BF67
:101E9C001837BD4680BD80B582B000AF0346FB71DC
:101EAC0097F907301846FFF735FF00BF0837BD46D6
:101EBC0080BD80B582B000AF78607868FFF7A2FF74
:101ECC00034618460837BD4680BD000080B48BB071
:101EDC0000AF7860396000237B6200233B6269E1CC
:101EEC0001227B6A02FA03F3FB613B681B68FA6907
:101EFC001340BB61BA69FB699A4240F058813B6858
:101F0C005B689A4A93425ED0984A934275D8984A35
:101F1C00934258D0964A93426FD8964A934252D0E5
:101F2C00944A934269D8944A93424CD0924A934231
:101F3C0063D8924A934246D0904A93425DD8122B72
:101F4C002AD8122B59D801A252F823F0D31F00081B
:101F5C00AD1F0008BF1F0008012000080720000863
:101F6C0007200008072000080720000807200008A9
:101F7C000720000807200008072000080720000899
:101F8C000720000807200008072000080720000889
:101F9C00B51F0008C91F0008794A934213D02CE0E2
:101FAC003B68DB683B6229E03B68DB6804333B62DF
:101FBC0024E03B68DB6808333B621FE03B68DB686E
:101FCC000C333B621AE03B689B68002B02D1042364
:101FDC003B6213E03B689B68012B05D108233B62F5
:101FEC007B68FA691A6109E008233B627B68FA692D
:101FFC005A6103E000233B6200E000BFBB69FF2B8A
:10200C0001D87B6801E07B6804337B61BB69FF2BE3
:10201C0002D87B6A9B0002E07B6A083B9B003B6119
:10202C007B691A680F213B6901FA03F3DB431A4001
:10203C00396A3B6901FA03F31A437B691A603B68FE
:10204C005B6803F08053002B00F0B1804D4B9B6913
:10205C004C4A43F0010393614A4B9B6903F0010323
:10206C00BB60BB68484A7B6A9B08023352F823303A
:10207C00FB607B6A03F003039B000F2202FA03F35D
:10208C00DB43FA681340FB607B68404A934213D0F1
:10209C007B683F4A93420DD07B683E4A934207D0FF
:1020AC007B683D4A934201D1032306E0042304E0FC
:1020BC00022302E0012300E000237A6A02F003020B
:1020CC0092009340FA681343FB602F497B6A9B088C
:1020DC000233FA6841F823203B685B6803F48033D1
:1020EC00002B06D02D4B1A682C49BB6913430B608F
:1020FC0006E02A4B1A68BB69DB43284913400B6086
:10210C003B685B6803F40033002B06D0234B5A6802
:10211C002249BB6913434B6006E0204B5A68BB69EC
:10212C00DB431E4913404B603B685B6803F4801330
:10213C00002B06D0194B9A681849BB6913438B6066
:10214C0006E0164B9A68BB69DB43144913408B605D
:10215C003B685B6803F40013002B21D00F4BDA684B
:10216C000E49BB691343CB6021E000BF0000321065
:10217C00000031100000221000002110000012108D
:10218C000000111000100240000001400008014046
:10219C00000C0140001001400014014000040140FB
:1021AC000B4BDA68BB69DB4309491340CB607B6A94
:1021BC0001337B623B681A687B6A22FA03F3002BBB
:1021CC007FF48EAE00BF00BF2C37BD4680BC70477D
:1021DC000004014080B485B000AF78600B467B8072
:1021EC007B689A687B881340002B02D00123FB7319
:1021FC0001E00023FB73FB7B18461437BD4680BC03
:10220C00704780B483B000AF78600B467B80134678
:10221C007B707B78002B03D07A887B681A6103E093
:10222C007B881A047B681A6100BF0C37BD4680BCE2
:10223C007047000080B582B000AF0346FB80084BAE
:10224C005A69FB881340002B06D0054AFB88536162
:10225C00FB881846FFF73CF900BF0837BD4680BD28
:10226C000004014080B586B000AF78607B68002B1D
:10227C0001D1012372E27B681B6803F00103002B80
:10228C0000F08780924B5B6803F00C03042B0CD09E
:10229C008F4B5B6803F00C03082B12D18C4B5B68E3
:1022AC0003F48033B3F5803F0BD1894B1B6803F4E7
:1022BC000033002B6CD07B685B68002B68D101234A
:1022CC004CE27B685B68B3F5803F06D1804B1B68A2
:1022DC007F4A43F4803313602EE07B685B68002BED
:1022EC000CD17B4B1B687A4A23F480331360784BF8
:1022FC001B68774A23F4802313601DE07B685B68BE
:10230C00B3F5A02F0CD1724B1B68714A43F4802398
:10231C0013606F4B1B686E4A43F4803313600BE001
:10232C006B4B1B686A4A23F480331360684B1B6841
:10233C00674A23F4802313607B685B68002B13D0FF
:10234C00FFF788FC386108E0FFF784FC02463B6924
:10235C00D31A642B01D9032300E25D4B1B6803F4F1
:10236C000033002BF0D014E0FFF774FC386108E068
:10237C00FFF770FC02463B69D31A642B01D9032387
:10238C00ECE1534B1B6803F40033002BF0D100E05D
:10239C0000BF7B681B6803F00203002B63D04C4B1F
:1023AC005B6803F00C03002B0BD0494B5B6803F00C
:1023BC000C03082B1CD1464B5B6803F48033002BB9
:1023CC0016D1434B1B6803F00203002B05D07B682E
:1023DC001B69012B01D00123C0E13D4B1B6823F08D
:1023EC00F8027B685B69DB00394913430B603AE008
:1023FC007B681B69002B20D0364B01221A60FFF73B
:10240C0029FC386108E0FFF725FC02463B69D31A2A
:10241C00022B01D90323A1E12D4B1B6803F002030E
:10242C00002BF0D02A4B1B6823F0F8027B685B6909
:10243C00DB00274913430B6015E0264B00221A6082
:10244C00FFF708FC386108E0FFF704FC02463B6923
:10245C00D31A022B01D9032380E11D4B1B6803F017
:10246C000203002BF0D17B681B6803F00803002BE0
:10247C003AD07B689B69002B19D0174B01221A604C
:10248C00FFF7E8FB386108E0FFF7E4FB02463B6925
:10249C00D31A022B01D9032360E10D4B5B6A03F0C5
:1024AC000203002BF0D0012000F0D8FA1CE00A4BFC
:1024BC0000221A60FFF7CEFB38610FE0FFF7CAFB72
:1024CC0002463B69D31A022B08D9032346E100BF0D
:1024DC00001002400000424280044242924B5B6A70
:1024EC0003F00203002BE9D17B681B6803F00403A3
:1024FC00002B00F0A6800023FB758B4BDB6903F0EF
:10250C008053002B0DD1884BDB69874A43F08053F5
:10251C00D361854BDB6903F08053BB60BB6801233F
:10252C00FB75824B1B6803F48073002B18D17F4B17
:10253C001B687E4A43F480731360FFF78BFB386192
:10254C0008E0FFF787FB02463B69D31A642B01D9DD
:10255C00032303E1754B1B6803F48073002BF0D04D
:10256C007B68DB68012B06D16F4B1B6A6E4A43F00C
:10257C00010313622DE07B68DB68002B0CD16A4BE6
:10258C001B6A694A23F001031362674B1B6A664A94
:10259C0023F0040313621CE07B68DB68052B0CD171
:1025AC00614B1B6A604A43F0040313625E4B1B6A67
:1025BC005D4A43F0010313620BE05B4B1B6A5A4A02
:1025CC0023F001031362584B1B6A574A23F0040390
:1025DC0013627B68DB68002B15D0FFF73BFB38617F
:1025EC000AE0FFF737FB02463B69D31A41F2883207
:1025FC00934201D90323B1E04B4B1B6A03F0020356
:10260C00002BEED014E0FFF725FB38610AE0FFF752
:10261C0021FB02463B69D31A41F28832934201D91D
:10262C0003239BE0404B1B6A03F00203002BEED10B
:10263C00FB7D012B05D13C4BDB693B4A23F08053DE
:10264C00D3617B68DB69002B00F08780364B5B68BD
:10265C0003F00C03082B61D07B68DB69022B46D19D
:10266C00334B00221A60FFF7F5FA386108E0FFF7E8
:10267C00F1FA02463B69D31A022B01D903236DE010
:10268C00294B1B6803F00073002BF0D17B681B6A8D
:10269C00B3F5803F08D1244B5B6823F400327B6890
:1026AC009B68214913434B601F4B5B6823F47412E6
:1026BC007B68196A7B685B6A0B431B4913434B604D
:1026CC001B4B01221A60FFF7C5FA386108E0FFF7CF
:1026DC00C1FA02463B69D31A022B01D903233DE010
:1026EC00114B1B6803F00073002BF0D035E0104B3E
:1026FC0000221A60FFF7AEFA386108E0FFF7AAFA79
:10270C0002463B69D31A022B01D9032326E0064B60
:10271C001B6803F00073002BF0D11EE07B68DB69B3
:10272C00012B07D1012319E000100240007000407A
:10273C00600042420B4B5B68FB60FB6803F4803229
:10274C007B681B6A9A4206D1FB6803F470127B68A3
:10275C005B6A9A4201D0012300E000231846183727
:10276C00BD4680BD0010024080B584B000AF7860DB
:10277C0039607B68002B01D10123D0E06A4B1B68C8
:10278C0003F007033A689A4210D9674B1B6823F091
:10279C00070265493B6813430B60634B1B6803F0EE
:1027AC0007033A689A4201D00123B8E07B681B68A2
:1027BC0003F00203002B20D07B681B6803F004039A
:1027CC00002B05D0594B5B68584A43F4E0635360C7
:1027DC007B681B6803F00803002B05D0534B5B6828
:1027EC00524A43F460535360504B5B6823F0F00241
:1027FC007B689B684D4913434B607B681B6803F0F7
:10280C000103002B40D07B685B68012B07D1474B41
:10281C001B6803F40033002B15D101237FE07B6888
:10282C005B68022B07D1414B1B6803F00073002B34
:10283C0009D1012373E03D4B1B6803F00203002B0D
:10284C0001D101236BE0394B5B6823F003027B68F9
:10285C005B68364913434B60FFF7FCF9F8600AE0FC
:10286C00FFF7F8F90246FB68D31A41F2883293421B
:10287C0001D9032353E02D4B5B6803F00C027B68FA
:10288C005B689B009A42EBD1274B1B6803F0070354
:10289C003A689A4210D2244B1B6823F00702224953
:1028AC003B6813430B60204B1B6803F007033A682B
:1028BC009A4201D0012332E07B681B6803F00403C9
:1028CC00002B08D0194B5B6823F4E0627B68DB6853
:1028DC00164913434B607B681B6803F00803002BFD
:1028EC0009D0124B5B6823F460527B681B69DB00D8
:1028FC000E4913434B6000F021F802460B4B5B680A
:10290C001B0903F00F030A49CB5C22FA03F3094AB3
:10291C001360094B1B681846FFF75AF90023184639
:10292C001037BD4680BD00BF0020024000100240A1
:10293C008C4C0008040000200800002090B48AB0E1
:10294C0000AF294B3C1D0FCB84E80F0040F2012354
:10295C003B800023FB610023BB6100237B620023CF
:10296C007B6100233B62214B5B68FB61FB6903F0DD
:10297C000C03042B02D0082B03D02BE01C4B3B6226
:10298C002BE0FB699B0C03F00F0328333B4413F83B
:10299C00243C7B61FB6903F48033002B12D0134B76
:1029AC005B685B0C03F0010328333B4413F8283CB1
:1029BC00BB617B690E4A03FB02F2BB69B2FBF3F30A
:1029CC007B6204E07B690B4A02FB03F37B627B6A4C
:1029DC003B6202E0064B3B6200BF3B6A184628375D
:1029EC00BD4690BC704700BF7C4C000800100240F4
:1029FC0000127A0000093D0080B400AF024B1B6846
:102A0C001846BD4680BC70470400002080B500AF5E
:102A1C00FFF7F2FF0246054B5B681B0A03F0070346
:102A2C000349CB5C22FA03F3184680BD0010024028
:102A3C009C4C000880B500AFFFF7DEFF0246054B4B
:102A4C005B68DB0A03F007030349CB5C22FA03F350
:102A5C00184680BD001002409C4C000880B485B024
:102A6C0000AF78600A4B1B680A4AA2FB03235B0A7F
:102A7C007A6802FB03F3FB6000BFFB685A1EFA6026
:102A8C00002BF9D100BF00BF1437BD4680BC704786
:102A9C0004000020D34D621080B582B000AF786086
:102AAC007B68002B01D1012341E07B6893F83D301A
:102ABC00DBB2002B06D17B68002283F83C207868BF
:102ACC0000F039F87B68022283F83D207B681A6895
:102ADC007B6804331946104600F0A6FA7B68012285
:102AEC0083F846207B68012283F83E207B68012214
:102AFC0083F83F207B68012283F840207B68012209
:102B0C0083F841207B68012283F842207B680122F4
:102B1C0083F843207B68012283F844207B680122E0
:102B2C0083F845207B68012283F83D20002318465A
:102B3C000837BD4680BD80B483B000AF786000BF5D
:102B4C000C37BD4680BC704780B485B000AF786050
:102B5C007B6893F83D30DBB2012B01D001233AE0C6
:102B6C007B68022283F83D207B681B68DA687B68EF
:102B7C001B6842F00102DA607B681B68184A9342BA
:102B8C000ED07B681B68B3F1804F09D07B681B6843
:102B9C00144A934204D07B681B68134A934211D1A8
:102BAC007B681B689B6803F00703FB60FB68062BC4
:102BBC0010D07B681B681A687B681B6842F00102A6
:102BCC001A6007E07B681B681A687B681B6842F018
:102BDC0001021A60002318461437BD4680BC7047AA
:102BEC00002C0140000400400008004080B483B079
:102BFC0000AF78607B681B68DA687B681B6822F022
:102C0C000102DA607B681B681A6A41F211131340E7
:102C1C00002B0FD17B681B681A6A40F244431340A7
:102C2C00002B07D17B681B681A687B681B6822F035
:102C3C0001021A607B68012283F83D2000231846AC
:102C4C000C37BD4680BC704780B582B000AF786051
:102C5C007B681B681B6903F00203022B22D17B6883
:102C6C001B68DB6803F00203022B1BD17B681B681B
:102C7C006FF002021A617B6801221A777B681B686D
:102C8C009B6903F00303002B03D0786800F0B1F9C3
:102C9C0005E0786800F0A4F9786800F0B3F97B6877
:102CAC0000221A777B681B681B6903F00403042B52
:102CBC0022D17B681B68DB6803F00403042B1BD157
:102CCC007B681B686FF004021A617B6802221A771A
:102CDC007B681B689B6903F44073002B03D07868F6
:102CEC0000F087F905E0786800F07AF9786800F070
:102CFC0089F97B6800221A777B681B681B6903F0D3
:102D0C000803082B22D17B681B68DB6803F00803DF
:102D1C00082B1BD17B681B686FF008021A617B685B
:102D2C0004221A777B681B68DB6903F00303002B12
:102D3C0003D0786800F05DF905E0786800F050F990
:102D4C00786800F05FF97B6800221A777B681B6853
:102D5C001B6903F01003102B22D17B681B68DB6806
:102D6C0003F01003102B1BD17B681B686FF0100253
:102D7C001A617B6808221A777B681B68DB6903F48D
:102D8C004073002B03D0786800F033F905E07868C5
:102D9C0000F026F9786800F035F97B6800221A7784
:102DAC007B681B681B6903F00103012B0ED17B6848
:102DBC001B68DB6803F00103012B07D17B681B68E0
:102DCC006FF001021A617868FEF7F6FB7B681B68EE
:102DDC001B6903F08003802B0ED17B681B68DB68BA
:102DEC0003F08003802B07D17B681B686FF0800297
:102DFC001A61786800F077FA7B681B681B6903F02E
:102E0C004003402B0ED17B681B68DB6803F040034A
:102E1C00402B07D17B681B686FF040021A61786801
:102E2C0000F0F9F87B681B681B6903F02003202B6A
:102E3C000ED17B681B68DB6803F02003202B07D1C5
:102E4C007B681B686FF020021A61786800F042FA08
:102E5C0000BF0837BD4680BD80B584B000AF786038
:102E6C0039607B6893F83C30012B01D10223B3E02D
:102E7C007B68012283F83C207B68022283F83D208A
:102E8C007B681B689B68FB60FB6823F07703FB6027
:102E9C00FB6823F47F43FB607B681B68FA689A60CD
:102EAC003B681B68B3F5005F3ED0B3F5005F00F2E2
:102EBC008780B3F5805F00F08580B3F5805F7FD8A5
:102ECC00702B1AD0702B7BD8602B50D0602B77D8FE
:102EDC00502B3CD0502B73D8402B58D0402B6FD854
:102EEC00302B64D0302B6BD8202B60D0202B67D8A4
:102EFC00002B5CD0102B5AD062E07B6818683B68C2
:102F0C0099683B685A683B68DB6800F066F97B6837
:102F1C001B689B68FB60FB6843F07703FB607B6876
:102F2C001B68FA689A604EE07B6818683B68996881
:102F3C003B685A683B68DB6800F04FF97B681B689C
:102F4C009A687B681B6842F480429A603BE07B681D
:102F5C0018683B6859683B68DB681A4600F0C6F88D
:102F6C007B681B685021184600F01DF92BE07B682C
:102F7C0018683B6859683B68DB681A4600F0E4F84F
:102F8C007B681B686021184600F00DF91BE07B681C
:102F9C0018683B6859683B68DB681A4600F0A6F86D
:102FAC007B681B684021184600F0FDF80BE07B683D
:102FBC001A683B681B681946104600F0F4F802E0EA
:102FCC0000BF00E000BF7B68012283F83D207B68D6
:102FDC00002283F83C20002318461037BD4680BDE4
:102FEC0080B483B000AF786000BF0C37BD4680BCA6
:102FFC00704780B483B000AF786000BF0C37BD461B
:10300C0080BC704780B483B000AF786000BF0C37D1
:10301C00BD4680BC704780B483B000AF786000BF01
:10302C000C37BD4680BC704780B485B000AF78606B
:10303C0039607B681B68FB607B68294A93420BD024
:10304C007B68B3F1804F07D07B68264A934203D04C
:10305C007B68254A934208D1FB6823F07003FB6020
:10306C003B685B68FA681343FB607B681C4A9342BD
:10307C000BD07B68B3F1804F07D07B68194A934221
:10308C0003D07B68184A934208D1FB6823F4407341
:10309C00FB603B68DB68FA681343FB60FB6823F05A
:1030AC0080023B685B691343FB607B68FA681A60BB
:1030BC003B689A687B68DA623B681A687B689A623C
:1030CC007B68074A934203D13B681A697B681A6391
:1030DC007B6801225A6100BF1437BD4680BC704723
:1030EC00002C0140000400400008004080B487B070
:1030FC0000AFF860B9607A60FB681B6A7B61FB68A3
:10310C001B6A23F00102FB681A62FB689B693B6136
:10311C003B6923F0F0033B617B681B013A69134365
:10312C003B617B6923F00A037B617A69BB681343BB
:10313C007B61FB683A699A61FB687A691A6200BF25
:10314C001C37BD4680BC704780B487B000AFF860B8
:10315C00B9607A60FB681B6A23F01002FB681A6284
:10316C00FB689B697B61FB681B6A3B617B6923F491
:10317C0070437B617B681B037A6913437B613B69FA
:10318C0023F0A0033B61BB681B013A6913433B610D
:10319C00FB687A699A61FB683A691A6200BF1C374E
:1031AC00BD4680BC704780B485B000AF7860396094
:1031BC007B689B68FB60FB6823F07003FB603A68DC
:1031CC00FB68134343F00703FB607B68FA689A6063
:1031DC0000BF1437BD4680BC704780B487B000AFC9
:1031EC00F860B9607A603B60FB689B687B617B69C7
:1031FC0023F47F437B613B681A027B681A43BB68EC
:10320C0013437A6913437B61FB687A699A6000BF48
:10321C001C37BD4680BC704780B485B000AF786069
:10322C0039607B6893F83C30012B01D1022346E0D6
:10323C007B68012283F83C207B68022283F83D20C6
:10324C007B681B685B68FB607B681B689B68BB606A
:10325C00FB6823F07003FB603B681B68FA68134340
:10326C00FB607B681B68FA685A607B681B68164AAF
:10327C0093420ED07B681B68B3F1804F09D07B68FA
:10328C001B68124A934204D07B681B68104A934215
:10329C000CD1BB6823F08003BB603B685B68BA68E9
:1032AC001343BB607B681B68BA689A607B68012219
:1032BC0083F83D207B68002283F83C2000231846CD
:1032CC001437BD4680BC7047002C01400004004000
:1032DC000008004080B483B000AF786000BF0C37AA
:1032EC00BD4680BC704780B483B000AF786000BF2F
:1032FC000C37BD4680BC704780B582B000AF78609B
:10330C007B68002B01D101233FE07B6893F83D30B3
:10331C00DBB2002B06D17B68002283F83C20786856
:10332C00FEF7CEFB7B68242283F83D207B681B686C
:10333C00DA687B681B6822F40052DA60786800F067
:10334C0005F97B681B681A697B681B6822F490423C
:10335C001A617B681B685A697B681B6822F02A0219
:10336C005A617B681B68DA687B681B6842F4005200
:10337C00DA607B6800221A647B68202283F83D2087
:10338C007B68202283F83E20002318460837BD4670
:10339C0080BD80B58AB002AFF860B9603B6013465F
:1033AC00FB8000237B61FB6893F83D30DBB2202B64
:1033BC007CD1BB68002B02D0FB88002B01D10123F0
:1033CC0075E0FB6893F83C30012B01D102236EE0D1
:1033DC00FB68012283F83C20FB6800221A64FB681E
:1033EC00212283F83D20FEF735FC7861FB68FA88D2
:1033FC009A84FB68FA88DA84FB689B68B3F5805F73
:10340C0008D1FB681B69002B04D10023FB61BB684E
:10341C00BB6103E0BB68FB610023BB61FB6800225E
:10342C0083F83C202AE03B6800937B6900228021D2
:10343C00F86800F040F80346002B01D0032336E077
:10344C00FB69002B0BD1BB691B881A46FB681B68F8
:10345C00C2F308025A60BB690233BB6107E0FB6927
:10346C001A78FB681B685A60FB690133FB61FB68C7
:10347C00DB8C9BB2013B9AB2FB68DA84FB68DB8C79
:10348C009BB2002BCFD13B6800937B69002240217B
:10349C00F86800F010F80346002B01D0032306E077
:1034AC00FB68202283F83D20002300E0022318460D
:1034BC002037BD4680BD80B584B000AFF860B960E0
:1034CC003B601346FB712CE0BB69B3F1FF3F28D086
:1034DC00BB69002B07D0FEF7BDFB02463B68D31A35
:1034EC00BA699A421DD2FB681B68DA68FB681B68D4
:1034FC0022F4D072DA60FB681B685A69FB681B689F
:10350C0022F001025A61FB68202283F83D20FB68FF
:10351C00202283F83E20FB68002283F83C20032302
:10352C000FE0FB681B681A68BB681340BA689A42C4
:10353C000CBF01230023DBB21A46FB799A42C3D09D
:10354C00002318461037BD4680BD000080B584B0FE
:10355C0000AF78607B681B681B6923F440517B6863
:10356C00DA687B681B680A431A617B689A687B6817
:10357C001B691A437B685B691343BB607B681B68E0
:10358C00DB6823F4B05323F00C037A681268B96833
:10359C000B43D3607B681B685B6923F440717B68C9
:1035AC009A697B681B680A435A617B681B682C4AC2
:1035BC00934203D1FFF73EFAF86002E0FFF726FAD8
:1035CC00F860FA6813469B0013449A001A447B680F
:1035DC005B689B00B2FBF3F3224AA2FB03235B095B
:1035EC001901FA6813469B0013449A001A447B682D
:1035FC005B689B00B2FBF3F21A4BA3FB02035B0963
:10360C00642000FB03F3D31A1B013233154AA2FBCF
:10361C0003235B0903F0F0031944FA6813469B007B
:10362C0013449A001A447B685B689B00B2FBF3F26C
:10363C000C4BA3FB02035B09642000FB03F3D31ABE
:10364C001B013233074AA2FB03235B0903F00F0271
:10365C007B681B680A449A6000BF1037BD4680BD6A
:10366C00003801401F85EB51014B1868704700BFB3
:10367C001000002070B500260C4D0D4C641BA410DE
:10368C00A64209D101F008FA00260A4D0A4C641B27
:10369C00A410A64205D170BD55F8043B98470136DD
:1036AC00EEE755F8043B98470136F2E73C4D00082D
:1036BC003C4D00083C4D0008404D000803460244B8
:1036CC00934200D1704703F8011BF9E70FB40A4B82
:1036DC0013B51C6824B1A36913B9204600F07AFA1B
:1036EC0005AB2046049AA168019300F0D9FD02B005
:1036FC00BDE8104004B070471000002070B50E46B5
:10370C00054618B183690BB900F064FAAB69AC6873
:10371C0013B9284600F05EFA2C4B9C4220D16C6801
:10372C00636EDB0705D4A389980502D4A06D00F065
:10373C00EFFAA38919071DD52369DBB1013EA368F4
:10374C0016F8011F013BA36039BB002B38DA224667
:10375C000A21284600F068F8013011D00A2511E042
:10376C001B4B9C4201D1AC68DAE71A4B9C4208BF58
:10377C00EC68D5E72146284600F0A8F80028DDD0F3
:10378C004FF0FF35636EDA0705D4A3899B0502D48D
:10379C00A06D00F0BEFA284670BD002B04DAA269B9
:1037AC009A4206DC0A2904D023685A1C226019703C
:1037BC00C5E72246284600F037F80130BFD1DFE7D5
:1037CC000A2523685A1C22601D70DBE7C84C0008D0
:1037DC00E84C0008A84C0008024B01461868FFF79B
:1037EC008DBF00BF100000200EB46FF0004100B57B
:1037FC009CB01DAB029006900791049108480949B2
:10380C0053F8042B0591006802A9019300F020FCE9
:10381C000022029B1A701CB05DF804EB03B07047D9
:10382C00100000200802FFFFF8B50E4614460546AE
:10383C0018B183690BB900F0CDF9214B9C422BD107
:10384C006C68A369A360A3891A072FD523696BB38E
:10385C0023692068F6B2C01A63693746834204DCD8
:10386C002146284600F022F930BBA3680130013B09
:10387C00A36023685A1C22601E706369834204D0C3
:10388C00A389DB0706D50A2E04D12146284600F071
:10389C000DF988B93846F8BD0A4B9C4201D1AC6889
:1038AC00CFE7094B9C4208BFEC68CAE72146284683
:1038BC0000F00CF80028CBD04FF0FF37EAE700BF40
:1038CC00C84C0008E84C0008A84C0008324B70B5F6
:1038DC001D6806460C4625B1AB6913B9284600F0A5
:1038EC0079F92E4B9C420FD16C68A389B4F90C204A
:1038FC0019072CD4DD0611D40923336042F04003A0
:10390C004FF0FF30A3813EE0254B9C4201D1AC68C7
:10391C00EBE7244B9C4208BFEC68E6E7580712D54E
:10392C00616B41B104F14403994202D0304600F07E
:10393C0057FA00236363A38923F02403A381002394
:10394C00636023692360A38943F00803A38123697F
:10395C004BB9A38903F42073B3F5007F03D0214640
:10396C00304600F0FDF9A089B4F90C2010F00103E9
:10397C000AD00023A36063695B42A361236943B946
:10398C0010F08000BAD170BD810758BF6369A36085
:10399C00F4E70020F7E700BF10000020C84C000837
:1039AC00E84C0008A84C00088A89F8B505461007B1
:1039BC000C4657D44B68002B04DC0B6C002B01DC41
:1039CC000020F8BDE66A002EFAD0002312F48052D3
:1039DC002F682B6032D0606DA3895A0705D56368B8
:1039EC00C01A636B0BB1236CC01A00230246E66A43
:1039FC002846216AB047431CA38906D129681D2992
:103A0C002CD8294ACA40D60728D5002262602269E0
:103A1C00D904226004D5421C01D12B6803B960651E
:103A2C00616B2F600029CBD004F14403994202D082
:103A3C00284600F0D5F900206063C2E7216A012313
:103A4C002846B047411CC7D12B68002BC4D01D2B76
:103A5C0001D0162B01D12F60B2E7A38943F04003AC
:103A6C00A381AEE70F69002FAAD0930718BF0023DC
:103A7C000E6808BF4B69F61B0F608B60002E9FDD34
:103A8C0033463A462846216AD4F828C0E047002835
:103A9C0006DCA3894FF0FF3043F04003A38190E78D
:103AAC000744361AEAE700BF0100402038B50B691D
:103ABC0005460C4613B90025284638BD18B1836954
:103ACC000BB900F087F8144B9C421BD16C68B4F90D
:103ADC000C30002BEFD0626ED00704D4990502D4C1
:103AEC00A06D00F015F928462146FFF75DFF636EC7
:103AFC000546DA07E0D4A3899B05DDD4A06D00F060
:103B0C0008F9D9E7054B9C4201D1AC68DFE7044BBF
:103B1C009C4208BFEC68DAE7C84C0008E84C000887
:103B2C00A84C0008002310B50446C0E90033C0E9D6
:103B3C000433836081814366C28183611946082204
:103B4C005C30FFF7BBFD054B24626362044BA36240
:103B5C00044BE362044B236310BD00BF59480008BB
:103B6C007B480008B3480008D7480008014900F01A
:103B7C00AFB800BFB93A0008682270B54D1E554366
:103B8C000E4605F1740100F093F9044640B1002192
:103B9C00C0E900160C30A06005F16802FFF78EFD3D
:103BAC00204670BD014800F0B3B800BFB50100203D
:103BBC00014800F0AEB800BFB5010020014800F08C
:103BCC00A7B800BFB6010020014800F0A2B800BFA2
:103BDC00B601002010B50446FFF7F0FFA3691BB136
:103BEC00BDE81040FFF7F0BFC4E912332365134B57
:103BFC00134A1B68A262A34208BF0123204608BFD8
:103C0C00A36100F01FF86060204600F01BF8A06074
:103C1C00204600F017F800220421E0606068FFF7EE
:103C2C0081FF01220921A068FFF77CFF02221221EB
:103C3C00E068FFF777FF0123A361D1E7A44C0008EC
:103C4C00793B0008F8B50746FFF7ACFF1E4B1E6822
:103C5C00B36913B93046FFF7BDFF4836D6E90134D6
:103C6C00013B03D533680BB33668F7E7B4F90C5056
:103C7C00D5B9164B04F15800E360656600F047F8BF
:103C8C00FFF796FF08222946C4E90155C4E90455FB
:103C9C002560A56104F15C00FFF710FDC4E90D552A
:103CAC00C4E912552046F8BD6834D9E704213846DA
:103CBC00FFF762FF044630600028D5D1FFF778FF8C
:103CCC000C233B60EEE700BFA44C00080100FFFF93
:103CDC002DE9F84306468846002700F14804D4E94C
:103CEC000195B9F1010905D52468002CF7D13846A6
:103CFC00BDE8F883AB89012B07D9B5F90E30013338
:103D0C0003D029463046C04707436835E9E770477A
:103D1C007047704770B50E46B1F90E101446002965
:103D2C001D4696B008DA0022B6F90C302A601A0645
:103D3C0010D44FF480630EE06A4600F0EDFD0028CD
:103D4C00F1DB019A02F47042A2F500535A425A4137
:103D5C002A60EEE740230020236016B070BD0000FF
:103D6C008B8973B59D0706460C4607D504F14703AE
:103D7C00236023610123636102B070BD6A4601AB0D
:103D8C00FFF7C8FF00990546304600F091F848B996
:103D9C00B4F90C309A05EFD423F0030343F002037B
:103DAC00A381E3E70D4BB362A389206043F080034A
:103DBC00A381009B20616361019B5BB13046B4F928
:103DCC000E1000F0BBFD28B1A38923F0030343F0D0
:103DDC000103A381A0890543A581CDE7793B0008A8
:103DEC0038B50546002940D051F8043C0C1F002B77
:103DFC00B8BFE41800F0FAFD1C4A136833B96360CD
:103E0C0014602846BDE8384000F0F6BDA34208D93E
:103E1C00206821188B4201BF19685B680918216062
:103E2C00EDE71A465B680BB1A342FAD9116850183A
:103E3C00A0420BD120680144501883421160E0D19C
:103E4C0018685B68014411605360DAE702D90C23EF
:103E5C002B60D6E7206821188B4201BF19685B687C
:103E6C000918216063605460CBE738BDB8010020AD
:103E7C0070B50E4E0C463168054611B900F0D6FCF3
:103E8C0030602146284600F0D1FC431C0AD0C41CEB
:103E9C0024F00304A04207D0211A284600F0C6FCE7
:103EAC00013001D14FF0FF34204670BDBC01002021
:103EBC002DE9F041CD1C25F0030508350C2D38BF3C
:103ECC000C25002D074601DBA94205D90C23002641
:103EDC003B603046BDE8F0812E4E00F087FD336824
:103EEC001C4634BB29463846FFF7C2FF431C044628
:103EFC004DD134682646002E40D1236831463846D1
:103F0C0004EB030800F092FC80453AD1216803359C
:103F1C006D1A25F0030508350C2D38BF0C253846D5
:103F2C002946FFF7A5FF01302BD023682B442360D3
:103F3C000EE02268521B1ED40B2A16D96119A3421B
:103F4C00256018BF5960636808BF316062514B60CF
:103F5C00384604F10B0600F04FFD26F00706231D32
:103F6C00F21AB6D09B1BA350B3E76268A3420CBFF6
:103F7C0032605A60ECE723466468B2E734467668F0
:103F8C00B9E70C2338463B6000F036FDA1E725600D
:103F9C00DEE700BFB80100202DE9F0478E688246AD
:103FAC009E420C4690461F4638D88A8912F4906F70
:103FBC0032D0256809690133A5EB010965694B44C9
:103FCC0005EB450505EBD5756D109D4238BF1D46BB
:103FDC00530531D52946FFF76BFF064650B90C2324
:103FEC004FF0FF30CAF80030A38943F04003A3819F
:103FFC00BDE8F0874A46216900F0D0FCA38923F480
:10400C00906343F08003A38126614E4426603E46B4
:10401C006561A5EB0905A560BE4200D93E46324656
:10402C004146206800F0C8FCA36800209B1BA360DD
:10403C00236833442360DBE72A4600F0E3FC0646A2
:10404C000028E1D150462169FFF7CAFEC7E70000FE
:10405C002DE9F04F98468B8907461B060D461446F2
:10406C009DB00ED50B6963B94021FFF721FF286085
:10407C00286120B90C233B604FF0FF30D1E0402386
:10408C006B610023099320238DF8293030234FF0E6
:10409C000109CDF80C80DFF8A4818DF82A30234675
:1040AC009A4613F8012B0AB1252AF9D1BAEB040B65
:1040BC000BD05B46224629463846FFF76DFF013090
:1040CC0000F0AA80099A5A4409929AF80030002B01
:1040DC0000F0A28000234FF0FF32CDE905230AF156
:1040EC00010A049307938DF853301A935446052212
:1040FC0014F8011B514800F043FC049AD8B9D006BF
:10410C0044BF20238DF85330110744BF2B238DF867
:10411C0053309AF800302A2B15D0544600204FF01B
:10412C000A0C079A214611F8013B303B092B4ED95A
:10413C00B0B1079214E0A0EB080309FA03F31343A0
:10414C00A2460493D2E7039B191D1B680391002B15
:10415C00BBBF5B4242F0020207930793B8BF0492C5
:10416C0023782E2B0CD163782A2B35D1039B023468
:10417C001A1D1B680392002BB8BF4FF0FF33059339
:10418C00DFF8BCA003225046217800F0F9FB40B1C7
:10419C004023A0EB0A0003FA00F0049B0134034314
:1041AC00049314F8011B062226488DF8281000F001
:1041BC00E7FB002838D0244B1BBB039B073323F0B1
:1041CC00070308330393099B3344099367E70C46B1
:1041DC0001200CFB0232A5E700234FF00A0C194614
:1041EC0001340593204610F8012B303A092A03D9E3
:1041FC00002BC5D00591C3E7044601230CFB01211C
:10420C00F0E703AB00932A463846104B04A9AFF3F2
:10421C000080421C0646D6D1AB895B063FF52CAF1D
:10422C0009981DB0BDE8F08F03AB00932A463846C1
:10423C00064B04A900F0D4F9EBE700BF084D0008C9
:10424C000E4D0008124D000800000000A53F0008AC
:10425C00936810B4013B002B936007DA9469A34276
:10426C0001DB0A2902D110BCFFF7DEBA1368581C17
:10427C0010601970084610BC7047F8B506460F461A
:10428C001446D518AC4201D1002007E03A4630461E
:10429C0014F8011BFFF7DCFF431CF3D1F8BD000041
:1042AC002DE9F04F0D461446984606469DB018B1C0
:1042BC0083690BB9FFF78EFC894B9D421BD1756846
:1042CC006B6ED90705D4AB899A0502D4A86DFFF79C
:1042DC001FFDAB891B0701D52B69EBB9294630466D
:1042EC00FFF7F4FAC0B16B6EDC070ED54FF0FF3060
:1042FC001DB0BDE8F08F7B4B9D4201D1B568DFE767
:10430C00794B9D4208BFF568DAE7AB899805EDD487
:10431C00A86DFFF7FEFCE9E70023099320238DF835
:10432C00293030234FF00109CDF80C80DFF8BC8127
:10433C008DF82A3023469A4613F8012B0AB1252A08
:10434C00F9D1BAEB040B0BD05B462246294630461A
:10435C00FFF793FF013000F0AA80099A5A440992A2
:10436C009AF80030002B00F0A28000234FF0FF32AF
:10437C00CDE905230AF1010A049307938DF8533014
:10438C001A935446052214F8011B584800F0F8FA09
:10439C00049AD8B9D10644BF20238DF853301307A3
:1043AC0044BF2B238DF853309AF800302A2B15D0AC
:1043BC00544600204FF00A0C079A214611F8013B95
:1043CC00303B092B4ED9B0B1079214E0A0EB080397
:1043DC0009FA03F31343A2460493D2E7039B191D76
:1043EC001B680391002BBBBF5B4242F00202079398
:1043FC000793B8BF049223782E2B0CD163782A2B09
:10440C0035D1039B02341A1D1B680392002BB8BFD5
:10441C004FF0FF330593DFF8D8A0032250462178E4
:10442C0000F0AEFA40B14023A0EB0A0003FA00F012
:10443C00049B01340343049314F8011B06222D48FA
:10444C008DF8281000F09CFA00283FD02A4B1BBB9B
:10445C00039B073323F0070308330393099B3B4467
:10446C00099367E70C4601200CFB0232A5E70023F9
:10447C004FF00A0C194601340593204610F8012B15
:10448C00303A092A03D9002BC5D00591C3E704465D
:10449C0001230CFB0121F0E703AB00932A463046C5
:1044AC00164B04A9AFF300800746781CD6D16B6E6F
:1044BC00D90705D4AB899A0502D4A86DFFF729FC5E
:1044CC00AB895B063FF512AF099811E703AB00937C
:1044DC002A463046094B04A900F082F8E4E700BFF5
:1044EC00C84C0008E84C0008A84C0008084D00080F
:1044FC000E4D0008124D0008000000008742000815
:10450C002DE9F047164699468A680B69074693428F
:10451C00B8BF1346336091F843200C46DDF8208079
:10452C000AB1013333602368990642BF3368023302
:10453C003360256815F0060506D104F1190AE36805
:10454C0032689B1AAB4228DC94F84320131E226875
:10455C0018BF012392062DD44946384604F1430274
:10456C00C047013020D02368E56803F00603042B14
:10457C0018BF002532684FF00006A36808BFAD1ABB
:10458C00226908BF25EAE5759342C4BF9B1AED1852
:10459C001A34B5421AD1002008E00123524649468C
:1045AC003846C047013003D14FF0FF30BDE8F087EB
:1045BC000135C4E73020E11881F843005A1C94F807
:1045CC0045102244023382F84310C5E701232246EA
:1045DC0049463846C0470130E6D00136D9E70000DD
:1045EC002DE9FF470F7E9146782F80460C469A4660
:1045FC000C9D01F1430207D8622F0AD8002F00F05E
:10460C00D980582F00F0A48004F1420584F8427040
:10461C003AE0A7F16303152BF6D801A151F823F06A
:10462C0085460008994600081546000815460008FE
:10463C00154600081546000899460008154600085E
:10464C00154600081546000815460008A74700083F
:10465C00C946000889470008154600081546000899
:10466C00C947000815460008C94600081546000849
:10467C0015460008914700082B681A1D1B682A6014
:10468C0004F1420584F842300123A4E02068296833
:10469C00060601F104030AD50E682B60002E03DA1E
:1046AC002D23764284F843300A235E4819E00E68C5
:1046BC0010F0400F2B6018BF36B2EFE72B68206864
:1046CC00191D2960010601D51E6802E04606FBD5BE
:1046DC001E886F2F0CBF08230A235248002184F830
:1046EC0043106568002DA8BF2168A560A4BF21F008
:1046FC00040121600EB9002D4DD01546B6FBF3F127
:10470C0003FB1167C75D05F8017D3746BB420E46BA
:10471C00F4D9082B0BD12368DE0708D5236961680F
:10472C009942DEBF302305F8013C05F1FF35521BE1
:10473C0022614B4621464046CDF800A003AAFFF764
:10474C00DFFE01304CD14FF0FF3004B0BDE8F087F4
:10475C00344881F845702968236851F8046B296046
:10476C001D0614D5DF0744BF43F0200323601EB998
:10477C00236823F0200323601023AFE7236843F062
:10478C00200323607823284884F84530E3E7590652
:10479C0048BFB6B2E6E71546BBE72B682668181D7E
:1047AC006169286035061B6801D5196002E0700646
:1047BC00FBD51980002315462361BAE72B6800212D
:1047CC001A1D2A601D686268284600F0D9F808B1E5
:1047DC00401B606063682361002384F84330A8E7C2
:1047EC002A46494640462369D0470130ABD023685E
:1047FC009B0713D4E068039B9842B8BF1846A4E704
:10480C000123324649464046D04701309BD0013502
:10481C00E36803995B1AAB42F2DCEBE7002504F189
:10482C001906F5E7194D00082A4D000838B5002384
:10483C00054D044608462B60FDF77AF8431C02D15F
:10484C002B6803B1236038BDC001002010B50C46A5
:10485C00B1F90E1000F006F90028ABBF636DA38907
:10486C001B1823F48053ACBF6365A38110BD2DE9E5
:10487C00F0411F468B890546DB050C46164605D5CF
:10488C0002230022B1F90E1000F068F8A389324619
:10489C0023F48053A38128463B46B4F90E10BDE89F
:1048AC00F04100F017B810B50C46B1F90E1000F03D
:1048BC0055F8431CA38915BF606523F4805343F45A
:1048CC008053A38118BFA38110BDB1F90E1000F065
:1048DC0013B8000038B50446084611460022054DB1
:1048EC002A601A46FCF7D8FF431C02D12B6803B18F
:1048FC00236038BDC001002038B50023054D0446A7
:10490C0008462B60FCF7E4FF431C02D12B6803B173
:10491C00236038BDC001002038B50023064D044685
:10492C00084611462B60FCF7DEFF431C02D12B68B6
:10493C0003B1236038BD00BFC001002038B500238F
:10494C00054D044608462B60FCF7DCFF431C02D1E6
:10495C002B6803B1236038BDC001002038B5044674
:10496C00084611460022054D2A601A46FCF7D4FF72
:10497C00431C02D12B6803B1236038BDC001002059
:10498C00034610B5C9B202449342184601D1002027
:10499C0003E0047801338C42F6D110BD0A449142F5
:1049AC0000F1FF3300D1704710B511F8014B914263
:1049BC0003F8014FF9D110BD884210B501EB020488
:1049CC0002D98442234607D8431EA14208D011F8CD
:1049DC00012B03F8012FF8E7014602448A4200D16B
:1049EC0010BD13F8014D02F8014DF7E70148FFF730
:1049FC008FB900BFB40100200148FFF78AB900BF8E
:104A0C00B40100202DE9F041804614460E4621B930
:104A1C001146BDE8F041FFF74BBA2AB9FFF7E0F9B0
:104A2C0025462846BDE8F08100F02EF88442074662
:104A3C0002D8B4EB500F12D821464046FFF738FA93
:104A4C0005460028EDD0BC422246314628BF3A46E6
:104A5C00FFF7A4FF31464046FFF7C2F9E1E73546C0
:104A6C00DFE7000038B50446084611460022054D24
:104A7C002A601A46FCF7F3FE431C02D12B6803B1E3
:104A8C00236038BDC001002051F8043C181F002BD6
:104A9C00BCBF0B58C0187047F8B500BFF8BC08BCB9
:104AAC009E467047F8B500BFF8BC08BC9E467047E0
:104ABC004C4F57204B455920505245535345440DAC
:104ACC00000000004D4544204B45592050524553A1
:104ADC005345440D0000000048494748204B4559B8
:104AEC0020505245535345440D000000464E204B78
:104AFC00455920505245535345440D0000000000C9
:104B0C0040000000140000005400000057454C43C6
:104B1C004F4D45210000000053656C6563742061A6
:104B2C00206D6F6465000000746F20737461727483
:104B3C002064727965720000444F4F5200000000EF
:104B4C004F50454E000000004552524F520000009D
:104B5C0048454154455200004149520050524F4380
:104B6C0045535300434F4D504C45544500000000F5
:104B7C00683D253032643A2530326400633D25307F
:104B8C0032643A25303264004C4556454C3A204C40
:104B9C004F5700004C4556454C3A204D454449551D
:104BAC004D0000004C4556454C3A204849474800BA
:104BBC005365743A25303264430000004375723AF1
:104BCC004552520048656C6C6F0D0000486561746D
:104BDC0054696D65203D2025640D0A00436F6F6C90
:104BEC0054696D65203D2025640D0A004C4F575FBC
:104BFC004C4556454C0D0A004D45445F4C455645B9
:104C0C004C0D0A00484947485F4C4556454C0D0A27
:104C1C000000000048656174657254696D65203D43
:104C2C002025640D0A000000524F545F4C45465439
:104C3C00203D2025640D0A005041535545203D2050
:104C4C0025640D0A00000000524F545F524947483A
:104C5C0054203D2025640D0A0000000054494D45A8
:104C6C00520D0A00436F6D706C6574650D00000089
:104C7C0002030405060708090A0B0C0D0E0F101091
:104C8C0000000000000000000102030406070809F0
:104C9C0000000000010203041400002000000000CA
:104CAC0000000000000000000000000000000000F8
:104CBC0000000000000000000000000000000000E8
:104CCC0000000000000000000000000000000000D8
:104CDC0000000000000000000000000000000000C8
:104CEC0000000000000000000000000000000000B8
:104CFC00000000000000000000000000232D302BFD
:104D0C002000686C4C0065666745464700303132C0
:104D1C003334353637383941424344454600303117
:104D2C003233343536373839616263646566000076
:044D3C003101000839
:044D40000D01000859
:104D4400011E00000024F400100000000100000017
:104D54001400002000000000C84C0008E84C0008C3
:104D6400A84C000800000000000000000000000043
:104D7400000000000000000000000000000000002F
:104D8400000000000000000000000000000000001F
:104D9400000000000000000000000000000000000F
:104DA40000000000000000000000000000000000FF
:044DB40000000000FB
:0400000508001B656F
:00000001FF
